{
    "contractName": "Artifact",
    "abi": [
        {
            "inputs": [
                {
                    "internalType": "string",
                    "name": "_uri",
                    "type": "string"
                },
                {
                    "internalType": "string",
                    "name": "_name",
                    "type": "string"
                },
                {
                    "internalType": "uint256",
                    "name": "_id",
                    "type": "uint256"
                },
                {
                    "internalType": "uint256",
                    "name": "_amount",
                    "type": "uint256"
                },
                {
                    "internalType": "uint256",
                    "name": "_price",
                    "type": "uint256"
                },
                {
                    "internalType": "address",
                    "name": "_creator",
                    "type": "address"
                },
                {
                    "internalType": "address",
                    "name": "_marketX",
                    "type": "address"
                }
            ],
            "stateMutability": "nonpayable",
            "type": "constructor"
        },
        {
            "anonymous": false,
            "inputs": [
                {
                    "indexed": true,
                    "internalType": "address",
                    "name": "account",
                    "type": "address"
                },
                {
                    "indexed": true,
                    "internalType": "address",
                    "name": "operator",
                    "type": "address"
                },
                {
                    "indexed": false,
                    "internalType": "bool",
                    "name": "approved",
                    "type": "bool"
                }
            ],
            "name": "ApprovalForAll",
            "type": "event"
        },
        {
            "anonymous": false,
            "inputs": [
                {
                    "indexed": true,
                    "internalType": "address",
                    "name": "previousOwner",
                    "type": "address"
                },
                {
                    "indexed": true,
                    "internalType": "address",
                    "name": "newOwner",
                    "type": "address"
                }
            ],
            "name": "OwnershipTransferred",
            "type": "event"
        },
        {
            "anonymous": false,
            "inputs": [
                {
                    "indexed": true,
                    "internalType": "address",
                    "name": "operator",
                    "type": "address"
                },
                {
                    "indexed": true,
                    "internalType": "address",
                    "name": "from",
                    "type": "address"
                },
                {
                    "indexed": true,
                    "internalType": "address",
                    "name": "to",
                    "type": "address"
                },
                {
                    "indexed": false,
                    "internalType": "uint256[]",
                    "name": "ids",
                    "type": "uint256[]"
                },
                {
                    "indexed": false,
                    "internalType": "uint256[]",
                    "name": "values",
                    "type": "uint256[]"
                }
            ],
            "name": "TransferBatch",
            "type": "event"
        },
        {
            "anonymous": false,
            "inputs": [
                {
                    "indexed": true,
                    "internalType": "address",
                    "name": "operator",
                    "type": "address"
                },
                {
                    "indexed": true,
                    "internalType": "address",
                    "name": "from",
                    "type": "address"
                },
                {
                    "indexed": true,
                    "internalType": "address",
                    "name": "to",
                    "type": "address"
                },
                {
                    "indexed": false,
                    "internalType": "uint256",
                    "name": "id",
                    "type": "uint256"
                },
                {
                    "indexed": false,
                    "internalType": "uint256",
                    "name": "value",
                    "type": "uint256"
                }
            ],
            "name": "TransferSingle",
            "type": "event"
        },
        {
            "anonymous": false,
            "inputs": [
                {
                    "indexed": false,
                    "internalType": "string",
                    "name": "value",
                    "type": "string"
                },
                {
                    "indexed": true,
                    "internalType": "uint256",
                    "name": "id",
                    "type": "uint256"
                }
            ],
            "name": "URI",
            "type": "event"
        },
        {
            "inputs": [],
            "name": "AMOUNT",
            "outputs": [
                {
                    "internalType": "uint256",
                    "name": "",
                    "type": "uint256"
                }
            ],
            "stateMutability": "view",
            "type": "function"
        },
        {
            "inputs": [],
            "name": "ID",
            "outputs": [
                {
                    "internalType": "uint256",
                    "name": "",
                    "type": "uint256"
                }
            ],
            "stateMutability": "view",
            "type": "function"
        },
        {
            "inputs": [
                {
                    "internalType": "uint256",
                    "name": "",
                    "type": "uint256"
                }
            ],
            "name": "LEDGER",
            "outputs": [
                {
                    "internalType": "address",
                    "name": "",
                    "type": "address"
                }
            ],
            "stateMutability": "view",
            "type": "function"
        },
        {
            "inputs": [],
            "name": "NAME",
            "outputs": [
                {
                    "internalType": "string",
                    "name": "",
                    "type": "string"
                }
            ],
            "stateMutability": "view",
            "type": "function"
        },
        {
            "inputs": [
                {
                    "internalType": "address",
                    "name": "account",
                    "type": "address"
                },
                {
                    "internalType": "uint256",
                    "name": "id",
                    "type": "uint256"
                }
            ],
            "name": "balanceOf",
            "outputs": [
                {
                    "internalType": "uint256",
                    "name": "",
                    "type": "uint256"
                }
            ],
            "stateMutability": "view",
            "type": "function"
        },
        {
            "inputs": [
                {
                    "internalType": "address[]",
                    "name": "accounts",
                    "type": "address[]"
                },
                {
                    "internalType": "uint256[]",
                    "name": "ids",
                    "type": "uint256[]"
                }
            ],
            "name": "balanceOfBatch",
            "outputs": [
                {
                    "internalType": "uint256[]",
                    "name": "",
                    "type": "uint256[]"
                }
            ],
            "stateMutability": "view",
            "type": "function"
        },
        {
            "inputs": [
                {
                    "internalType": "address",
                    "name": "account",
                    "type": "address"
                },
                {
                    "internalType": "address",
                    "name": "operator",
                    "type": "address"
                }
            ],
            "name": "isApprovedForAll",
            "outputs": [
                {
                    "internalType": "bool",
                    "name": "",
                    "type": "bool"
                }
            ],
            "stateMutability": "view",
            "type": "function"
        },
        {
            "inputs": [],
            "name": "owner",
            "outputs": [
                {
                    "internalType": "address",
                    "name": "",
                    "type": "address"
                }
            ],
            "stateMutability": "view",
            "type": "function"
        },
        {
            "inputs": [],
            "name": "renounceOwnership",
            "outputs": [],
            "stateMutability": "nonpayable",
            "type": "function"
        },
        {
            "inputs": [
                {
                    "internalType": "address",
                    "name": "from",
                    "type": "address"
                },
                {
                    "internalType": "address",
                    "name": "to",
                    "type": "address"
                },
                {
                    "internalType": "uint256[]",
                    "name": "ids",
                    "type": "uint256[]"
                },
                {
                    "internalType": "uint256[]",
                    "name": "amounts",
                    "type": "uint256[]"
                },
                {
                    "internalType": "bytes",
                    "name": "data",
                    "type": "bytes"
                }
            ],
            "name": "safeBatchTransferFrom",
            "outputs": [],
            "stateMutability": "nonpayable",
            "type": "function"
        },
        {
            "inputs": [
                {
                    "internalType": "address",
                    "name": "from",
                    "type": "address"
                },
                {
                    "internalType": "address",
                    "name": "to",
                    "type": "address"
                },
                {
                    "internalType": "uint256",
                    "name": "id",
                    "type": "uint256"
                },
                {
                    "internalType": "uint256",
                    "name": "amount",
                    "type": "uint256"
                },
                {
                    "internalType": "bytes",
                    "name": "data",
                    "type": "bytes"
                }
            ],
            "name": "safeTransferFrom",
            "outputs": [],
            "stateMutability": "nonpayable",
            "type": "function"
        },
        {
            "inputs": [
                {
                    "internalType": "address",
                    "name": "operator",
                    "type": "address"
                },
                {
                    "internalType": "bool",
                    "name": "approved",
                    "type": "bool"
                }
            ],
            "name": "setApprovalForAll",
            "outputs": [],
            "stateMutability": "nonpayable",
            "type": "function"
        },
        {
            "inputs": [
                {
                    "internalType": "bytes4",
                    "name": "interfaceId",
                    "type": "bytes4"
                }
            ],
            "name": "supportsInterface",
            "outputs": [
                {
                    "internalType": "bool",
                    "name": "",
                    "type": "bool"
                }
            ],
            "stateMutability": "view",
            "type": "function"
        },
        {
            "inputs": [
                {
                    "internalType": "address",
                    "name": "newOwner",
                    "type": "address"
                }
            ],
            "name": "transferOwnership",
            "outputs": [],
            "stateMutability": "nonpayable",
            "type": "function"
        },
        {
            "inputs": [
                {
                    "internalType": "uint256",
                    "name": "",
                    "type": "uint256"
                }
            ],
            "name": "uri",
            "outputs": [
                {
                    "internalType": "string",
                    "name": "",
                    "type": "string"
                }
            ],
            "stateMutability": "view",
            "type": "function"
        },
        {
            "inputs": [
                {
                    "internalType": "address",
                    "name": "_to",
                    "type": "address"
                }
            ],
            "name": "mint",
            "outputs": [],
            "stateMutability": "nonpayable",
            "type": "function"
        },
        {
            "inputs": [
                {
                    "internalType": "uint256",
                    "name": "_id",
                    "type": "uint256"
                }
            ],
            "name": "idToName",
            "outputs": [
                {
                    "internalType": "string",
                    "name": "",
                    "type": "string"
                }
            ],
            "stateMutability": "view",
            "type": "function"
        },
        {
            "inputs": [
                {
                    "internalType": "address",
                    "name": "_buyer",
                    "type": "address"
                }
            ],
            "name": "transfer",
            "outputs": [],
            "stateMutability": "nonpayable",
            "type": "function"
        },
        {
            "inputs": [],
            "name": "getHodler",
            "outputs": [
                {
                    "internalType": "address",
                    "name": "",
                    "type": "address"
                }
            ],
            "stateMutability": "view",
            "type": "function"
        },
        {
            "inputs": [],
            "name": "getCreator",
            "outputs": [
                {
                    "internalType": "address",
                    "name": "",
                    "type": "address"
                }
            ],
            "stateMutability": "view",
            "type": "function"
        },
        {
            "inputs": [
                {
                    "internalType": "enum Artifact.Status",
                    "name": "_newStatus",
                    "type": "uint8"
                }
            ],
            "name": "setStatus",
            "outputs": [],
            "stateMutability": "nonpayable",
            "type": "function"
        },
        {
            "inputs": [],
            "name": "getStatus",
            "outputs": [
                {
                    "internalType": "enum Artifact.Status",
                    "name": "",
                    "type": "uint8"
                }
            ],
            "stateMutability": "view",
            "type": "function"
        },
        {
            "inputs": [],
            "name": "getData",
            "outputs": [
                {
                    "internalType": "uint256",
                    "name": "",
                    "type": "uint256"
                },
                {
                    "internalType": "uint256",
                    "name": "",
                    "type": "uint256"
                },
                {
                    "internalType": "uint256",
                    "name": "",
                    "type": "uint256"
                },
                {
                    "internalType": "enum Artifact.Status",
                    "name": "",
                    "type": "uint8"
                }
            ],
            "stateMutability": "view",
            "type": "function"
        },
        {
            "inputs": [],
            "name": "getPrice",
            "outputs": [
                {
                    "internalType": "uint256",
                    "name": "",
                    "type": "uint256"
                }
            ],
            "stateMutability": "view",
            "type": "function"
        }
    ],
    "bytecode": "0x60806040526000600d553480156200001657600080fd5b50604051620042823803806200428283398181016040528101906200003c9190620005e0565b866200004e816200020e60201b60201c565b506200006f620000636200022a60201b60201c565b6200023260201b60201c565b85600490805190602001906200008792919062000490565b506000600860006101000a81548160ff02191690836004811115620000d5577f4e487b7100000000000000000000000000000000000000000000000000000000600052602160045260246000fd5b021790555080600b60006101000a81548173ffffffffffffffffffffffffffffffffffffffff021916908373ffffffffffffffffffffffffffffffffffffffff16021790555081600560006101000a81548173ffffffffffffffffffffffffffffffffffffffff021916908373ffffffffffffffffffffffffffffffffffffffff16021790555083600a819055508260078190555084600981905550600c829080600181540180825580915050600190039060005260206000200160009091909190916101000a81548173ffffffffffffffffffffffffffffffffffffffff021916908373ffffffffffffffffffffffffffffffffffffffff160217905550600d6000815480929190620001e99062000892565b919050555062000201816001620002f860201b60201c565b5050505050505062000a01565b80600290805190602001906200022692919062000490565b5050565b600033905090565b6000600360009054906101000a900473ffffffffffffffffffffffffffffffffffffffff16905081600360006101000a81548173ffffffffffffffffffffffffffffffffffffffff021916908373ffffffffffffffffffffffffffffffffffffffff1602179055508173ffffffffffffffffffffffffffffffffffffffff168173ffffffffffffffffffffffffffffffffffffffff167f8be0079c531659141344cd1fd0a4f28419497f9722a3daafe3b4186f6b6457e060405160405180910390a35050565b6200031a6200030c6200022a60201b60201c565b83836200031e60201b60201c565b5050565b8173ffffffffffffffffffffffffffffffffffffffff168373ffffffffffffffffffffffffffffffffffffffff16141562000390576040517f08c379a0000000000000000000000000000000000000000000000000000000008152600401620003879062000714565b60405180910390fd5b80600160008573ffffffffffffffffffffffffffffffffffffffff1673ffffffffffffffffffffffffffffffffffffffff16815260200190815260200160002060008473ffffffffffffffffffffffffffffffffffffffff1673ffffffffffffffffffffffffffffffffffffffff16815260200190815260200160002060006101000a81548160ff0219169083151502179055508173ffffffffffffffffffffffffffffffffffffffff168373ffffffffffffffffffffffffffffffffffffffff167f17307eab39ab6107e8899845ad3d59bd9653f200f220920489ca2b5937696c3183604051620004839190620006f7565b60405180910390a3505050565b8280546200049e9062000826565b90600052602060002090601f016020900481019282620004c257600085556200050e565b82601f10620004dd57805160ff19168380011785556200050e565b828001600101855582156200050e579182015b828111156200050d578251825591602001919060010190620004f0565b5b5090506200051d919062000521565b5090565b5b808211156200053c57600081600090555060010162000522565b5090565b60006200055762000551846200075f565b62000736565b9050828152602081018484840111156200057057600080fd5b6200057d848285620007f0565b509392505050565b6000815190506200059681620009cd565b92915050565b600082601f830112620005ae57600080fd5b8151620005c084826020860162000540565b91505092915050565b600081519050620005da81620009e7565b92915050565b600080600080600080600060e0888a031215620005fc57600080fd5b600088015167ffffffffffffffff8111156200061757600080fd5b620006258a828b016200059c565b975050602088015167ffffffffffffffff8111156200064357600080fd5b620006518a828b016200059c565b9650506040620006648a828b01620005c9565b9550506060620006778a828b01620005c9565b94505060806200068a8a828b01620005c9565b93505060a06200069d8a828b0162000585565b92505060c0620006b08a828b0162000585565b91505092959891949750929550565b620006ca81620007ba565b82525050565b6000620006df60298362000795565b9150620006ec826200097e565b604082019050919050565b60006020820190506200070e6000830184620006bf565b92915050565b600060208201905081810360008301526200072f81620006d0565b9050919050565b60006200074262000755565b90506200075082826200085c565b919050565b6000604051905090565b600067ffffffffffffffff8211156200077d576200077c6200093e565b5b62000788826200096d565b9050602081019050919050565b600082825260208201905092915050565b6000620007b382620007c6565b9050919050565b60008115159050919050565b600073ffffffffffffffffffffffffffffffffffffffff82169050919050565b6000819050919050565b60005b8381101562000810578082015181840152602081019050620007f3565b8381111562000820576000848401525b50505050565b600060028204905060018216806200083f57607f821691505b602082108114156200085657620008556200090f565b5b50919050565b62000867826200096d565b810181811067ffffffffffffffff821117156200088957620008886200093e565b5b80604052505050565b60006200089f82620007e6565b91507fffffffffffffffffffffffffffffffffffffffffffffffffffffffffffffffff821415620008d557620008d4620008e0565b5b600182019050919050565b7f4e487b7100000000000000000000000000000000000000000000000000000000600052601160045260246000fd5b7f4e487b7100000000000000000000000000000000000000000000000000000000600052602260045260246000fd5b7f4e487b7100000000000000000000000000000000000000000000000000000000600052604160045260246000fd5b6000601f19601f8301169050919050565b7f455243313135353a2073657474696e6720617070726f76616c2073746174757360008201527f20666f722073656c660000000000000000000000000000000000000000000000602082015250565b620009d881620007a6565b8114620009e457600080fd5b50565b620009f281620007e6565b8114620009fe57600080fd5b50565b6138718062000a116000396000f3fe608060405234801561001057600080fd5b50600436106101575760003560e01c8063715018a6116100c3578063a3f4df7e1161007c578063a3f4df7e146103c9578063b3cea217146103e7578063d178917614610405578063e985e9c514610423578063f242432a14610453578063f2fde38b1461046f57610157565b8063715018a61461031957806374fa687a146103235780638da5cb5b1461035357806398d5fdca146103715780639fade8a11461038f578063a22cb465146103ad57610157565b80632eb2c2d6116101155780632eb2c2d614610242578063364410b31461025e5780633bc5de301461028e5780634e1273f4146102af5780634e69d560146102df5780636a627842146102fd57610157565b8062fdd58e1461015c57806301ffc9a71461018c5780630e89341c146101bc5780630ee2cb10146101ec5780631a6952301461020a5780632e49d78b14610226575b600080fd5b61017660048036038101906101719190612655565b61048b565b6040516101839190612e4f565b60405180910390f35b6101a660048036038101906101a191906126fd565b610554565b6040516101b39190612c17565b60405180910390f35b6101d660048036038101906101d19190612778565b610636565b6040516101e39190612c4d565b60405180910390f35b6101f46106ca565b6040516102019190612ae1565b60405180910390f35b610224600480360381019061021f9190612466565b6106f4565b005b610240600480360381019061023b919061274f565b6108d6565b005b61025c600480360381019061025791906124cb565b6109b9565b005b61027860048036038101906102739190612778565b610a5a565b6040516102859190612c4d565b60405180910390f35b610296610b32565b6040516102a69493929190612e93565b60405180910390f35b6102c960048036038101906102c49190612691565b610b5f565b6040516102d69190612bbe565b60405180910390f35b6102e7610d10565b6040516102f49190612c32565b60405180910390f35b61031760048036038101906103129190612466565b610db7565b005b610321610f76565b005b61033d60048036038101906103389190612778565b610ffe565b60405161034a9190612ae1565b60405180910390f35b61035b61103d565b6040516103689190612ae1565b60405180910390f35b610379611067565b6040516103869190612e4f565b60405180910390f35b610397611071565b6040516103a49190612ae1565b60405180910390f35b6103c760048036038101906103c29190612619565b61109b565b005b6103d16110b1565b6040516103de9190612c4d565b60405180910390f35b6103ef61113f565b6040516103fc9190612e4f565b60405180910390f35b61040d611145565b60405161041a9190612e4f565b60405180910390f35b61043d6004803603810190610438919061248f565b61114b565b60405161044a9190612c17565b60405180910390f35b61046d6004803603810190610468919061258a565b6111df565b005b61048960048036038101906104849190612466565b611280565b005b60008073ffffffffffffffffffffffffffffffffffffffff168373ffffffffffffffffffffffffffffffffffffffff1614156104fc576040517f08c379a00000000000000000000000000000000000000000000000000000000081526004016104f390612caf565b60405180910390fd5b60008083815260200190815260200160002060008473ffffffffffffffffffffffffffffffffffffffff1673ffffffffffffffffffffffffffffffffffffffff16815260200190815260200160002054905092915050565b60007fd9b67a26000000000000000000000000000000000000000000000000000000007bffffffffffffffffffffffffffffffffffffffffffffffffffffffff1916827bffffffffffffffffffffffffffffffffffffffffffffffffffffffff1916148061061f57507f0e89341c000000000000000000000000000000000000000000000000000000007bffffffffffffffffffffffffffffffffffffffffffffffffffffffff1916827bffffffffffffffffffffffffffffffffffffffffffffffffffffffff1916145b8061062f575061062e82611378565b5b9050919050565b60606002805461064590613128565b80601f016020809104026020016040519081016040528092919081815260200182805461067190613128565b80156106be5780601f10610693576101008083540402835291602001916106be565b820191906000526020600020905b8154815290600101906020018083116106a157829003601f168201915b50505050509050919050565b6000600560009054906101000a900473ffffffffffffffffffffffffffffffffffffffff16905090565b600b60009054906101000a900473ffffffffffffffffffffffffffffffffffffffff1673ffffffffffffffffffffffffffffffffffffffff163373ffffffffffffffffffffffffffffffffffffffff1614610784576040517f08c379a000000000000000000000000000000000000000000000000000000000815260040161077b90612daf565b60405180910390fd5b6107c6600660009054906101000a900473ffffffffffffffffffffffffffffffffffffffff1682600954600a54604051806020016040528060008152506111df565b80600660006101000a81548173ffffffffffffffffffffffffffffffffffffffff021916908373ffffffffffffffffffffffffffffffffffffffff1602179055506002600860006101000a81548160ff02191690836004811115610853577f4e487b7100000000000000000000000000000000000000000000000000000000600052602160045260246000fd5b0217905550600c819080600181540180825580915050600190039060005260206000200160009091909190916101000a81548173ffffffffffffffffffffffffffffffffffffffff021916908373ffffffffffffffffffffffffffffffffffffffff160217905550600d60008154809291906108ce9061318b565b919050555050565b600b60009054906101000a900473ffffffffffffffffffffffffffffffffffffffff1673ffffffffffffffffffffffffffffffffffffffff163373ffffffffffffffffffffffffffffffffffffffff1614610966576040517f08c379a000000000000000000000000000000000000000000000000000000000815260040161095d90612daf565b60405180910390fd5b80600860006101000a81548160ff021916908360048111156109b1577f4e487b7100000000000000000000000000000000000000000000000000000000600052602160045260246000fd5b021790555050565b6109c16113e2565b73ffffffffffffffffffffffffffffffffffffffff168573ffffffffffffffffffffffffffffffffffffffff161480610a075750610a0685610a016113e2565b61114b565b5b610a46576040517f08c379a0000000000000000000000000000000000000000000000000000000008152600401610a3d90612d4f565b60405180910390fd5b610a5385858585856113ea565b5050505050565b60606009548214610aa0576040517f08c379a0000000000000000000000000000000000000000000000000000000008152600401610a9790612d0f565b60405180910390fd5b60048054610aad90613128565b80601f0160208091040260200160405190810160405280929190818152602001828054610ad990613128565b8015610b265780601f10610afb57610100808354040283529160200191610b26565b820191906000526020600020905b815481529060010190602001808311610b0957829003601f168201915b50505050509050919050565b600080600080600954600754600d54600860009054906101000a900460ff16935093509350935090919293565b60608151835114610ba5576040517f08c379a0000000000000000000000000000000000000000000000000000000008152600401610b9c90612def565b60405180910390fd5b6000835167ffffffffffffffff811115610be8577f4e487b7100000000000000000000000000000000000000000000000000000000600052604160045260246000fd5b604051908082528060200260200182016040528015610c165781602001602082028036833780820191505090505b50905060005b8451811015610d0557610caf858281518110610c61577f4e487b7100000000000000000000000000000000000000000000000000000000600052603260045260246000fd5b6020026020010151858381518110610ca2577f4e487b7100000000000000000000000000000000000000000000000000000000600052603260045260246000fd5b602002602001015161048b565b828281518110610ce8577f4e487b7100000000000000000000000000000000000000000000000000000000600052603260045260246000fd5b60200260200101818152505080610cfe9061318b565b9050610c1c565b508091505092915050565b6000600b60009054906101000a900473ffffffffffffffffffffffffffffffffffffffff1673ffffffffffffffffffffffffffffffffffffffff163373ffffffffffffffffffffffffffffffffffffffff1614610da2576040517f08c379a0000000000000000000000000000000000000000000000000000000008152600401610d9990612daf565b60405180910390fd5b600860009054906101000a900460ff16905090565b600b60009054906101000a900473ffffffffffffffffffffffffffffffffffffffff1673ffffffffffffffffffffffffffffffffffffffff163373ffffffffffffffffffffffffffffffffffffffff1614610e47576040517f08c379a0000000000000000000000000000000000000000000000000000000008152600401610e3e90612daf565b60405180910390fd5b6001600860006101000a81548160ff02191690836004811115610e93577f4e487b7100000000000000000000000000000000000000000000000000000000600052602160045260246000fd5b021790555080600660006101000a81548173ffffffffffffffffffffffffffffffffffffffff021916908373ffffffffffffffffffffffffffffffffffffffff160217905550600c819080600181540180825580915050600190039060005260206000200160009091909190916101000a81548173ffffffffffffffffffffffffffffffffffffffff021916908373ffffffffffffffffffffffffffffffffffffffff160217905550600d6000815480929190610f4f9061318b565b9190505550610f7381600954600a546040518060200160405280600081525061174a565b50565b610f7e6113e2565b73ffffffffffffffffffffffffffffffffffffffff16610f9c61103d565b73ffffffffffffffffffffffffffffffffffffffff1614610ff2576040517f08c379a0000000000000000000000000000000000000000000000000000000008152600401610fe990612d8f565b60405180910390fd5b610ffc60006118e0565b565b600c818154811061100e57600080fd5b906000526020600020016000915054906101000a900473ffffffffffffffffffffffffffffffffffffffff1681565b6000600360009054906101000a900473ffffffffffffffffffffffffffffffffffffffff16905090565b6000600754905090565b6000600660009054906101000a900473ffffffffffffffffffffffffffffffffffffffff16905090565b6110ad6110a66113e2565b83836119a6565b5050565b600480546110be90613128565b80601f01602080910402602001604051908101604052809291908181526020018280546110ea90613128565b80156111375780601f1061110c57610100808354040283529160200191611137565b820191906000526020600020905b81548152906001019060200180831161111a57829003601f168201915b505050505081565b60095481565b600a5481565b6000600160008473ffffffffffffffffffffffffffffffffffffffff1673ffffffffffffffffffffffffffffffffffffffff16815260200190815260200160002060008373ffffffffffffffffffffffffffffffffffffffff1673ffffffffffffffffffffffffffffffffffffffff16815260200190815260200160002060009054906101000a900460ff16905092915050565b6111e76113e2565b73ffffffffffffffffffffffffffffffffffffffff168573ffffffffffffffffffffffffffffffffffffffff16148061122d575061122c856112276113e2565b61114b565b5b61126c576040517f08c379a000000000000000000000000000000000000000000000000000000000815260040161126390612cef565b60405180910390fd5b6112798585858585611b13565b5050505050565b6112886113e2565b73ffffffffffffffffffffffffffffffffffffffff166112a661103d565b73ffffffffffffffffffffffffffffffffffffffff16146112fc576040517f08c379a00000000000000000000000000000000000000000000000000000000081526004016112f390612d8f565b60405180910390fd5b600073ffffffffffffffffffffffffffffffffffffffff168173ffffffffffffffffffffffffffffffffffffffff16141561136c576040517f08c379a000000000000000000000000000000000000000000000000000000000815260040161136390612ccf565b60405180910390fd5b611375816118e0565b50565b60007f01ffc9a7000000000000000000000000000000000000000000000000000000007bffffffffffffffffffffffffffffffffffffffffffffffffffffffff1916827bffffffffffffffffffffffffffffffffffffffffffffffffffffffff1916149050919050565b600033905090565b815183511461142e576040517f08c379a000000000000000000000000000000000000000000000000000000000815260040161142590612e0f565b60405180910390fd5b600073ffffffffffffffffffffffffffffffffffffffff168473ffffffffffffffffffffffffffffffffffffffff16141561149e576040517f08c379a000000000000000000000000000000000000000000000000000000000815260040161149590612d2f565b60405180910390fd5b60006114a86113e2565b90506114b8818787878787611d95565b60005b84518110156116b55760008582815181106114ff577f4e487b7100000000000000000000000000000000000000000000000000000000600052603260045260246000fd5b602002602001015190506000858381518110611544577f4e487b7100000000000000000000000000000000000000000000000000000000600052603260045260246000fd5b60200260200101519050600080600084815260200190815260200160002060008b73ffffffffffffffffffffffffffffffffffffffff1673ffffffffffffffffffffffffffffffffffffffff168152602001908152602001600020549050818110156115e5576040517f08c379a00000000000000000000000000000000000000000000000000000000081526004016115dc90612d6f565b60405180910390fd5b81810360008085815260200190815260200160002060008c73ffffffffffffffffffffffffffffffffffffffff1673ffffffffffffffffffffffffffffffffffffffff168152602001908152602001600020819055508160008085815260200190815260200160002060008b73ffffffffffffffffffffffffffffffffffffffff1673ffffffffffffffffffffffffffffffffffffffff168152602001908152602001600020600082825461169a9190612ff7565b92505081905550505050806116ae9061318b565b90506114bb565b508473ffffffffffffffffffffffffffffffffffffffff168673ffffffffffffffffffffffffffffffffffffffff168273ffffffffffffffffffffffffffffffffffffffff167f4a39dc06d4c0dbc64b70af90fd698a233a518aa5d07e595d983b8c0526c8f7fb878760405161172c929190612be0565b60405180910390a4611742818787878787611d9d565b505050505050565b600073ffffffffffffffffffffffffffffffffffffffff168473ffffffffffffffffffffffffffffffffffffffff1614156117ba576040517f08c379a00000000000000000000000000000000000000000000000000000000081526004016117b190612e2f565b60405180910390fd5b60006117c46113e2565b90506117e5816000876117d688611f84565b6117df88611f84565b87611d95565b8260008086815260200190815260200160002060008773ffffffffffffffffffffffffffffffffffffffff1673ffffffffffffffffffffffffffffffffffffffff16815260200190815260200160002060008282546118449190612ff7565b925050819055508473ffffffffffffffffffffffffffffffffffffffff16600073ffffffffffffffffffffffffffffffffffffffff168273ffffffffffffffffffffffffffffffffffffffff167fc3d58168c5ae7397731d063d5bbf3d657854427343f4c083240f7aacaa2d0f6287876040516118c2929190612e6a565b60405180910390a46118d98160008787878761204a565b5050505050565b6000600360009054906101000a900473ffffffffffffffffffffffffffffffffffffffff16905081600360006101000a81548173ffffffffffffffffffffffffffffffffffffffff021916908373ffffffffffffffffffffffffffffffffffffffff1602179055508173ffffffffffffffffffffffffffffffffffffffff168173ffffffffffffffffffffffffffffffffffffffff167f8be0079c531659141344cd1fd0a4f28419497f9722a3daafe3b4186f6b6457e060405160405180910390a35050565b8173ffffffffffffffffffffffffffffffffffffffff168373ffffffffffffffffffffffffffffffffffffffff161415611a15576040517f08c379a0000000000000000000000000000000000000000000000000000000008152600401611a0c90612dcf565b60405180910390fd5b80600160008573ffffffffffffffffffffffffffffffffffffffff1673ffffffffffffffffffffffffffffffffffffffff16815260200190815260200160002060008473ffffffffffffffffffffffffffffffffffffffff1673ffffffffffffffffffffffffffffffffffffffff16815260200190815260200160002060006101000a81548160ff0219169083151502179055508173ffffffffffffffffffffffffffffffffffffffff168373ffffffffffffffffffffffffffffffffffffffff167f17307eab39ab6107e8899845ad3d59bd9653f200f220920489ca2b5937696c3183604051611b069190612c17565b60405180910390a3505050565b600073ffffffffffffffffffffffffffffffffffffffff168473ffffffffffffffffffffffffffffffffffffffff161415611b83576040517f08c379a0000000000000000000000000000000000000000000000000000000008152600401611b7a90612d2f565b60405180910390fd5b6000611b8d6113e2565b9050611bad818787611b9e88611f84565b611ba788611f84565b87611d95565b600080600086815260200190815260200160002060008873ffffffffffffffffffffffffffffffffffffffff1673ffffffffffffffffffffffffffffffffffffffff16815260200190815260200160002054905083811015611c44576040517f08c379a0000000000000000000000000000000000000000000000000000000008152600401611c3b90612d6f565b60405180910390fd5b83810360008087815260200190815260200160002060008973ffffffffffffffffffffffffffffffffffffffff1673ffffffffffffffffffffffffffffffffffffffff168152602001908152602001600020819055508360008087815260200190815260200160002060008873ffffffffffffffffffffffffffffffffffffffff1673ffffffffffffffffffffffffffffffffffffffff1681526020019081526020016000206000828254611cf99190612ff7565b925050819055508573ffffffffffffffffffffffffffffffffffffffff168773ffffffffffffffffffffffffffffffffffffffff168373ffffffffffffffffffffffffffffffffffffffff167fc3d58168c5ae7397731d063d5bbf3d657854427343f4c083240f7aacaa2d0f628888604051611d76929190612e6a565b60405180910390a4611d8c82888888888861204a565b50505050505050565b505050505050565b611dbc8473ffffffffffffffffffffffffffffffffffffffff16612231565b15611f7c578373ffffffffffffffffffffffffffffffffffffffff1663bc197c8187878686866040518663ffffffff1660e01b8152600401611e02959493929190612afc565b602060405180830381600087803b158015611e1c57600080fd5b505af1925050508015611e4d57506040513d601f19601f82011682018060405250810190611e4a9190612726565b60015b611ef357611e59613290565b806308c379a01415611eb65750611e6e613725565b80611e795750611eb8565b806040517f08c379a0000000000000000000000000000000000000000000000000000000008152600401611ead9190612c4d565b60405180910390fd5b505b6040517f08c379a0000000000000000000000000000000000000000000000000000000008152600401611eea90612c6f565b60405180910390fd5b63bc197c8160e01b7bffffffffffffffffffffffffffffffffffffffffffffffffffffffff1916817bffffffffffffffffffffffffffffffffffffffffffffffffffffffff191614611f7a576040517f08c379a0000000000000000000000000000000000000000000000000000000008152600401611f7190612c8f565b60405180910390fd5b505b505050505050565b60606000600167ffffffffffffffff811115611fc9577f4e487b7100000000000000000000000000000000000000000000000000000000600052604160045260246000fd5b604051908082528060200260200182016040528015611ff75781602001602082028036833780820191505090505b5090508281600081518110612035577f4e487b7100000000000000000000000000000000000000000000000000000000600052603260045260246000fd5b60200260200101818152505080915050919050565b6120698473ffffffffffffffffffffffffffffffffffffffff16612231565b15612229578373ffffffffffffffffffffffffffffffffffffffff1663f23a6e6187878686866040518663ffffffff1660e01b81526004016120af959493929190612b64565b602060405180830381600087803b1580156120c957600080fd5b505af19250505080156120fa57506040513d601f19601f820116820180604052508101906120f79190612726565b60015b6121a057612106613290565b806308c379a01415612163575061211b613725565b806121265750612165565b806040517f08c379a000000000000000000000000000000000000000000000000000000000815260040161215a9190612c4d565b60405180910390fd5b505b6040517f08c379a000000000000000000000000000000000000000000000000000000000815260040161219790612c6f565b60405180910390fd5b63f23a6e6160e01b7bffffffffffffffffffffffffffffffffffffffffffffffffffffffff1916817bffffffffffffffffffffffffffffffffffffffffffffffffffffffff191614612227576040517f08c379a000000000000000000000000000000000000000000000000000000000815260040161221e90612c8f565b60405180910390fd5b505b505050505050565b6000808273ffffffffffffffffffffffffffffffffffffffff163b119050919050565b600061226761226284612efd565b612ed8565b9050808382526020820190508285602086028201111561228657600080fd5b60005b858110156122b6578161229c888261236a565b845260208401935060208301925050600181019050612289565b5050509392505050565b60006122d36122ce84612f29565b612ed8565b905080838252602082019050828560208602820111156122f257600080fd5b60005b8581101561232257816123088882612451565b8452602084019350602083019250506001810190506122f5565b5050509392505050565b600061233f61233a84612f55565b612ed8565b90508281526020810184848401111561235757600080fd5b6123628482856130e6565b509392505050565b600081359050612379816137cf565b92915050565b600082601f83011261239057600080fd5b81356123a0848260208601612254565b91505092915050565b600082601f8301126123ba57600080fd5b81356123ca8482602086016122c0565b91505092915050565b6000813590506123e2816137e6565b92915050565b6000813590506123f7816137fd565b92915050565b60008151905061240c816137fd565b92915050565b600082601f83011261242357600080fd5b813561243384826020860161232c565b91505092915050565b60008135905061244b81613814565b92915050565b60008135905061246081613824565b92915050565b60006020828403121561247857600080fd5b60006124868482850161236a565b91505092915050565b600080604083850312156124a257600080fd5b60006124b08582860161236a565b92505060206124c18582860161236a565b9150509250929050565b600080600080600060a086880312156124e357600080fd5b60006124f18882890161236a565b95505060206125028882890161236a565b945050604086013567ffffffffffffffff81111561251f57600080fd5b61252b888289016123a9565b935050606086013567ffffffffffffffff81111561254857600080fd5b612554888289016123a9565b925050608086013567ffffffffffffffff81111561257157600080fd5b61257d88828901612412565b9150509295509295909350565b600080600080600060a086880312156125a257600080fd5b60006125b08882890161236a565b95505060206125c18882890161236a565b94505060406125d288828901612451565b93505060606125e388828901612451565b925050608086013567ffffffffffffffff81111561260057600080fd5b61260c88828901612412565b9150509295509295909350565b6000806040838503121561262c57600080fd5b600061263a8582860161236a565b925050602061264b858286016123d3565b9150509250929050565b6000806040838503121561266857600080fd5b60006126768582860161236a565b925050602061268785828601612451565b9150509250929050565b600080604083850312156126a457600080fd5b600083013567ffffffffffffffff8111156126be57600080fd5b6126ca8582860161237f565b925050602083013567ffffffffffffffff8111156126e757600080fd5b6126f3858286016123a9565b9150509250929050565b60006020828403121561270f57600080fd5b600061271d848285016123e8565b91505092915050565b60006020828403121561273857600080fd5b6000612746848285016123fd565b91505092915050565b60006020828403121561276157600080fd5b600061276f8482850161243c565b91505092915050565b60006020828403121561278a57600080fd5b600061279884828501612451565b91505092915050565b60006127ad8383612ac3565b60208301905092915050565b6127c28161304d565b82525050565b60006127d382612f96565b6127dd8185612fc4565b93506127e883612f86565b8060005b8381101561281957815161280088826127a1565b975061280b83612fb7565b9250506001810190506127ec565b5085935050505092915050565b61282f8161305f565b82525050565b600061284082612fa1565b61284a8185612fd5565b935061285a8185602086016130f5565b612863816132b2565b840191505092915050565b612877816130d4565b82525050565b600061288882612fac565b6128928185612fe6565b93506128a28185602086016130f5565b6128ab816132b2565b840191505092915050565b60006128c3603483612fe6565b91506128ce826132d0565b604082019050919050565b60006128e6602883612fe6565b91506128f18261331f565b604082019050919050565b6000612909602b83612fe6565b91506129148261336e565b604082019050919050565b600061292c602683612fe6565b9150612937826133bd565b604082019050919050565b600061294f602983612fe6565b915061295a8261340c565b604082019050919050565b6000612972602683612fe6565b915061297d8261345b565b604082019050919050565b6000612995602583612fe6565b91506129a0826134aa565b604082019050919050565b60006129b8603283612fe6565b91506129c3826134f9565b604082019050919050565b60006129db602a83612fe6565b91506129e682613548565b604082019050919050565b60006129fe602083612fe6565b9150612a0982613597565b602082019050919050565b6000612a21601683612fe6565b9150612a2c826135c0565b602082019050919050565b6000612a44602983612fe6565b9150612a4f826135e9565b604082019050919050565b6000612a67602983612fe6565b9150612a7282613638565b604082019050919050565b6000612a8a602883612fe6565b9150612a9582613687565b604082019050919050565b6000612aad602183612fe6565b9150612ab8826136d6565b604082019050919050565b612acc816130ca565b82525050565b612adb816130ca565b82525050565b6000602082019050612af660008301846127b9565b92915050565b600060a082019050612b1160008301886127b9565b612b1e60208301876127b9565b8181036040830152612b3081866127c8565b90508181036060830152612b4481856127c8565b90508181036080830152612b588184612835565b90509695505050505050565b600060a082019050612b7960008301886127b9565b612b8660208301876127b9565b612b936040830186612ad2565b612ba06060830185612ad2565b8181036080830152612bb28184612835565b90509695505050505050565b60006020820190508181036000830152612bd881846127c8565b905092915050565b60006040820190508181036000830152612bfa81856127c8565b90508181036020830152612c0e81846127c8565b90509392505050565b6000602082019050612c2c6000830184612826565b92915050565b6000602082019050612c47600083018461286e565b92915050565b60006020820190508181036000830152612c67818461287d565b905092915050565b60006020820190508181036000830152612c88816128b6565b9050919050565b60006020820190508181036000830152612ca8816128d9565b9050919050565b60006020820190508181036000830152612cc8816128fc565b9050919050565b60006020820190508181036000830152612ce88161291f565b9050919050565b60006020820190508181036000830152612d0881612942565b9050919050565b60006020820190508181036000830152612d2881612965565b9050919050565b60006020820190508181036000830152612d4881612988565b9050919050565b60006020820190508181036000830152612d68816129ab565b9050919050565b60006020820190508181036000830152612d88816129ce565b9050919050565b60006020820190508181036000830152612da8816129f1565b9050919050565b60006020820190508181036000830152612dc881612a14565b9050919050565b60006020820190508181036000830152612de881612a37565b9050919050565b60006020820190508181036000830152612e0881612a5a565b9050919050565b60006020820190508181036000830152612e2881612a7d565b9050919050565b60006020820190508181036000830152612e4881612aa0565b9050919050565b6000602082019050612e646000830184612ad2565b92915050565b6000604082019050612e7f6000830185612ad2565b612e8c6020830184612ad2565b9392505050565b6000608082019050612ea86000830187612ad2565b612eb56020830186612ad2565b612ec26040830185612ad2565b612ecf606083018461286e565b95945050505050565b6000612ee2612ef3565b9050612eee828261315a565b919050565b6000604051905090565b600067ffffffffffffffff821115612f1857612f17613261565b5b602082029050602081019050919050565b600067ffffffffffffffff821115612f4457612f43613261565b5b602082029050602081019050919050565b600067ffffffffffffffff821115612f7057612f6f613261565b5b612f79826132b2565b9050602081019050919050565b6000819050602082019050919050565b600081519050919050565b600081519050919050565b600081519050919050565b6000602082019050919050565b600082825260208201905092915050565b600082825260208201905092915050565b600082825260208201905092915050565b6000613002826130ca565b915061300d836130ca565b9250827fffffffffffffffffffffffffffffffffffffffffffffffffffffffffffffffff03821115613042576130416131d4565b5b828201905092915050565b6000613058826130aa565b9050919050565b60008115159050919050565b60007fffffffff0000000000000000000000000000000000000000000000000000000082169050919050565b60008190506130a5826137bb565b919050565b600073ffffffffffffffffffffffffffffffffffffffff82169050919050565b6000819050919050565b60006130df82613097565b9050919050565b82818337600083830152505050565b60005b838110156131135780820151818401526020810190506130f8565b83811115613122576000848401525b50505050565b6000600282049050600182168061314057607f821691505b6020821081141561315457613153613232565b5b50919050565b613163826132b2565b810181811067ffffffffffffffff8211171561318257613181613261565b5b80604052505050565b6000613196826130ca565b91507fffffffffffffffffffffffffffffffffffffffffffffffffffffffffffffffff8214156131c9576131c86131d4565b5b600182019050919050565b7f4e487b7100000000000000000000000000000000000000000000000000000000600052601160045260246000fd5b7f4e487b7100000000000000000000000000000000000000000000000000000000600052602160045260246000fd5b7f4e487b7100000000000000000000000000000000000000000000000000000000600052602260045260246000fd5b7f4e487b7100000000000000000000000000000000000000000000000000000000600052604160045260246000fd5b600060033d11156132af5760046000803e6132ac6000516132c3565b90505b90565b6000601f19601f8301169050919050565b60008160e01c9050919050565b7f455243313135353a207472616e7366657220746f206e6f6e204552433131353560008201527f526563656976657220696d706c656d656e746572000000000000000000000000602082015250565b7f455243313135353a204552433131353552656365697665722072656a6563746560008201527f6420746f6b656e73000000000000000000000000000000000000000000000000602082015250565b7f455243313135353a2062616c616e636520717565727920666f7220746865207a60008201527f65726f2061646472657373000000000000000000000000000000000000000000602082015250565b7f4f776e61626c653a206e6577206f776e657220697320746865207a65726f206160008201527f6464726573730000000000000000000000000000000000000000000000000000602082015250565b7f455243313135353a2063616c6c6572206973206e6f74206f776e6572206e6f7260008201527f20617070726f7665640000000000000000000000000000000000000000000000602082015250565b7f41727469666163743a20496e76616c696420494420666f72207468697320417260008201527f7469666163740000000000000000000000000000000000000000000000000000602082015250565b7f455243313135353a207472616e7366657220746f20746865207a65726f20616460008201527f6472657373000000000000000000000000000000000000000000000000000000602082015250565b7f455243313135353a207472616e736665722063616c6c6572206973206e6f742060008201527f6f776e6572206e6f7220617070726f7665640000000000000000000000000000602082015250565b7f455243313135353a20696e73756666696369656e742062616c616e636520666f60008201527f72207472616e7366657200000000000000000000000000000000000000000000602082015250565b7f4f776e61626c653a2063616c6c6572206973206e6f7420746865206f776e6572600082015250565b7f41727469666163743a204f6e6c79204d61726b65745800000000000000000000600082015250565b7f455243313135353a2073657474696e6720617070726f76616c2073746174757360008201527f20666f722073656c660000000000000000000000000000000000000000000000602082015250565b7f455243313135353a206163636f756e747320616e6420696473206c656e67746860008201527f206d69736d617463680000000000000000000000000000000000000000000000602082015250565b7f455243313135353a2069647320616e6420616d6f756e7473206c656e6774682060008201527f6d69736d61746368000000000000000000000000000000000000000000000000602082015250565b7f455243313135353a206d696e7420746f20746865207a65726f2061646472657360008201527f7300000000000000000000000000000000000000000000000000000000000000602082015250565b600060443d1015613735576137b8565b61373d612ef3565b60043d036004823e80513d602482011167ffffffffffffffff821117156137655750506137b8565b808201805167ffffffffffffffff81111561378357505050506137b8565b80602083010160043d0385018111156137a05750505050506137b8565b6137af8260200185018661315a565b82955050505050505b90565b600581106137cc576137cb613203565b5b50565b6137d88161304d565b81146137e357600080fd5b50565b6137ef8161305f565b81146137fa57600080fd5b50565b6138068161306b565b811461381157600080fd5b50565b6005811061382157600080fd5b50565b61382d816130ca565b811461383857600080fd5b5056fea26469706673582212202ae925e5226cdbc504c90572b060ca873194215ccbe040cabc55808a28627eb764736f6c63430008040033",
    "immutableReferences": {},
    "source": "// SPDX-License-Identifier: GPL-3.0\r\npragma solidity 0.8.4;\r\nimport \"@openzeppelin/contracts/token/ERC1155/ERC1155.sol\";\r\nimport \"@openzeppelin/contracts/access/Ownable.sol\";\r\n\r\ncontract Artifact is ERC1155, Ownable{\r\n\r\n    enum Status {\r\n        Created,\r\n        Minted,\r\n        Hodl,\r\n        Staked,\r\n        Paused\r\n    }\r\n\r\n    string public NAME;\r\n    address private CREATOR;\r\n    address private HODLER;\r\n    uint private PRICE;\r\n    Status private STATUS;\r\n    uint public ID;\r\n    uint public AMOUNT;\r\n    address MARKETX;\r\n    address[] public LEDGER;\r\n    uint private N_LEDGER = 0;\r\n\r\n    constructor(string memory _uri, string memory _name, uint _id, uint _amount, uint _price, address _creator, address _marketX) ERC1155(_uri) public {\r\n        NAME = _name;\r\n        STATUS = Status.Created;\r\n        MARKETX = _marketX;\r\n        CREATOR = _creator;\r\n        AMOUNT = _amount;\r\n        PRICE = _price;\r\n        ID = _id;\r\n        LEDGER.push(_creator);\r\n        N_LEDGER++;\r\n        setApprovalForAll(_marketX,true);\r\n    }\r\n\r\n    modifier onlyMarketX(){\r\n        require(msg.sender == MARKETX,\"Artifact: Only MarketX\");\r\n        _; \r\n    }\r\n\r\n    function mint(address _to) public onlyMarketX {\r\n        STATUS = Status.Minted;\r\n        HODLER = _to;\r\n        LEDGER.push(_to);\r\n        N_LEDGER++;\r\n        _mint(_to,ID,AMOUNT,\"\");\r\n    }\r\n\r\n    function idToName(uint _id) public view returns(string memory) {\r\n        require(_id == ID, \"Artifact: Invalid ID for this Artifact\");\r\n        return NAME;\r\n    }\r\n\r\n    function transfer(address _buyer) public onlyMarketX{\r\n        safeTransferFrom(HODLER, _buyer, ID, AMOUNT, \"\");\r\n        HODLER = _buyer;\r\n        STATUS = Status.Hodl;\r\n        LEDGER.push(_buyer);\r\n        N_LEDGER++;\r\n    } \r\n\r\n    function getHodler() public view returns(address) {\r\n        return HODLER;\r\n    }\r\n\r\n    function getCreator() public view returns(address) {\r\n        return CREATOR;\r\n    }\r\n\r\n    function setStatus(Status _newStatus) public onlyMarketX {\r\n        STATUS = _newStatus;\r\n    }\r\n \r\n    function getStatus() public onlyMarketX view returns(Status){\r\n        return STATUS;\r\n    }\r\n\r\n    function getData() public view returns(uint,uint,uint,Status){\r\n        return (ID,PRICE,N_LEDGER,STATUS);\r\n    }\r\n\r\n    function getPrice() public view returns(uint){\r\n        return PRICE;\r\n    }\r\n\r\n\r\n}",
    "sourcePath": "C:\\Users\\Aayush Malde\\Desktop\\aayush documents\\ArtifacX\\ArtifacX-SmartContracts\\contracts\\Artifact.sol",
    "compiler": {
        "name": "solc",
        "version": "0.8.4+commit.c7e474f2.Emscripten.clang"
    },
    "schemaVersion": "3.2.3",
    "updatedAt": "2022-05-01T13:28:05.664Z",
    "devdoc": {
        "kind": "dev",
        "methods": {
            "balanceOf(address,uint256)": {
                "details": "See {IERC1155-balanceOf}. Requirements: - `account` cannot be the zero address."
            },
            "balanceOfBatch(address[],uint256[])": {
                "details": "See {IERC1155-balanceOfBatch}. Requirements: - `accounts` and `ids` must have the same length."
            },
            "isApprovedForAll(address,address)": {
                "details": "See {IERC1155-isApprovedForAll}."
            },
            "owner()": {
                "details": "Returns the address of the current owner."
            },
            "renounceOwnership()": {
                "details": "Leaves the contract without owner. It will not be possible to call `onlyOwner` functions anymore. Can only be called by the current owner. NOTE: Renouncing ownership will leave the contract without an owner, thereby removing any functionality that is only available to the owner."
            },
            "safeBatchTransferFrom(address,address,uint256[],uint256[],bytes)": {
                "details": "See {IERC1155-safeBatchTransferFrom}."
            },
            "safeTransferFrom(address,address,uint256,uint256,bytes)": {
                "details": "See {IERC1155-safeTransferFrom}."
            },
            "setApprovalForAll(address,bool)": {
                "details": "See {IERC1155-setApprovalForAll}."
            },
            "supportsInterface(bytes4)": {
                "details": "See {IERC165-supportsInterface}."
            },
            "transferOwnership(address)": {
                "details": "Transfers ownership of the contract to a new account (`newOwner`). Can only be called by the current owner."
            },
            "uri(uint256)": {
                "details": "See {IERC1155MetadataURI-uri}. This implementation returns the same URI for *all* token types. It relies on the token type ID substitution mechanism https://eips.ethereum.org/EIPS/eip-1155#metadata[defined in the EIP]. Clients calling this function must replace the `\\{id\\}` substring with the actual token type ID."
            }
        },
        "version": 1
    },
    "userdoc": {
        "kind": "user",
        "methods": {},
        "version": 1
    }
}