{
  "contractName": "MarketX",
  "abi": [
    {
      "inputs": [
        {
          "internalType": "address",
          "name": "certificationRegistry",
          "type": "address"
        }
      ],
      "stateMutability": "nonpayable",
      "type": "constructor"
    },
    {
      "anonymous": false,
      "inputs": [
        {
          "indexed": false,
          "internalType": "address",
          "name": "_artifactAddress",
          "type": "address"
        },
        {
          "indexed": false,
          "internalType": "bool",
          "name": "status",
          "type": "bool"
        }
      ],
      "name": "ArtifactExamined",
      "type": "event"
    },
    {
      "anonymous": false,
      "inputs": [
        {
          "indexed": false,
          "internalType": "address",
          "name": "owner",
          "type": "address"
        },
        {
          "indexed": false,
          "internalType": "address",
          "name": "tokenContract",
          "type": "address"
        }
      ],
      "name": "ArtifactMinted",
      "type": "event"
    },
    {
      "anonymous": false,
      "inputs": [
        {
          "indexed": false,
          "internalType": "address",
          "name": "_artifactAddress",
          "type": "address"
        },
        {
          "indexed": false,
          "internalType": "address",
          "name": "_from",
          "type": "address"
        },
        {
          "indexed": false,
          "internalType": "address",
          "name": "_to",
          "type": "address"
        }
      ],
      "name": "ArtifactSold",
      "type": "event"
    },
    {
      "anonymous": false,
      "inputs": [
        {
          "indexed": false,
          "internalType": "address",
          "name": "_artifactAddress",
          "type": "address"
        },
        {
          "indexed": false,
          "internalType": "address",
          "name": "_staker",
          "type": "address"
        }
      ],
      "name": "ArtifactStaked",
      "type": "event"
    },
    {
      "anonymous": false,
      "inputs": [
        {
          "indexed": false,
          "internalType": "address",
          "name": "_artifactAddress",
          "type": "address"
        },
        {
          "indexed": false,
          "internalType": "address",
          "name": "_seller",
          "type": "address"
        },
        {
          "indexed": false,
          "internalType": "address",
          "name": "_buyer",
          "type": "address"
        }
      ],
      "name": "ArtifactTransferred",
      "type": "event"
    },
    {
      "anonymous": false,
      "inputs": [
        {
          "indexed": true,
          "internalType": "address",
          "name": "previousOwner",
          "type": "address"
        },
        {
          "indexed": true,
          "internalType": "address",
          "name": "newOwner",
          "type": "address"
        }
      ],
      "name": "OwnershipTransferred",
      "type": "event"
    },
    {
      "anonymous": false,
      "inputs": [
        {
          "indexed": false,
          "internalType": "address",
          "name": "_address",
          "type": "address"
        },
        {
          "indexed": false,
          "internalType": "uint256",
          "name": "_amount",
          "type": "uint256"
        }
      ],
      "name": "WithdrawFunds",
      "type": "event"
    },
    {
      "inputs": [],
      "name": "owner",
      "outputs": [
        {
          "internalType": "address",
          "name": "",
          "type": "address"
        }
      ],
      "stateMutability": "view",
      "type": "function",
      "constant": true
    },
    {
      "inputs": [],
      "name": "renounceOwnership",
      "outputs": [],
      "stateMutability": "nonpayable",
      "type": "function"
    },
    {
      "inputs": [
        {
          "internalType": "address",
          "name": "newOwner",
          "type": "address"
        }
      ],
      "name": "transferOwnership",
      "outputs": [],
      "stateMutability": "nonpayable",
      "type": "function"
    },
    {
      "inputs": [
        {
          "internalType": "address",
          "name": "_artifactAddress",
          "type": "address"
        }
      ],
      "name": "mintArtifact",
      "outputs": [],
      "stateMutability": "payable",
      "type": "function",
      "payable": true
    },
    {
      "inputs": [
        {
          "internalType": "address",
          "name": "_artifactAddress",
          "type": "address"
        }
      ],
      "name": "buy",
      "outputs": [],
      "stateMutability": "payable",
      "type": "function",
      "payable": true
    },
    {
      "inputs": [
        {
          "internalType": "address",
          "name": "_artifactAddress",
          "type": "address"
        },
        {
          "internalType": "bool",
          "name": "_authentic",
          "type": "bool"
        }
      ],
      "name": "verify",
      "outputs": [],
      "stateMutability": "nonpayable",
      "type": "function"
    },
    {
      "inputs": [
        {
          "internalType": "address",
          "name": "_artifactAddress",
          "type": "address"
        }
      ],
      "name": "stake",
      "outputs": [],
      "stateMutability": "payable",
      "type": "function",
      "payable": true
    },
    {
      "inputs": [],
      "name": "withdraw",
      "outputs": [],
      "stateMutability": "nonpayable",
      "type": "function"
    }
  ],
  "bytecode": "0x60806040523480156200001157600080fd5b506040516200203938038062002039833981810160405281019062000037919062000182565b620000576200004b6200009f60201b60201c565b620000a760201b60201c565b80600360006101000a81548173ffffffffffffffffffffffffffffffffffffffff021916908373ffffffffffffffffffffffffffffffffffffffff16021790555050620001fc565b600033905090565b60008060009054906101000a900473ffffffffffffffffffffffffffffffffffffffff169050816000806101000a81548173ffffffffffffffffffffffffffffffffffffffff021916908373ffffffffffffffffffffffffffffffffffffffff1602179055508173ffffffffffffffffffffffffffffffffffffffff168173ffffffffffffffffffffffffffffffffffffffff167f8be0079c531659141344cd1fd0a4f28419497f9722a3daafe3b4186f6b6457e060405160405180910390a35050565b6000815190506200017c81620001e2565b92915050565b6000602082840312156200019557600080fd5b6000620001a5848285016200016b565b91505092915050565b6000620001bb82620001c2565b9050919050565b600073ffffffffffffffffffffffffffffffffffffffff82169050919050565b620001ed81620001ae565b8114620001f957600080fd5b50565b611e2d806200020c6000396000f3fe60806040526004361061007b5760003560e01c80638da5cb5b1161004e5780638da5cb5b146100f3578063b3b2e10c1461011e578063f088d5471461013a578063f2fde38b146101565761007b565b806326476204146100805780633ccfd60b1461009c578063715018a6146100b35780638d14f0fc146100ca575b600080fd5b61009a60048036038101906100959190611499565b61017f565b005b3480156100a857600080fd5b506100b16104ad565b005b3480156100bf57600080fd5b506100c861063b565b005b3480156100d657600080fd5b506100f160048036038101906100ec91906114eb565b6106c3565b005b3480156100ff57600080fd5b50610108610d30565b604051610115919061175f565b60405180910390f35b61013860048036038101906101339190611499565b610d59565b005b610154600480360381019061014f9190611499565b610f3c565b005b34801561016257600080fd5b5061017d60048036038101906101789190611499565b611257565b005b808073ffffffffffffffffffffffffffffffffffffffff16639fade8a16040518163ffffffff1660e01b815260040160206040518083038186803b1580156101c657600080fd5b505afa1580156101da573d6000803e3d6000fd5b505050506040513d601f19601f820116820180604052508101906101fe91906114c2565b73ffffffffffffffffffffffffffffffffffffffff163373ffffffffffffffffffffffffffffffffffffffff161461023557600080fd5b8173ffffffffffffffffffffffffffffffffffffffff166398d5fdca6040518163ffffffff1660e01b815260040160206040518083038186803b15801561027b57600080fd5b505afa15801561028f573d6000803e3d6000fd5b505050506040513d601f19601f820116820180604052508101906102b39190611579565b34146102f4576040517f08c379a00000000000000000000000000000000000000000000000000000000081526004016102eb90611847565b60405180910390fd5b8173ffffffffffffffffffffffffffffffffffffffff1663e985e9c533306040518363ffffffff1660e01b815260040161032f92919061177a565b602060405180830381600087803b15801561034957600080fd5b505af115801561035d573d6000803e3d6000fd5b505050506040513d601f19601f820116820180604052508101906103819190611527565b6103c0576040517f08c379a00000000000000000000000000000000000000000000000000000000081526004016103b7906118a7565b60405180910390fd5b34600160003373ffffffffffffffffffffffffffffffffffffffff1673ffffffffffffffffffffffffffffffffffffffff168152602001908152602001600020819055508173ffffffffffffffffffffffffffffffffffffffff16632e49d78b60026040518263ffffffff1660e01b815260040161043e919061182c565b600060405180830381600087803b15801561045857600080fd5b505af115801561046c573d6000803e3d6000fd5b505050507fa50d140909ca435fad8dc7f1d71b40e1dcd5b4855f2130fcb08e71b779f89ec782336040516104a192919061177a565b60405180910390a15050565b6000600260003373ffffffffffffffffffffffffffffffffffffffff1673ffffffffffffffffffffffffffffffffffffffff168152602001908152602001600020541161052f576040517f08c379a000000000000000000000000000000000000000000000000000000000815260040161052690611867565b60405180910390fd5b6000600260003373ffffffffffffffffffffffffffffffffffffffff1673ffffffffffffffffffffffffffffffffffffffff1681526020019081526020016000205490506000600260003373ffffffffffffffffffffffffffffffffffffffff1673ffffffffffffffffffffffffffffffffffffffff168152602001908152602001600020819055503373ffffffffffffffffffffffffffffffffffffffff166108fc829081150290604051600060405180830381858888f193505050501580156105fe573d6000803e3d6000fd5b507f21901fa892c430ea8bd38b9390225ac8e67eac75ee10ffba16feefc539a288f93382604051610630929190611803565b60405180910390a150565b61064361134f565b73ffffffffffffffffffffffffffffffffffffffff16610661610d30565b73ffffffffffffffffffffffffffffffffffffffff16146106b7576040517f08c379a00000000000000000000000000000000000000000000000000000000081526004016106ae90611947565b60405180910390fd5b6106c16000611357565b565b60011515600360009054906101000a900473ffffffffffffffffffffffffffffffffffffffff1673ffffffffffffffffffffffffffffffffffffffff16633af32abf336040518263ffffffff1660e01b8152600401610722919061175f565b60206040518083038186803b15801561073a57600080fd5b505afa15801561074e573d6000803e3d6000fd5b505050506040513d601f19601f820116820180604052508101906107729190611527565b1515146107b4576040517f08c379a00000000000000000000000000000000000000000000000000000000081526004016107ab90611987565b60405180910390fd5b600260058111156107ee577f4e487b7100000000000000000000000000000000000000000000000000000000600052602160045260246000fd5b8273ffffffffffffffffffffffffffffffffffffffff16634e69d5606040518163ffffffff1660e01b815260040160206040518083038186803b15801561083457600080fd5b505afa158015610848573d6000803e3d6000fd5b505050506040513d601f19601f8201168201806040525081019061086c9190611550565b60058111156108a4577f4e487b7100000000000000000000000000000000000000000000000000000000600052602160045260246000fd5b146108e4576040517f08c379a00000000000000000000000000000000000000000000000000000000081526004016108db90611887565b60405180910390fd5b8173ffffffffffffffffffffffffffffffffffffffff16630ee2cb106040518163ffffffff1660e01b815260040160206040518083038186803b15801561092a57600080fd5b505afa15801561093e573d6000803e3d6000fd5b505050506040513d601f19601f8201168201806040525081019061096291906114c2565b73ffffffffffffffffffffffffffffffffffffffff163373ffffffffffffffffffffffffffffffffffffffff16146109cf576040517f08c379a00000000000000000000000000000000000000000000000000000000081526004016109c690611927565b60405180910390fd5b60008273ffffffffffffffffffffffffffffffffffffffff16639fade8a16040518163ffffffff1660e01b815260040160206040518083038186803b158015610a1757600080fd5b505afa158015610a2b573d6000803e3d6000fd5b505050506040513d601f19601f82011682018060405250810190610a4f91906114c2565b905060008373ffffffffffffffffffffffffffffffffffffffff166398d5fdca6040518163ffffffff1660e01b815260040160206040518083038186803b158015610a9957600080fd5b505afa158015610aad573d6000803e3d6000fd5b505050506040513d601f19601f82011682018060405250810190610ad19190611579565b90508215610c2e578373ffffffffffffffffffffffffffffffffffffffff16632e49d78b60036040518263ffffffff1660e01b8152600401610b13919061182c565b600060405180830381600087803b158015610b2d57600080fd5b505af1158015610b41573d6000803e3d6000fd5b5050505080600160008473ffffffffffffffffffffffffffffffffffffffff1673ffffffffffffffffffffffffffffffffffffffff16815260200190815260200160002054610b9091906119b8565b600260008473ffffffffffffffffffffffffffffffffffffffff1673ffffffffffffffffffffffffffffffffffffffff1681526020019081526020016000208190555080600160008473ffffffffffffffffffffffffffffffffffffffff1673ffffffffffffffffffffffffffffffffffffffff1681526020019081526020016000206000828254610c229190611a0e565b92505081905550610cf1565b8373ffffffffffffffffffffffffffffffffffffffff16632e49d78b60016040518263ffffffff1660e01b8152600401610c68919061182c565b600060405180830381600087803b158015610c8257600080fd5b505af1158015610c96573d6000803e3d6000fd5b5050505080600160008473ffffffffffffffffffffffffffffffffffffffff1673ffffffffffffffffffffffffffffffffffffffff1681526020019081526020016000206000828254610ce99190611a0e565b925050819055505b7fc665a3d8e07cd603782a9a974e4d6fdf5144b2191c63768ed6d1f7ef3316a4c68484604051610d229291906117da565b60405180910390a150505050565b60008060009054906101000a900473ffffffffffffffffffffffffffffffffffffffff16905090565b348173ffffffffffffffffffffffffffffffffffffffff166398d5fdca6040518163ffffffff1660e01b815260040160206040518083038186803b158015610da057600080fd5b505afa158015610db4573d6000803e3d6000fd5b505050506040513d601f19601f82011682018060405250810190610dd89190611579565b14610e18576040517f08c379a0000000000000000000000000000000000000000000000000000000008152600401610e0f90611967565b60405180910390fd5b8073ffffffffffffffffffffffffffffffffffffffff16636a627842336040518263ffffffff1660e01b8152600401610e51919061175f565b600060405180830381600087803b158015610e6b57600080fd5b505af1158015610e7f573d6000803e3d6000fd5b505050507ff40f7283575b3d8fbcbb096c212ef31a85992606316ee28047c4ade5a58e6f178173ffffffffffffffffffffffffffffffffffffffff16639fade8a16040518163ffffffff1660e01b815260040160206040518083038186803b158015610eea57600080fd5b505afa158015610efe573d6000803e3d6000fd5b505050506040513d601f19601f82011682018060405250810190610f2291906114c2565b82604051610f3192919061177a565b60405180910390a150565b60036005811115610f76577f4e487b7100000000000000000000000000000000000000000000000000000000600052602160045260246000fd5b8173ffffffffffffffffffffffffffffffffffffffff16634e69d5606040518163ffffffff1660e01b815260040160206040518083038186803b158015610fbc57600080fd5b505afa158015610fd0573d6000803e3d6000fd5b505050506040513d601f19601f82011682018060405250810190610ff49190611550565b600581111561102c577f4e487b7100000000000000000000000000000000000000000000000000000000600052602160045260246000fd5b1461106c576040517f08c379a000000000000000000000000000000000000000000000000000000000815260040161106390611907565b60405180910390fd5b348173ffffffffffffffffffffffffffffffffffffffff166398d5fdca6040518163ffffffff1660e01b815260040160206040518083038186803b1580156110b357600080fd5b505afa1580156110c7573d6000803e3d6000fd5b505050506040513d601f19601f820116820180604052508101906110eb9190611579565b1461112b576040517f08c379a0000000000000000000000000000000000000000000000000000000008152600401611122906118e7565b60405180910390fd5b60008173ffffffffffffffffffffffffffffffffffffffff16639fade8a16040518163ffffffff1660e01b815260040160206040518083038186803b15801561117357600080fd5b505afa158015611187573d6000803e3d6000fd5b505050506040513d601f19601f820116820180604052508101906111ab91906114c2565b90508173ffffffffffffffffffffffffffffffffffffffff16631a695230336040518263ffffffff1660e01b81526004016111e6919061175f565b600060405180830381600087803b15801561120057600080fd5b505af1158015611214573d6000803e3d6000fd5b505050507f2547ea647d333d14744a9e0ae53f5122da155f9dafc1538e8e0bdb146b69ad3c82823360405161124b939291906117a3565b60405180910390a15050565b61125f61134f565b73ffffffffffffffffffffffffffffffffffffffff1661127d610d30565b73ffffffffffffffffffffffffffffffffffffffff16146112d3576040517f08c379a00000000000000000000000000000000000000000000000000000000081526004016112ca90611947565b60405180910390fd5b600073ffffffffffffffffffffffffffffffffffffffff168173ffffffffffffffffffffffffffffffffffffffff161415611343576040517f08c379a000000000000000000000000000000000000000000000000000000000815260040161133a906118c7565b60405180910390fd5b61134c81611357565b50565b600033905090565b60008060009054906101000a900473ffffffffffffffffffffffffffffffffffffffff169050816000806101000a81548173ffffffffffffffffffffffffffffffffffffffff021916908373ffffffffffffffffffffffffffffffffffffffff1602179055508173ffffffffffffffffffffffffffffffffffffffff168173ffffffffffffffffffffffffffffffffffffffff167f8be0079c531659141344cd1fd0a4f28419497f9722a3daafe3b4186f6b6457e060405160405180910390a35050565b60008135905061142a81611da2565b92915050565b60008151905061143f81611da2565b92915050565b60008135905061145481611db9565b92915050565b60008151905061146981611db9565b92915050565b60008151905061147e81611dd0565b92915050565b60008151905061149381611de0565b92915050565b6000602082840312156114ab57600080fd5b60006114b98482850161141b565b91505092915050565b6000602082840312156114d457600080fd5b60006114e284828501611430565b91505092915050565b600080604083850312156114fe57600080fd5b600061150c8582860161141b565b925050602061151d85828601611445565b9150509250929050565b60006020828403121561153957600080fd5b60006115478482850161145a565b91505092915050565b60006020828403121561156257600080fd5b60006115708482850161146f565b91505092915050565b60006020828403121561158b57600080fd5b600061159984828501611484565b91505092915050565b6115ab81611a42565b82525050565b6115ba81611a54565b82525050565b6115c981611a9d565b82525050565b60006115dc602d836119a7565b91506115e782611b0d565b604082019050919050565b60006115ff601f836119a7565b915061160a82611b5c565b602082019050919050565b6000611622601f836119a7565b915061162d82611b85565b602082019050919050565b60006116456033836119a7565b915061165082611bae565b604082019050919050565b60006116686026836119a7565b915061167382611bfd565b604082019050919050565b600061168b601b836119a7565b915061169682611c4c565b602082019050919050565b60006116ae6028836119a7565b91506116b982611c75565b604082019050919050565b60006116d16030836119a7565b91506116dc82611cc4565b604082019050919050565b60006116f46020836119a7565b91506116ff82611d13565b602082019050919050565b60006117176020836119a7565b915061172282611d3c565b602082019050919050565b600061173a6020836119a7565b915061174582611d65565b602082019050919050565b61175981611a93565b82525050565b600060208201905061177460008301846115a2565b92915050565b600060408201905061178f60008301856115a2565b61179c60208301846115a2565b9392505050565b60006060820190506117b860008301866115a2565b6117c560208301856115a2565b6117d260408301846115a2565b949350505050565b60006040820190506117ef60008301856115a2565b6117fc60208301846115b1565b9392505050565b600060408201905061181860008301856115a2565b6118256020830184611750565b9392505050565b600060208201905061184160008301846115c0565b92915050565b60006020820190508181036000830152611860816115cf565b9050919050565b60006020820190508181036000830152611880816115f2565b9050919050565b600060208201905081810360008301526118a081611615565b9050919050565b600060208201905081810360008301526118c081611638565b9050919050565b600060208201905081810360008301526118e08161165b565b9050919050565b600060208201905081810360008301526119008161167e565b9050919050565b60006020820190508181036000830152611920816116a1565b9050919050565b60006020820190508181036000830152611940816116c4565b9050919050565b60006020820190508181036000830152611960816116e7565b9050919050565b600060208201905081810360008301526119808161170a565b9050919050565b600060208201905081810360008301526119a08161172d565b9050919050565b600082825260208201905092915050565b60006119c382611a93565b91506119ce83611a93565b9250827fffffffffffffffffffffffffffffffffffffffffffffffffffffffffffffffff03821115611a0357611a02611aaf565b5b828201905092915050565b6000611a1982611a93565b9150611a2483611a93565b925082821015611a3757611a36611aaf565b5b828203905092915050565b6000611a4d82611a73565b9050919050565b60008115159050919050565b6000819050611a6e82611d8e565b919050565b600073ffffffffffffffffffffffffffffffffffffffff82169050919050565b6000819050919050565b6000611aa882611a60565b9050919050565b7f4e487b7100000000000000000000000000000000000000000000000000000000600052601160045260246000fd5b7f4e487b7100000000000000000000000000000000000000000000000000000000600052602160045260246000fd5b7f4d61726b6574583a205374616b6520616d6f756e7420657175616c20746f204160008201527f7274696661637420707269636500000000000000000000000000000000000000602082015250565b7f4d41524b4554583a204e6f20616d6f756e7420746f2077697468647261772100600082015250565b7f4d61726b6574583a204172746966616374206973206e6f74207374616b656400600082015250565b7f4d61726b6574783a204772616e74204d61726b657458207065726d697373696f60008201527f6e20746f207374616b6520417274696661637400000000000000000000000000602082015250565b7f4f776e61626c653a206e6577206f776e657220697320746865207a65726f206160008201527f6464726573730000000000000000000000000000000000000000000000000000602082015250565b7f4d61726b6574583a20496e73756666696369656e742045746865720000000000600082015250565b7f4d61726b6574583a204172746966616374206e6f7420726561647920666f722060008201527f73616c6520796574000000000000000000000000000000000000000000000000602082015250565b7f4d61726b6574583a20596f7520617265206e6f74207468652063726561746f7260008201527f206f662074686520417274696661637400000000000000000000000000000000602082015250565b7f4f776e61626c653a2063616c6c6572206973206e6f7420746865206f776e6572600082015250565b7f41727469466163746f72793a20496e7375666669656e63656e74204574686572600082015250565b7f4d41524b4554583a20546869732061646472657373206973206e6f742041434d600082015250565b60068110611d9f57611d9e611ade565b5b50565b611dab81611a42565b8114611db657600080fd5b50565b611dc281611a54565b8114611dcd57600080fd5b50565b60068110611ddd57600080fd5b50565b611de981611a93565b8114611df457600080fd5b5056fea264697066735822122090559c465e356114a8b7a3ba94395ac4b804794721af49e65a6a341fb5cabba564736f6c63430008040033",
  "immutableReferences": {},
  "source": "// SPDX-License-Identifier: GPL-3.0\r\npragma solidity 0.8.4;\r\nimport \"@openzeppelin/contracts/access/Ownable.sol\";\r\nimport \"./IArtifact.sol\";\r\nimport \"./ICertification.sol\";\r\n\r\ncontract MarketX is Ownable{\r\n\r\n    mapping(address => uint) private STAKED;\r\n    mapping(address => uint) private WITHDRAWABLE;\r\n    address private CERTIFICATION_REGISRTY;\r\n\r\n    event ArtifactStaked(address _artifactAddress, address _staker);\r\n    event ArtifactTransferred(address _artifactAddress, address _seller, address _buyer);\r\n    event WithdrawFunds(address _address, uint _amount);\r\n    event ArtifactMinted(address owner, address tokenContract); //emmited when ERC1155 token is minted\r\n    event ArtifactExamined(address _artifactAddress, bool status);\r\n    event ArtifactSold(address _artifactAddress, address _from, address _to);\r\n\r\n    constructor(address certificationRegistry) public{\r\n        CERTIFICATION_REGISRTY = certificationRegistry;\r\n    }\r\n\r\n    modifier onlyArtifactOwner(address _artifactAddress) {\r\n        require(msg.sender == IArtifact(_artifactAddress).getHodler());\r\n        _;\r\n    }\r\n\r\n    modifier onlyWhitelisted(){\r\n        require(ICertification(CERTIFICATION_REGISRTY).isWhitelisted(msg.sender)==true,\"MARKETX: This address is not ACM\");\r\n        _;\r\n    }\r\n\r\n    function mintArtifact(address _artifactAddress) public payable {\r\n        require(IArtifact(_artifactAddress).getPrice()==msg.value,\"ArtiFactory: Insuffiencent Ether\");\r\n        IArtifact(_artifactAddress).mint(msg.sender);\r\n        emit ArtifactMinted(IArtifact(_artifactAddress).getHodler(), _artifactAddress);\r\n    }\r\n\r\n    function buy(address _artifactAddress) public payable {\r\n        require(IArtifact(_artifactAddress).getStatus() == IArtifact.Status.Verified,\"MarketX: Artifact not ready for sale yet\");\r\n        require(IArtifact(_artifactAddress).getPrice() == msg.value,\"MarketX: Insufficient Ether\");\r\n        address hodler = IArtifact(_artifactAddress).getHodler();\r\n        IArtifact(_artifactAddress).transfer(msg.sender);\r\n        emit ArtifactSold(_artifactAddress,hodler,msg.sender);\r\n    }\r\n\r\n    function verify(address _artifactAddress, bool _authentic) public onlyWhitelisted {\r\n        require(IArtifact(_artifactAddress).getStatus() == IArtifact.Status.Staked,\"MarketX: Artifact is not staked\");\r\n        require(msg.sender == IArtifact(_artifactAddress).getCreator(),\"MarketX: You are not the creator of the Artifact\");\r\n        address hodler = IArtifact(_artifactAddress).getHodler();\r\n        uint price = IArtifact(_artifactAddress).getPrice();\r\n        if(_authentic){\r\n            IArtifact(_artifactAddress).setStatus(IArtifact.Status.Verified);\r\n            WITHDRAWABLE[hodler] = STAKED[hodler]+price;\r\n            STAKED[hodler] -= price;\r\n        } else {\r\n            IArtifact(_artifactAddress).setStatus(IArtifact.Status.Hodl); \r\n            STAKED[hodler] -= price;  \r\n        }\r\n        emit ArtifactExamined(_artifactAddress,_authentic);\r\n    }\r\n\r\n    \r\n    function stake(address _artifactAddress) public onlyArtifactOwner(_artifactAddress) payable {\r\n        require(msg.value == IArtifact(_artifactAddress).getPrice(), \"MarketX: Stake amount equal to Artifact price\");\r\n        require(IArtifact(_artifactAddress).isApprovedForAll(msg.sender,address(this)),\"Marketx: Grant MarketX permission to stake Artifact\");\r\n        STAKED[msg.sender] = msg.value;\r\n        IArtifact(_artifactAddress).setStatus(IArtifact.Status.Staked);\r\n        emit ArtifactStaked(_artifactAddress,msg.sender);\r\n    }\r\n   \r\n\r\n    function withdraw() public {\r\n        require(WITHDRAWABLE[msg.sender]>0, \"MARKETX: No amount to withdraw!\");   \r\n        uint value = WITHDRAWABLE[msg.sender];\r\n        WITHDRAWABLE[msg.sender] = 0;\r\n        payable(msg.sender).transfer(value);\r\n        emit WithdrawFunds(msg.sender,value);\r\n    }\r\n\r\n}",
  "sourcePath": "C:/Users/Aayush Malde/Desktop/aayush documents/ArtifacX/ArtifacX-SmartContracts/contracts/MarketX.sol",
  "compiler": {
    "name": "solc",
    "version": "0.8.4+commit.c7e474f2.Emscripten.clang"
  },
  "schemaVersion": "3.2.3",
  "updatedAt": "2022-05-01T13:28:13.029Z",
  "networkType": "ethereum",
  "devdoc": {
    "kind": "dev",
    "methods": {
      "owner()": {
        "details": "Returns the address of the current owner."
      },
      "renounceOwnership()": {
        "details": "Leaves the contract without owner. It will not be possible to call `onlyOwner` functions anymore. Can only be called by the current owner. NOTE: Renouncing ownership will leave the contract without an owner, thereby removing any functionality that is only available to the owner."
      },
      "transferOwnership(address)": {
        "details": "Transfers ownership of the contract to a new account (`newOwner`). Can only be called by the current owner."
      }
    },
    "version": 1
  },
  "userdoc": {
    "kind": "user",
    "methods": {},
    "version": 1
  }
}