{
  "contractName": "Artifact",
  "abi": [
    {
      "inputs": [
        {
          "internalType": "string",
          "name": "_uri",
          "type": "string"
        },
        {
          "internalType": "string",
          "name": "_name",
          "type": "string"
        },
        {
          "internalType": "uint256",
          "name": "_id",
          "type": "uint256"
        },
        {
          "internalType": "uint256",
          "name": "_amount",
          "type": "uint256"
        },
        {
          "internalType": "uint256",
          "name": "_price",
          "type": "uint256"
        },
        {
          "internalType": "address",
          "name": "_creator",
          "type": "address"
        },
        {
          "internalType": "address",
          "name": "_marketX",
          "type": "address"
        }
      ],
      "stateMutability": "nonpayable",
      "type": "constructor"
    },
    {
      "anonymous": false,
      "inputs": [
        {
          "indexed": true,
          "internalType": "address",
          "name": "account",
          "type": "address"
        },
        {
          "indexed": true,
          "internalType": "address",
          "name": "operator",
          "type": "address"
        },
        {
          "indexed": false,
          "internalType": "bool",
          "name": "approved",
          "type": "bool"
        }
      ],
      "name": "ApprovalForAll",
      "type": "event"
    },
    {
      "anonymous": false,
      "inputs": [
        {
          "indexed": true,
          "internalType": "address",
          "name": "previousOwner",
          "type": "address"
        },
        {
          "indexed": true,
          "internalType": "address",
          "name": "newOwner",
          "type": "address"
        }
      ],
      "name": "OwnershipTransferred",
      "type": "event"
    },
    {
      "anonymous": false,
      "inputs": [
        {
          "indexed": true,
          "internalType": "address",
          "name": "operator",
          "type": "address"
        },
        {
          "indexed": true,
          "internalType": "address",
          "name": "from",
          "type": "address"
        },
        {
          "indexed": true,
          "internalType": "address",
          "name": "to",
          "type": "address"
        },
        {
          "indexed": false,
          "internalType": "uint256[]",
          "name": "ids",
          "type": "uint256[]"
        },
        {
          "indexed": false,
          "internalType": "uint256[]",
          "name": "values",
          "type": "uint256[]"
        }
      ],
      "name": "TransferBatch",
      "type": "event"
    },
    {
      "anonymous": false,
      "inputs": [
        {
          "indexed": true,
          "internalType": "address",
          "name": "operator",
          "type": "address"
        },
        {
          "indexed": true,
          "internalType": "address",
          "name": "from",
          "type": "address"
        },
        {
          "indexed": true,
          "internalType": "address",
          "name": "to",
          "type": "address"
        },
        {
          "indexed": false,
          "internalType": "uint256",
          "name": "id",
          "type": "uint256"
        },
        {
          "indexed": false,
          "internalType": "uint256",
          "name": "value",
          "type": "uint256"
        }
      ],
      "name": "TransferSingle",
      "type": "event"
    },
    {
      "anonymous": false,
      "inputs": [
        {
          "indexed": false,
          "internalType": "string",
          "name": "value",
          "type": "string"
        },
        {
          "indexed": true,
          "internalType": "uint256",
          "name": "id",
          "type": "uint256"
        }
      ],
      "name": "URI",
      "type": "event"
    },
    {
      "inputs": [],
      "name": "AMOUNT",
      "outputs": [
        {
          "internalType": "uint256",
          "name": "",
          "type": "uint256"
        }
      ],
      "stateMutability": "view",
      "type": "function"
    },
    {
      "inputs": [],
      "name": "ID",
      "outputs": [
        {
          "internalType": "uint256",
          "name": "",
          "type": "uint256"
        }
      ],
      "stateMutability": "view",
      "type": "function"
    },
    {
      "inputs": [
        {
          "internalType": "uint256",
          "name": "",
          "type": "uint256"
        }
      ],
      "name": "LEDGER",
      "outputs": [
        {
          "internalType": "address",
          "name": "",
          "type": "address"
        }
      ],
      "stateMutability": "view",
      "type": "function"
    },
    {
      "inputs": [],
      "name": "NAME",
      "outputs": [
        {
          "internalType": "string",
          "name": "",
          "type": "string"
        }
      ],
      "stateMutability": "view",
      "type": "function"
    },
    {
      "inputs": [
        {
          "internalType": "address",
          "name": "account",
          "type": "address"
        },
        {
          "internalType": "uint256",
          "name": "id",
          "type": "uint256"
        }
      ],
      "name": "balanceOf",
      "outputs": [
        {
          "internalType": "uint256",
          "name": "",
          "type": "uint256"
        }
      ],
      "stateMutability": "view",
      "type": "function"
    },
    {
      "inputs": [
        {
          "internalType": "address[]",
          "name": "accounts",
          "type": "address[]"
        },
        {
          "internalType": "uint256[]",
          "name": "ids",
          "type": "uint256[]"
        }
      ],
      "name": "balanceOfBatch",
      "outputs": [
        {
          "internalType": "uint256[]",
          "name": "",
          "type": "uint256[]"
        }
      ],
      "stateMutability": "view",
      "type": "function"
    },
    {
      "inputs": [
        {
          "internalType": "address",
          "name": "account",
          "type": "address"
        },
        {
          "internalType": "address",
          "name": "operator",
          "type": "address"
        }
      ],
      "name": "isApprovedForAll",
      "outputs": [
        {
          "internalType": "bool",
          "name": "",
          "type": "bool"
        }
      ],
      "stateMutability": "view",
      "type": "function"
    },
    {
      "inputs": [],
      "name": "owner",
      "outputs": [
        {
          "internalType": "address",
          "name": "",
          "type": "address"
        }
      ],
      "stateMutability": "view",
      "type": "function"
    },
    {
      "inputs": [],
      "name": "renounceOwnership",
      "outputs": [],
      "stateMutability": "nonpayable",
      "type": "function"
    },
    {
      "inputs": [
        {
          "internalType": "address",
          "name": "from",
          "type": "address"
        },
        {
          "internalType": "address",
          "name": "to",
          "type": "address"
        },
        {
          "internalType": "uint256[]",
          "name": "ids",
          "type": "uint256[]"
        },
        {
          "internalType": "uint256[]",
          "name": "amounts",
          "type": "uint256[]"
        },
        {
          "internalType": "bytes",
          "name": "data",
          "type": "bytes"
        }
      ],
      "name": "safeBatchTransferFrom",
      "outputs": [],
      "stateMutability": "nonpayable",
      "type": "function"
    },
    {
      "inputs": [
        {
          "internalType": "address",
          "name": "from",
          "type": "address"
        },
        {
          "internalType": "address",
          "name": "to",
          "type": "address"
        },
        {
          "internalType": "uint256",
          "name": "id",
          "type": "uint256"
        },
        {
          "internalType": "uint256",
          "name": "amount",
          "type": "uint256"
        },
        {
          "internalType": "bytes",
          "name": "data",
          "type": "bytes"
        }
      ],
      "name": "safeTransferFrom",
      "outputs": [],
      "stateMutability": "nonpayable",
      "type": "function"
    },
    {
      "inputs": [
        {
          "internalType": "address",
          "name": "operator",
          "type": "address"
        },
        {
          "internalType": "bool",
          "name": "approved",
          "type": "bool"
        }
      ],
      "name": "setApprovalForAll",
      "outputs": [],
      "stateMutability": "nonpayable",
      "type": "function"
    },
    {
      "inputs": [
        {
          "internalType": "bytes4",
          "name": "interfaceId",
          "type": "bytes4"
        }
      ],
      "name": "supportsInterface",
      "outputs": [
        {
          "internalType": "bool",
          "name": "",
          "type": "bool"
        }
      ],
      "stateMutability": "view",
      "type": "function"
    },
    {
      "inputs": [
        {
          "internalType": "address",
          "name": "newOwner",
          "type": "address"
        }
      ],
      "name": "transferOwnership",
      "outputs": [],
      "stateMutability": "nonpayable",
      "type": "function"
    },
    {
      "inputs": [
        {
          "internalType": "uint256",
          "name": "",
          "type": "uint256"
        }
      ],
      "name": "uri",
      "outputs": [
        {
          "internalType": "string",
          "name": "",
          "type": "string"
        }
      ],
      "stateMutability": "view",
      "type": "function"
    },
    {
      "inputs": [
        {
          "internalType": "address",
          "name": "_to",
          "type": "address"
        }
      ],
      "name": "mint",
      "outputs": [],
      "stateMutability": "nonpayable",
      "type": "function"
    },
    {
      "inputs": [
        {
          "internalType": "uint256",
          "name": "_id",
          "type": "uint256"
        }
      ],
      "name": "idToName",
      "outputs": [
        {
          "internalType": "string",
          "name": "",
          "type": "string"
        }
      ],
      "stateMutability": "view",
      "type": "function"
    },
    {
      "inputs": [
        {
          "internalType": "address",
          "name": "_buyer",
          "type": "address"
        }
      ],
      "name": "transfer",
      "outputs": [],
      "stateMutability": "nonpayable",
      "type": "function"
    },
    {
      "inputs": [],
      "name": "getHodler",
      "outputs": [
        {
          "internalType": "address",
          "name": "",
          "type": "address"
        }
      ],
      "stateMutability": "view",
      "type": "function"
    },
    {
      "inputs": [],
      "name": "getCreator",
      "outputs": [
        {
          "internalType": "address",
          "name": "",
          "type": "address"
        }
      ],
      "stateMutability": "view",
      "type": "function"
    },
    {
      "inputs": [
        {
          "internalType": "enum Artifact.Status",
          "name": "_newStatus",
          "type": "uint8"
        }
      ],
      "name": "setStatus",
      "outputs": [],
      "stateMutability": "nonpayable",
      "type": "function"
    },
    {
      "inputs": [],
      "name": "getStatus",
      "outputs": [
        {
          "internalType": "enum Artifact.Status",
          "name": "",
          "type": "uint8"
        }
      ],
      "stateMutability": "view",
      "type": "function"
    },
    {
      "inputs": [],
      "name": "getData",
      "outputs": [
        {
          "internalType": "uint256",
          "name": "",
          "type": "uint256"
        },
        {
          "internalType": "uint256",
          "name": "",
          "type": "uint256"
        },
        {
          "internalType": "uint256",
          "name": "",
          "type": "uint256"
        },
        {
          "internalType": "enum Artifact.Status",
          "name": "",
          "type": "uint8"
        }
      ],
      "stateMutability": "view",
      "type": "function"
    }
  ],
  "bytecode": "0x60806040526000600d553480156200001657600080fd5b506040516200424f3803806200424f83398181016040528101906200003c9190620005e0565b866200004e816200020e60201b60201c565b506200006f620000636200022a60201b60201c565b6200023260201b60201c565b85600490805190602001906200008792919062000490565b506000600860006101000a81548160ff02191690836005811115620000d5577f4e487b7100000000000000000000000000000000000000000000000000000000600052602160045260246000fd5b021790555080600b60006101000a81548173ffffffffffffffffffffffffffffffffffffffff021916908373ffffffffffffffffffffffffffffffffffffffff16021790555081600560006101000a81548173ffffffffffffffffffffffffffffffffffffffff021916908373ffffffffffffffffffffffffffffffffffffffff16021790555083600a819055508260078190555084600981905550600c829080600181540180825580915050600190039060005260206000200160009091909190916101000a81548173ffffffffffffffffffffffffffffffffffffffff021916908373ffffffffffffffffffffffffffffffffffffffff160217905550600d6000815480929190620001e99062000892565b919050555062000201816001620002f860201b60201c565b5050505050505062000a01565b80600290805190602001906200022692919062000490565b5050565b600033905090565b6000600360009054906101000a900473ffffffffffffffffffffffffffffffffffffffff16905081600360006101000a81548173ffffffffffffffffffffffffffffffffffffffff021916908373ffffffffffffffffffffffffffffffffffffffff1602179055508173ffffffffffffffffffffffffffffffffffffffff168173ffffffffffffffffffffffffffffffffffffffff167f8be0079c531659141344cd1fd0a4f28419497f9722a3daafe3b4186f6b6457e060405160405180910390a35050565b6200031a6200030c6200022a60201b60201c565b83836200031e60201b60201c565b5050565b8173ffffffffffffffffffffffffffffffffffffffff168373ffffffffffffffffffffffffffffffffffffffff16141562000390576040517f08c379a0000000000000000000000000000000000000000000000000000000008152600401620003879062000714565b60405180910390fd5b80600160008573ffffffffffffffffffffffffffffffffffffffff1673ffffffffffffffffffffffffffffffffffffffff16815260200190815260200160002060008473ffffffffffffffffffffffffffffffffffffffff1673ffffffffffffffffffffffffffffffffffffffff16815260200190815260200160002060006101000a81548160ff0219169083151502179055508173ffffffffffffffffffffffffffffffffffffffff168373ffffffffffffffffffffffffffffffffffffffff167f17307eab39ab6107e8899845ad3d59bd9653f200f220920489ca2b5937696c3183604051620004839190620006f7565b60405180910390a3505050565b8280546200049e9062000826565b90600052602060002090601f016020900481019282620004c257600085556200050e565b82601f10620004dd57805160ff19168380011785556200050e565b828001600101855582156200050e579182015b828111156200050d578251825591602001919060010190620004f0565b5b5090506200051d919062000521565b5090565b5b808211156200053c57600081600090555060010162000522565b5090565b60006200055762000551846200075f565b62000736565b9050828152602081018484840111156200057057600080fd5b6200057d848285620007f0565b509392505050565b6000815190506200059681620009cd565b92915050565b600082601f830112620005ae57600080fd5b8151620005c084826020860162000540565b91505092915050565b600081519050620005da81620009e7565b92915050565b600080600080600080600060e0888a031215620005fc57600080fd5b600088015167ffffffffffffffff8111156200061757600080fd5b620006258a828b016200059c565b975050602088015167ffffffffffffffff8111156200064357600080fd5b620006518a828b016200059c565b9650506040620006648a828b01620005c9565b9550506060620006778a828b01620005c9565b94505060806200068a8a828b01620005c9565b93505060a06200069d8a828b0162000585565b92505060c0620006b08a828b0162000585565b91505092959891949750929550565b620006ca81620007ba565b82525050565b6000620006df60298362000795565b9150620006ec826200097e565b604082019050919050565b60006020820190506200070e6000830184620006bf565b92915050565b600060208201905081810360008301526200072f81620006d0565b9050919050565b60006200074262000755565b90506200075082826200085c565b919050565b6000604051905090565b600067ffffffffffffffff8211156200077d576200077c6200093e565b5b62000788826200096d565b9050602081019050919050565b600082825260208201905092915050565b6000620007b382620007c6565b9050919050565b60008115159050919050565b600073ffffffffffffffffffffffffffffffffffffffff82169050919050565b6000819050919050565b60005b8381101562000810578082015181840152602081019050620007f3565b8381111562000820576000848401525b50505050565b600060028204905060018216806200083f57607f821691505b602082108114156200085657620008556200090f565b5b50919050565b62000867826200096d565b810181811067ffffffffffffffff821117156200088957620008886200093e565b5b80604052505050565b60006200089f82620007e6565b91507fffffffffffffffffffffffffffffffffffffffffffffffffffffffffffffffff821415620008d557620008d4620008e0565b5b600182019050919050565b7f4e487b7100000000000000000000000000000000000000000000000000000000600052601160045260246000fd5b7f4e487b7100000000000000000000000000000000000000000000000000000000600052602260045260246000fd5b7f4e487b7100000000000000000000000000000000000000000000000000000000600052604160045260246000fd5b6000601f19601f8301169050919050565b7f455243313135353a2073657474696e6720617070726f76616c2073746174757360008201527f20666f722073656c660000000000000000000000000000000000000000000000602082015250565b620009d881620007a6565b8114620009e457600080fd5b50565b620009f281620007e6565b8114620009fe57600080fd5b50565b61383e8062000a116000396000f3fe608060405234801561001057600080fd5b506004361061014c5760003560e01c80636a627842116100c3578063a3f4df7e1161007c578063a3f4df7e146103a0578063b3cea217146103be578063d1789176146103dc578063e985e9c5146103fa578063f242432a1461042a578063f2fde38b146104465761014c565b80636a627842146102f2578063715018a61461030e57806374fa687a146103185780638da5cb5b146103485780639fade8a114610366578063a22cb465146103845761014c565b80632e49d78b116101155780632e49d78b1461021b5780632eb2c2d614610237578063364410b3146102535780633bc5de30146102835780634e1273f4146102a45780634e69d560146102d45761014c565b8062fdd58e1461015157806301ffc9a7146101815780630e89341c146101b15780630ee2cb10146101e15780631a695230146101ff575b600080fd5b61016b60048036038101906101669190612622565b610462565b6040516101789190612e1c565b60405180910390f35b61019b600480360381019061019691906126ca565b61052b565b6040516101a89190612be4565b60405180910390f35b6101cb60048036038101906101c69190612745565b61060d565b6040516101d89190612c1a565b60405180910390f35b6101e96106a1565b6040516101f69190612aae565b60405180910390f35b61021960048036038101906102149190612433565b6106cb565b005b6102356004803603810190610230919061271c565b6108ad565b005b610251600480360381019061024c9190612498565b610990565b005b61026d60048036038101906102689190612745565b610a31565b60405161027a9190612c1a565b60405180910390f35b61028b610b09565b60405161029b9493929190612e60565b60405180910390f35b6102be60048036038101906102b9919061265e565b610b36565b6040516102cb9190612b8b565b60405180910390f35b6102dc610ce7565b6040516102e99190612bff565b60405180910390f35b61030c60048036038101906103079190612433565b610d8e565b005b610316610f4d565b005b610332600480360381019061032d9190612745565b610fd5565b60405161033f9190612aae565b60405180910390f35b610350611014565b60405161035d9190612aae565b60405180910390f35b61036e61103e565b60405161037b9190612aae565b60405180910390f35b61039e600480360381019061039991906125e6565b611068565b005b6103a861107e565b6040516103b59190612c1a565b60405180910390f35b6103c661110c565b6040516103d39190612e1c565b60405180910390f35b6103e4611112565b6040516103f19190612e1c565b60405180910390f35b610414600480360381019061040f919061245c565b611118565b6040516104219190612be4565b60405180910390f35b610444600480360381019061043f9190612557565b6111ac565b005b610460600480360381019061045b9190612433565b61124d565b005b60008073ffffffffffffffffffffffffffffffffffffffff168373ffffffffffffffffffffffffffffffffffffffff1614156104d3576040517f08c379a00000000000000000000000000000000000000000000000000000000081526004016104ca90612c7c565b60405180910390fd5b60008083815260200190815260200160002060008473ffffffffffffffffffffffffffffffffffffffff1673ffffffffffffffffffffffffffffffffffffffff16815260200190815260200160002054905092915050565b60007fd9b67a26000000000000000000000000000000000000000000000000000000007bffffffffffffffffffffffffffffffffffffffffffffffffffffffff1916827bffffffffffffffffffffffffffffffffffffffffffffffffffffffff191614806105f657507f0e89341c000000000000000000000000000000000000000000000000000000007bffffffffffffffffffffffffffffffffffffffffffffffffffffffff1916827bffffffffffffffffffffffffffffffffffffffffffffffffffffffff1916145b80610606575061060582611345565b5b9050919050565b60606002805461061c906130f5565b80601f0160208091040260200160405190810160405280929190818152602001828054610648906130f5565b80156106955780601f1061066a57610100808354040283529160200191610695565b820191906000526020600020905b81548152906001019060200180831161067857829003601f168201915b50505050509050919050565b6000600560009054906101000a900473ffffffffffffffffffffffffffffffffffffffff16905090565b600b60009054906101000a900473ffffffffffffffffffffffffffffffffffffffff1673ffffffffffffffffffffffffffffffffffffffff163373ffffffffffffffffffffffffffffffffffffffff161461075b576040517f08c379a000000000000000000000000000000000000000000000000000000000815260040161075290612d7c565b60405180910390fd5b61079d600660009054906101000a900473ffffffffffffffffffffffffffffffffffffffff1682600954600a54604051806020016040528060008152506111ac565b80600660006101000a81548173ffffffffffffffffffffffffffffffffffffffff021916908373ffffffffffffffffffffffffffffffffffffffff1602179055506002600860006101000a81548160ff0219169083600581111561082a577f4e487b7100000000000000000000000000000000000000000000000000000000600052602160045260246000fd5b0217905550600c819080600181540180825580915050600190039060005260206000200160009091909190916101000a81548173ffffffffffffffffffffffffffffffffffffffff021916908373ffffffffffffffffffffffffffffffffffffffff160217905550600d60008154809291906108a590613158565b919050555050565b600b60009054906101000a900473ffffffffffffffffffffffffffffffffffffffff1673ffffffffffffffffffffffffffffffffffffffff163373ffffffffffffffffffffffffffffffffffffffff161461093d576040517f08c379a000000000000000000000000000000000000000000000000000000000815260040161093490612d7c565b60405180910390fd5b80600860006101000a81548160ff02191690836005811115610988577f4e487b7100000000000000000000000000000000000000000000000000000000600052602160045260246000fd5b021790555050565b6109986113af565b73ffffffffffffffffffffffffffffffffffffffff168573ffffffffffffffffffffffffffffffffffffffff1614806109de57506109dd856109d86113af565b611118565b5b610a1d576040517f08c379a0000000000000000000000000000000000000000000000000000000008152600401610a1490612d1c565b60405180910390fd5b610a2a85858585856113b7565b5050505050565b60606009548214610a77576040517f08c379a0000000000000000000000000000000000000000000000000000000008152600401610a6e90612cdc565b60405180910390fd5b60048054610a84906130f5565b80601f0160208091040260200160405190810160405280929190818152602001828054610ab0906130f5565b8015610afd5780601f10610ad257610100808354040283529160200191610afd565b820191906000526020600020905b815481529060010190602001808311610ae057829003601f168201915b50505050509050919050565b600080600080600954600754600d54600860009054906101000a900460ff16935093509350935090919293565b60608151835114610b7c576040517f08c379a0000000000000000000000000000000000000000000000000000000008152600401610b7390612dbc565b60405180910390fd5b6000835167ffffffffffffffff811115610bbf577f4e487b7100000000000000000000000000000000000000000000000000000000600052604160045260246000fd5b604051908082528060200260200182016040528015610bed5781602001602082028036833780820191505090505b50905060005b8451811015610cdc57610c86858281518110610c38577f4e487b7100000000000000000000000000000000000000000000000000000000600052603260045260246000fd5b6020026020010151858381518110610c79577f4e487b7100000000000000000000000000000000000000000000000000000000600052603260045260246000fd5b6020026020010151610462565b828281518110610cbf577f4e487b7100000000000000000000000000000000000000000000000000000000600052603260045260246000fd5b60200260200101818152505080610cd590613158565b9050610bf3565b508091505092915050565b6000600b60009054906101000a900473ffffffffffffffffffffffffffffffffffffffff1673ffffffffffffffffffffffffffffffffffffffff163373ffffffffffffffffffffffffffffffffffffffff1614610d79576040517f08c379a0000000000000000000000000000000000000000000000000000000008152600401610d7090612d7c565b60405180910390fd5b600860009054906101000a900460ff16905090565b600b60009054906101000a900473ffffffffffffffffffffffffffffffffffffffff1673ffffffffffffffffffffffffffffffffffffffff163373ffffffffffffffffffffffffffffffffffffffff1614610e1e576040517f08c379a0000000000000000000000000000000000000000000000000000000008152600401610e1590612d7c565b60405180910390fd5b6001600860006101000a81548160ff02191690836005811115610e6a577f4e487b7100000000000000000000000000000000000000000000000000000000600052602160045260246000fd5b021790555080600660006101000a81548173ffffffffffffffffffffffffffffffffffffffff021916908373ffffffffffffffffffffffffffffffffffffffff160217905550600c819080600181540180825580915050600190039060005260206000200160009091909190916101000a81548173ffffffffffffffffffffffffffffffffffffffff021916908373ffffffffffffffffffffffffffffffffffffffff160217905550600d6000815480929190610f2690613158565b9190505550610f4a81600954600a5460405180602001604052806000815250611717565b50565b610f556113af565b73ffffffffffffffffffffffffffffffffffffffff16610f73611014565b73ffffffffffffffffffffffffffffffffffffffff1614610fc9576040517f08c379a0000000000000000000000000000000000000000000000000000000008152600401610fc090612d5c565b60405180910390fd5b610fd360006118ad565b565b600c8181548110610fe557600080fd5b906000526020600020016000915054906101000a900473ffffffffffffffffffffffffffffffffffffffff1681565b6000600360009054906101000a900473ffffffffffffffffffffffffffffffffffffffff16905090565b6000600660009054906101000a900473ffffffffffffffffffffffffffffffffffffffff16905090565b61107a6110736113af565b8383611973565b5050565b6004805461108b906130f5565b80601f01602080910402602001604051908101604052809291908181526020018280546110b7906130f5565b80156111045780601f106110d957610100808354040283529160200191611104565b820191906000526020600020905b8154815290600101906020018083116110e757829003601f168201915b505050505081565b60095481565b600a5481565b6000600160008473ffffffffffffffffffffffffffffffffffffffff1673ffffffffffffffffffffffffffffffffffffffff16815260200190815260200160002060008373ffffffffffffffffffffffffffffffffffffffff1673ffffffffffffffffffffffffffffffffffffffff16815260200190815260200160002060009054906101000a900460ff16905092915050565b6111b46113af565b73ffffffffffffffffffffffffffffffffffffffff168573ffffffffffffffffffffffffffffffffffffffff1614806111fa57506111f9856111f46113af565b611118565b5b611239576040517f08c379a000000000000000000000000000000000000000000000000000000000815260040161123090612cbc565b60405180910390fd5b6112468585858585611ae0565b5050505050565b6112556113af565b73ffffffffffffffffffffffffffffffffffffffff16611273611014565b73ffffffffffffffffffffffffffffffffffffffff16146112c9576040517f08c379a00000000000000000000000000000000000000000000000000000000081526004016112c090612d5c565b60405180910390fd5b600073ffffffffffffffffffffffffffffffffffffffff168173ffffffffffffffffffffffffffffffffffffffff161415611339576040517f08c379a000000000000000000000000000000000000000000000000000000000815260040161133090612c9c565b60405180910390fd5b611342816118ad565b50565b60007f01ffc9a7000000000000000000000000000000000000000000000000000000007bffffffffffffffffffffffffffffffffffffffffffffffffffffffff1916827bffffffffffffffffffffffffffffffffffffffffffffffffffffffff1916149050919050565b600033905090565b81518351146113fb576040517f08c379a00000000000000000000000000000000000000000000000000000000081526004016113f290612ddc565b60405180910390fd5b600073ffffffffffffffffffffffffffffffffffffffff168473ffffffffffffffffffffffffffffffffffffffff16141561146b576040517f08c379a000000000000000000000000000000000000000000000000000000000815260040161146290612cfc565b60405180910390fd5b60006114756113af565b9050611485818787878787611d62565b60005b84518110156116825760008582815181106114cc577f4e487b7100000000000000000000000000000000000000000000000000000000600052603260045260246000fd5b602002602001015190506000858381518110611511577f4e487b7100000000000000000000000000000000000000000000000000000000600052603260045260246000fd5b60200260200101519050600080600084815260200190815260200160002060008b73ffffffffffffffffffffffffffffffffffffffff1673ffffffffffffffffffffffffffffffffffffffff168152602001908152602001600020549050818110156115b2576040517f08c379a00000000000000000000000000000000000000000000000000000000081526004016115a990612d3c565b60405180910390fd5b81810360008085815260200190815260200160002060008c73ffffffffffffffffffffffffffffffffffffffff1673ffffffffffffffffffffffffffffffffffffffff168152602001908152602001600020819055508160008085815260200190815260200160002060008b73ffffffffffffffffffffffffffffffffffffffff1673ffffffffffffffffffffffffffffffffffffffff16815260200190815260200160002060008282546116679190612fc4565b925050819055505050508061167b90613158565b9050611488565b508473ffffffffffffffffffffffffffffffffffffffff168673ffffffffffffffffffffffffffffffffffffffff168273ffffffffffffffffffffffffffffffffffffffff167f4a39dc06d4c0dbc64b70af90fd698a233a518aa5d07e595d983b8c0526c8f7fb87876040516116f9929190612bad565b60405180910390a461170f818787878787611d6a565b505050505050565b600073ffffffffffffffffffffffffffffffffffffffff168473ffffffffffffffffffffffffffffffffffffffff161415611787576040517f08c379a000000000000000000000000000000000000000000000000000000000815260040161177e90612dfc565b60405180910390fd5b60006117916113af565b90506117b2816000876117a388611f51565b6117ac88611f51565b87611d62565b8260008086815260200190815260200160002060008773ffffffffffffffffffffffffffffffffffffffff1673ffffffffffffffffffffffffffffffffffffffff16815260200190815260200160002060008282546118119190612fc4565b925050819055508473ffffffffffffffffffffffffffffffffffffffff16600073ffffffffffffffffffffffffffffffffffffffff168273ffffffffffffffffffffffffffffffffffffffff167fc3d58168c5ae7397731d063d5bbf3d657854427343f4c083240f7aacaa2d0f62878760405161188f929190612e37565b60405180910390a46118a681600087878787612017565b5050505050565b6000600360009054906101000a900473ffffffffffffffffffffffffffffffffffffffff16905081600360006101000a81548173ffffffffffffffffffffffffffffffffffffffff021916908373ffffffffffffffffffffffffffffffffffffffff1602179055508173ffffffffffffffffffffffffffffffffffffffff168173ffffffffffffffffffffffffffffffffffffffff167f8be0079c531659141344cd1fd0a4f28419497f9722a3daafe3b4186f6b6457e060405160405180910390a35050565b8173ffffffffffffffffffffffffffffffffffffffff168373ffffffffffffffffffffffffffffffffffffffff1614156119e2576040517f08c379a00000000000000000000000000000000000000000000000000000000081526004016119d990612d9c565b60405180910390fd5b80600160008573ffffffffffffffffffffffffffffffffffffffff1673ffffffffffffffffffffffffffffffffffffffff16815260200190815260200160002060008473ffffffffffffffffffffffffffffffffffffffff1673ffffffffffffffffffffffffffffffffffffffff16815260200190815260200160002060006101000a81548160ff0219169083151502179055508173ffffffffffffffffffffffffffffffffffffffff168373ffffffffffffffffffffffffffffffffffffffff167f17307eab39ab6107e8899845ad3d59bd9653f200f220920489ca2b5937696c3183604051611ad39190612be4565b60405180910390a3505050565b600073ffffffffffffffffffffffffffffffffffffffff168473ffffffffffffffffffffffffffffffffffffffff161415611b50576040517f08c379a0000000000000000000000000000000000000000000000000000000008152600401611b4790612cfc565b60405180910390fd5b6000611b5a6113af565b9050611b7a818787611b6b88611f51565b611b7488611f51565b87611d62565b600080600086815260200190815260200160002060008873ffffffffffffffffffffffffffffffffffffffff1673ffffffffffffffffffffffffffffffffffffffff16815260200190815260200160002054905083811015611c11576040517f08c379a0000000000000000000000000000000000000000000000000000000008152600401611c0890612d3c565b60405180910390fd5b83810360008087815260200190815260200160002060008973ffffffffffffffffffffffffffffffffffffffff1673ffffffffffffffffffffffffffffffffffffffff168152602001908152602001600020819055508360008087815260200190815260200160002060008873ffffffffffffffffffffffffffffffffffffffff1673ffffffffffffffffffffffffffffffffffffffff1681526020019081526020016000206000828254611cc69190612fc4565b925050819055508573ffffffffffffffffffffffffffffffffffffffff168773ffffffffffffffffffffffffffffffffffffffff168373ffffffffffffffffffffffffffffffffffffffff167fc3d58168c5ae7397731d063d5bbf3d657854427343f4c083240f7aacaa2d0f628888604051611d43929190612e37565b60405180910390a4611d59828888888888612017565b50505050505050565b505050505050565b611d898473ffffffffffffffffffffffffffffffffffffffff166121fe565b15611f49578373ffffffffffffffffffffffffffffffffffffffff1663bc197c8187878686866040518663ffffffff1660e01b8152600401611dcf959493929190612ac9565b602060405180830381600087803b158015611de957600080fd5b505af1925050508015611e1a57506040513d601f19601f82011682018060405250810190611e1791906126f3565b60015b611ec057611e2661325d565b806308c379a01415611e835750611e3b6136f2565b80611e465750611e85565b806040517f08c379a0000000000000000000000000000000000000000000000000000000008152600401611e7a9190612c1a565b60405180910390fd5b505b6040517f08c379a0000000000000000000000000000000000000000000000000000000008152600401611eb790612c3c565b60405180910390fd5b63bc197c8160e01b7bffffffffffffffffffffffffffffffffffffffffffffffffffffffff1916817bffffffffffffffffffffffffffffffffffffffffffffffffffffffff191614611f47576040517f08c379a0000000000000000000000000000000000000000000000000000000008152600401611f3e90612c5c565b60405180910390fd5b505b505050505050565b60606000600167ffffffffffffffff811115611f96577f4e487b7100000000000000000000000000000000000000000000000000000000600052604160045260246000fd5b604051908082528060200260200182016040528015611fc45781602001602082028036833780820191505090505b5090508281600081518110612002577f4e487b7100000000000000000000000000000000000000000000000000000000600052603260045260246000fd5b60200260200101818152505080915050919050565b6120368473ffffffffffffffffffffffffffffffffffffffff166121fe565b156121f6578373ffffffffffffffffffffffffffffffffffffffff1663f23a6e6187878686866040518663ffffffff1660e01b815260040161207c959493929190612b31565b602060405180830381600087803b15801561209657600080fd5b505af19250505080156120c757506040513d601f19601f820116820180604052508101906120c491906126f3565b60015b61216d576120d361325d565b806308c379a0141561213057506120e86136f2565b806120f35750612132565b806040517f08c379a00000000000000000000000000000000000000000000000000000000081526004016121279190612c1a565b60405180910390fd5b505b6040517f08c379a000000000000000000000000000000000000000000000000000000000815260040161216490612c3c565b60405180910390fd5b63f23a6e6160e01b7bffffffffffffffffffffffffffffffffffffffffffffffffffffffff1916817bffffffffffffffffffffffffffffffffffffffffffffffffffffffff1916146121f4576040517f08c379a00000000000000000000000000000000000000000000000000000000081526004016121eb90612c5c565b60405180910390fd5b505b505050505050565b6000808273ffffffffffffffffffffffffffffffffffffffff163b119050919050565b600061223461222f84612eca565b612ea5565b9050808382526020820190508285602086028201111561225357600080fd5b60005b8581101561228357816122698882612337565b845260208401935060208301925050600181019050612256565b5050509392505050565b60006122a061229b84612ef6565b612ea5565b905080838252602082019050828560208602820111156122bf57600080fd5b60005b858110156122ef57816122d5888261241e565b8452602084019350602083019250506001810190506122c2565b5050509392505050565b600061230c61230784612f22565b612ea5565b90508281526020810184848401111561232457600080fd5b61232f8482856130b3565b509392505050565b6000813590506123468161379c565b92915050565b600082601f83011261235d57600080fd5b813561236d848260208601612221565b91505092915050565b600082601f83011261238757600080fd5b813561239784826020860161228d565b91505092915050565b6000813590506123af816137b3565b92915050565b6000813590506123c4816137ca565b92915050565b6000815190506123d9816137ca565b92915050565b600082601f8301126123f057600080fd5b81356124008482602086016122f9565b91505092915050565b600081359050612418816137e1565b92915050565b60008135905061242d816137f1565b92915050565b60006020828403121561244557600080fd5b600061245384828501612337565b91505092915050565b6000806040838503121561246f57600080fd5b600061247d85828601612337565b925050602061248e85828601612337565b9150509250929050565b600080600080600060a086880312156124b057600080fd5b60006124be88828901612337565b95505060206124cf88828901612337565b945050604086013567ffffffffffffffff8111156124ec57600080fd5b6124f888828901612376565b935050606086013567ffffffffffffffff81111561251557600080fd5b61252188828901612376565b925050608086013567ffffffffffffffff81111561253e57600080fd5b61254a888289016123df565b9150509295509295909350565b600080600080600060a0868803121561256f57600080fd5b600061257d88828901612337565b955050602061258e88828901612337565b945050604061259f8882890161241e565b93505060606125b08882890161241e565b925050608086013567ffffffffffffffff8111156125cd57600080fd5b6125d9888289016123df565b9150509295509295909350565b600080604083850312156125f957600080fd5b600061260785828601612337565b9250506020612618858286016123a0565b9150509250929050565b6000806040838503121561263557600080fd5b600061264385828601612337565b92505060206126548582860161241e565b9150509250929050565b6000806040838503121561267157600080fd5b600083013567ffffffffffffffff81111561268b57600080fd5b6126978582860161234c565b925050602083013567ffffffffffffffff8111156126b457600080fd5b6126c085828601612376565b9150509250929050565b6000602082840312156126dc57600080fd5b60006126ea848285016123b5565b91505092915050565b60006020828403121561270557600080fd5b6000612713848285016123ca565b91505092915050565b60006020828403121561272e57600080fd5b600061273c84828501612409565b91505092915050565b60006020828403121561275757600080fd5b60006127658482850161241e565b91505092915050565b600061277a8383612a90565b60208301905092915050565b61278f8161301a565b82525050565b60006127a082612f63565b6127aa8185612f91565b93506127b583612f53565b8060005b838110156127e65781516127cd888261276e565b97506127d883612f84565b9250506001810190506127b9565b5085935050505092915050565b6127fc8161302c565b82525050565b600061280d82612f6e565b6128178185612fa2565b93506128278185602086016130c2565b6128308161327f565b840191505092915050565b612844816130a1565b82525050565b600061285582612f79565b61285f8185612fb3565b935061286f8185602086016130c2565b6128788161327f565b840191505092915050565b6000612890603483612fb3565b915061289b8261329d565b604082019050919050565b60006128b3602883612fb3565b91506128be826132ec565b604082019050919050565b60006128d6602b83612fb3565b91506128e18261333b565b604082019050919050565b60006128f9602683612fb3565b91506129048261338a565b604082019050919050565b600061291c602983612fb3565b9150612927826133d9565b604082019050919050565b600061293f602683612fb3565b915061294a82613428565b604082019050919050565b6000612962602583612fb3565b915061296d82613477565b604082019050919050565b6000612985603283612fb3565b9150612990826134c6565b604082019050919050565b60006129a8602a83612fb3565b91506129b382613515565b604082019050919050565b60006129cb602083612fb3565b91506129d682613564565b602082019050919050565b60006129ee601683612fb3565b91506129f98261358d565b602082019050919050565b6000612a11602983612fb3565b9150612a1c826135b6565b604082019050919050565b6000612a34602983612fb3565b9150612a3f82613605565b604082019050919050565b6000612a57602883612fb3565b9150612a6282613654565b604082019050919050565b6000612a7a602183612fb3565b9150612a85826136a3565b604082019050919050565b612a9981613097565b82525050565b612aa881613097565b82525050565b6000602082019050612ac36000830184612786565b92915050565b600060a082019050612ade6000830188612786565b612aeb6020830187612786565b8181036040830152612afd8186612795565b90508181036060830152612b118185612795565b90508181036080830152612b258184612802565b90509695505050505050565b600060a082019050612b466000830188612786565b612b536020830187612786565b612b606040830186612a9f565b612b6d6060830185612a9f565b8181036080830152612b7f8184612802565b90509695505050505050565b60006020820190508181036000830152612ba58184612795565b905092915050565b60006040820190508181036000830152612bc78185612795565b90508181036020830152612bdb8184612795565b90509392505050565b6000602082019050612bf960008301846127f3565b92915050565b6000602082019050612c14600083018461283b565b92915050565b60006020820190508181036000830152612c34818461284a565b905092915050565b60006020820190508181036000830152612c5581612883565b9050919050565b60006020820190508181036000830152612c75816128a6565b9050919050565b60006020820190508181036000830152612c95816128c9565b9050919050565b60006020820190508181036000830152612cb5816128ec565b9050919050565b60006020820190508181036000830152612cd58161290f565b9050919050565b60006020820190508181036000830152612cf581612932565b9050919050565b60006020820190508181036000830152612d1581612955565b9050919050565b60006020820190508181036000830152612d3581612978565b9050919050565b60006020820190508181036000830152612d558161299b565b9050919050565b60006020820190508181036000830152612d75816129be565b9050919050565b60006020820190508181036000830152612d95816129e1565b9050919050565b60006020820190508181036000830152612db581612a04565b9050919050565b60006020820190508181036000830152612dd581612a27565b9050919050565b60006020820190508181036000830152612df581612a4a565b9050919050565b60006020820190508181036000830152612e1581612a6d565b9050919050565b6000602082019050612e316000830184612a9f565b92915050565b6000604082019050612e4c6000830185612a9f565b612e596020830184612a9f565b9392505050565b6000608082019050612e756000830187612a9f565b612e826020830186612a9f565b612e8f6040830185612a9f565b612e9c606083018461283b565b95945050505050565b6000612eaf612ec0565b9050612ebb8282613127565b919050565b6000604051905090565b600067ffffffffffffffff821115612ee557612ee461322e565b5b602082029050602081019050919050565b600067ffffffffffffffff821115612f1157612f1061322e565b5b602082029050602081019050919050565b600067ffffffffffffffff821115612f3d57612f3c61322e565b5b612f468261327f565b9050602081019050919050565b6000819050602082019050919050565b600081519050919050565b600081519050919050565b600081519050919050565b6000602082019050919050565b600082825260208201905092915050565b600082825260208201905092915050565b600082825260208201905092915050565b6000612fcf82613097565b9150612fda83613097565b9250827fffffffffffffffffffffffffffffffffffffffffffffffffffffffffffffffff0382111561300f5761300e6131a1565b5b828201905092915050565b600061302582613077565b9050919050565b60008115159050919050565b60007fffffffff0000000000000000000000000000000000000000000000000000000082169050919050565b600081905061307282613788565b919050565b600073ffffffffffffffffffffffffffffffffffffffff82169050919050565b6000819050919050565b60006130ac82613064565b9050919050565b82818337600083830152505050565b60005b838110156130e05780820151818401526020810190506130c5565b838111156130ef576000848401525b50505050565b6000600282049050600182168061310d57607f821691505b60208210811415613121576131206131ff565b5b50919050565b6131308261327f565b810181811067ffffffffffffffff8211171561314f5761314e61322e565b5b80604052505050565b600061316382613097565b91507fffffffffffffffffffffffffffffffffffffffffffffffffffffffffffffffff821415613196576131956131a1565b5b600182019050919050565b7f4e487b7100000000000000000000000000000000000000000000000000000000600052601160045260246000fd5b7f4e487b7100000000000000000000000000000000000000000000000000000000600052602160045260246000fd5b7f4e487b7100000000000000000000000000000000000000000000000000000000600052602260045260246000fd5b7f4e487b7100000000000000000000000000000000000000000000000000000000600052604160045260246000fd5b600060033d111561327c5760046000803e613279600051613290565b90505b90565b6000601f19601f8301169050919050565b60008160e01c9050919050565b7f455243313135353a207472616e7366657220746f206e6f6e204552433131353560008201527f526563656976657220696d706c656d656e746572000000000000000000000000602082015250565b7f455243313135353a204552433131353552656365697665722072656a6563746560008201527f6420746f6b656e73000000000000000000000000000000000000000000000000602082015250565b7f455243313135353a2062616c616e636520717565727920666f7220746865207a60008201527f65726f2061646472657373000000000000000000000000000000000000000000602082015250565b7f4f776e61626c653a206e6577206f776e657220697320746865207a65726f206160008201527f6464726573730000000000000000000000000000000000000000000000000000602082015250565b7f455243313135353a2063616c6c6572206973206e6f74206f776e6572206e6f7260008201527f20617070726f7665640000000000000000000000000000000000000000000000602082015250565b7f41727469666163743a20496e76616c696420494420666f72207468697320417260008201527f7469666163740000000000000000000000000000000000000000000000000000602082015250565b7f455243313135353a207472616e7366657220746f20746865207a65726f20616460008201527f6472657373000000000000000000000000000000000000000000000000000000602082015250565b7f455243313135353a207472616e736665722063616c6c6572206973206e6f742060008201527f6f776e6572206e6f7220617070726f7665640000000000000000000000000000602082015250565b7f455243313135353a20696e73756666696369656e742062616c616e636520666f60008201527f72207472616e7366657200000000000000000000000000000000000000000000602082015250565b7f4f776e61626c653a2063616c6c6572206973206e6f7420746865206f776e6572600082015250565b7f41727469666163743a204f6e6c79204d61726b65745800000000000000000000600082015250565b7f455243313135353a2073657474696e6720617070726f76616c2073746174757360008201527f20666f722073656c660000000000000000000000000000000000000000000000602082015250565b7f455243313135353a206163636f756e747320616e6420696473206c656e67746860008201527f206d69736d617463680000000000000000000000000000000000000000000000602082015250565b7f455243313135353a2069647320616e6420616d6f756e7473206c656e6774682060008201527f6d69736d61746368000000000000000000000000000000000000000000000000602082015250565b7f455243313135353a206d696e7420746f20746865207a65726f2061646472657360008201527f7300000000000000000000000000000000000000000000000000000000000000602082015250565b600060443d101561370257613785565b61370a612ec0565b60043d036004823e80513d602482011167ffffffffffffffff82111715613732575050613785565b808201805167ffffffffffffffff8111156137505750505050613785565b80602083010160043d03850181111561376d575050505050613785565b61377c82602001850186613127565b82955050505050505b90565b60068110613799576137986131d0565b5b50565b6137a58161301a565b81146137b057600080fd5b50565b6137bc8161302c565b81146137c757600080fd5b50565b6137d381613038565b81146137de57600080fd5b50565b600681106137ee57600080fd5b50565b6137fa81613097565b811461380557600080fd5b5056fea2646970667358221220a5a3369140185724e08e82d4a169522177f12a93d583c949ddb1eb1dcf30aef464736f6c63430008040033",
  "immutableReferences": {},
  "source": "// SPDX-License-Identifier: GPL-3.0\r\npragma solidity 0.8.4;\r\nimport \"@openzeppelin/contracts/token/ERC1155/ERC1155.sol\";\r\nimport \"@openzeppelin/contracts/access/Ownable.sol\";\r\n\r\ncontract Artifact is ERC1155, Ownable{\r\n\r\n    enum Status {\r\n        Created,\r\n        Minted,\r\n        Hodl,\r\n        Staked,\r\n        Unverified,\r\n        Paused\r\n    }\r\n\r\n    string public NAME;\r\n    address private CREATOR;\r\n    address private HODLER;\r\n    uint private PRICE;\r\n    Status private STATUS;\r\n    uint public ID;\r\n    uint public AMOUNT;\r\n    address MARKETX;\r\n    address[] public LEDGER;\r\n    uint private N_LEDGER = 0;\r\n\r\n    constructor(string memory _uri, string memory _name, uint _id, uint _amount, uint _price, address _creator, address _marketX) ERC1155(_uri) public {\r\n        NAME = _name;\r\n        STATUS = Status.Created;\r\n        MARKETX = _marketX;\r\n        CREATOR = _creator;\r\n        AMOUNT = _amount;\r\n        PRICE = _price;\r\n        ID = _id;\r\n        LEDGER.push(_creator);\r\n        N_LEDGER++;\r\n        setApprovalForAll(_marketX,true);\r\n    }\r\n\r\n    modifier onlyMarketX(){\r\n        require(msg.sender == MARKETX,\"Artifact: Only MarketX\");\r\n        _; \r\n    }\r\n\r\n    function mint(address _to) public onlyMarketX {\r\n        STATUS = Status.Minted;\r\n        HODLER = _to;\r\n        LEDGER.push(_to);\r\n        N_LEDGER++;\r\n        _mint(_to,ID,AMOUNT,\"\");\r\n    }\r\n\r\n    function idToName(uint _id) public view returns(string memory) {\r\n        require(_id == ID, \"Artifact: Invalid ID for this Artifact\");\r\n        return NAME;\r\n    }\r\n\r\n    function transfer(address _buyer) public onlyMarketX{\r\n        safeTransferFrom(HODLER, _buyer, ID, AMOUNT, \"\");\r\n        HODLER = _buyer;\r\n        STATUS = Status.Hodl;\r\n        LEDGER.push(_buyer);\r\n        N_LEDGER++;\r\n    } \r\n\r\n    function getHodler() public view returns(address) {\r\n        return HODLER;\r\n    }\r\n\r\n    function getCreator() public view returns(address) {\r\n        return CREATOR;\r\n    }\r\n\r\n    function setStatus(Status _newStatus) public onlyMarketX {\r\n        STATUS = _newStatus;\r\n    }\r\n \r\n    function getStatus() public onlyMarketX view returns(Status){\r\n        return STATUS;\r\n    }\r\n\r\n    function getData() public view returns(uint,uint,uint,Status){\r\n        return (ID,PRICE,N_LEDGER,STATUS);\r\n    }\r\n\r\n}",
  "sourcePath": "D:\\ArtifacX\\Codebase\\contracts\\Artifact.sol",
  "compiler": {
    "name": "solc",
    "version": "0.8.4+commit.c7e474f2.Emscripten.clang"
  },
  "schemaVersion": "3.4.7",
  "updatedAt": "2022-04-30T20:45:48.574Z",
  "devdoc": {
    "kind": "dev",
    "methods": {
      "balanceOf(address,uint256)": {
        "details": "See {IERC1155-balanceOf}. Requirements: - `account` cannot be the zero address."
      },
      "balanceOfBatch(address[],uint256[])": {
        "details": "See {IERC1155-balanceOfBatch}. Requirements: - `accounts` and `ids` must have the same length."
      },
      "isApprovedForAll(address,address)": {
        "details": "See {IERC1155-isApprovedForAll}."
      },
      "owner()": {
        "details": "Returns the address of the current owner."
      },
      "renounceOwnership()": {
        "details": "Leaves the contract without owner. It will not be possible to call `onlyOwner` functions anymore. Can only be called by the current owner. NOTE: Renouncing ownership will leave the contract without an owner, thereby removing any functionality that is only available to the owner."
      },
      "safeBatchTransferFrom(address,address,uint256[],uint256[],bytes)": {
        "details": "See {IERC1155-safeBatchTransferFrom}."
      },
      "safeTransferFrom(address,address,uint256,uint256,bytes)": {
        "details": "See {IERC1155-safeTransferFrom}."
      },
      "setApprovalForAll(address,bool)": {
        "details": "See {IERC1155-setApprovalForAll}."
      },
      "supportsInterface(bytes4)": {
        "details": "See {IERC165-supportsInterface}."
      },
      "transferOwnership(address)": {
        "details": "Transfers ownership of the contract to a new account (`newOwner`). Can only be called by the current owner."
      },
      "uri(uint256)": {
        "details": "See {IERC1155MetadataURI-uri}. This implementation returns the same URI for *all* token types. It relies on the token type ID substitution mechanism https://eips.ethereum.org/EIPS/eip-1155#metadata[defined in the EIP]. Clients calling this function must replace the `\\{id\\}` substring with the actual token type ID."
      }
    },
    "version": 1
  },
  "userdoc": {
    "kind": "user",
    "methods": {},
    "version": 1
  }
}