{
  "contractName": "ArtiFactory",
  "abi": [
    {
      "inputs": [
        {
          "internalType": "address",
          "name": "certificationRegistry",
          "type": "address"
        },
        {
          "internalType": "address",
          "name": "marketplace",
          "type": "address"
        }
      ],
      "stateMutability": "nonpayable",
      "type": "constructor"
    },
    {
      "anonymous": false,
      "inputs": [
        {
          "indexed": false,
          "internalType": "address",
          "name": "owner",
          "type": "address"
        },
        {
          "indexed": false,
          "internalType": "address",
          "name": "tokenContract",
          "type": "address"
        }
      ],
      "name": "ArtifactCreated",
      "type": "event"
    },
    {
      "anonymous": false,
      "inputs": [
        {
          "indexed": true,
          "internalType": "address",
          "name": "previousOwner",
          "type": "address"
        },
        {
          "indexed": true,
          "internalType": "address",
          "name": "newOwner",
          "type": "address"
        }
      ],
      "name": "OwnershipTransferred",
      "type": "event"
    },
    {
      "inputs": [],
      "name": "N_TOKENS",
      "outputs": [
        {
          "internalType": "uint256",
          "name": "",
          "type": "uint256"
        }
      ],
      "stateMutability": "view",
      "type": "function",
      "constant": true
    },
    {
      "inputs": [],
      "name": "owner",
      "outputs": [
        {
          "internalType": "address",
          "name": "",
          "type": "address"
        }
      ],
      "stateMutability": "view",
      "type": "function",
      "constant": true
    },
    {
      "inputs": [],
      "name": "renounceOwnership",
      "outputs": [],
      "stateMutability": "nonpayable",
      "type": "function"
    },
    {
      "inputs": [
        {
          "internalType": "address",
          "name": "newOwner",
          "type": "address"
        }
      ],
      "name": "transferOwnership",
      "outputs": [],
      "stateMutability": "nonpayable",
      "type": "function"
    },
    {
      "inputs": [
        {
          "internalType": "address",
          "name": "_marketplace",
          "type": "address"
        }
      ],
      "name": "setMarketPlace",
      "outputs": [],
      "stateMutability": "nonpayable",
      "type": "function"
    },
    {
      "inputs": [
        {
          "internalType": "uint256",
          "name": "_limit",
          "type": "uint256"
        }
      ],
      "name": "setAmountLimit",
      "outputs": [],
      "stateMutability": "nonpayable",
      "type": "function"
    },
    {
      "inputs": [
        {
          "internalType": "string",
          "name": "_baseMetadataURI",
          "type": "string"
        }
      ],
      "name": "setBaseMetaDataURI",
      "outputs": [],
      "stateMutability": "nonpayable",
      "type": "function"
    },
    {
      "inputs": [],
      "name": "getBaseMetaDataURI",
      "outputs": [
        {
          "internalType": "string",
          "name": "",
          "type": "string"
        }
      ],
      "stateMutability": "view",
      "type": "function",
      "constant": true
    },
    {
      "inputs": [
        {
          "internalType": "string",
          "name": "_contractName",
          "type": "string"
        },
        {
          "internalType": "string",
          "name": "_tokenURI",
          "type": "string"
        },
        {
          "internalType": "uint256",
          "name": "_price",
          "type": "uint256"
        }
      ],
      "name": "deployArtifact",
      "outputs": [
        {
          "internalType": "address",
          "name": "",
          "type": "address"
        }
      ],
      "stateMutability": "nonpayable",
      "type": "function"
    },
    {
      "inputs": [
        {
          "internalType": "address",
          "name": "_artifactAddress",
          "type": "address"
        }
      ],
      "name": "getIndexByAddress",
      "outputs": [
        {
          "internalType": "uint256",
          "name": "",
          "type": "uint256"
        }
      ],
      "stateMutability": "view",
      "type": "function",
      "constant": true
    },
    {
      "inputs": [
        {
          "internalType": "uint256",
          "name": "id",
          "type": "uint256"
        }
      ],
      "name": "getAddressByIndex",
      "outputs": [
        {
          "internalType": "address",
          "name": "",
          "type": "address"
        }
      ],
      "stateMutability": "view",
      "type": "function",
      "constant": true
    },
    {
      "inputs": [
        {
          "internalType": "uint256",
          "name": "id",
          "type": "uint256"
        }
      ],
      "name": "getURIByIndex",
      "outputs": [
        {
          "internalType": "string",
          "name": "",
          "type": "string"
        }
      ],
      "stateMutability": "view",
      "type": "function",
      "constant": true
    }
  ],
  "bytecode": "0x6080604052600160035560405180606001604052806022815260200162005b3a60229139600490805190602001906200003a929190620001e9565b5060006006553480156200004d57600080fd5b5060405162005b5c38038062005b5c8339818101604052810190620000739190620002b0565b62000093620000876200011d60201b60201c565b6200012560201b60201c565b80600160006101000a81548173ffffffffffffffffffffffffffffffffffffffff021916908373ffffffffffffffffffffffffffffffffffffffff16021790555081600260006101000a81548173ffffffffffffffffffffffffffffffffffffffff021916908373ffffffffffffffffffffffffffffffffffffffff1602179055505050620003a4565b600033905090565b60008060009054906101000a900473ffffffffffffffffffffffffffffffffffffffff169050816000806101000a81548173ffffffffffffffffffffffffffffffffffffffff021916908373ffffffffffffffffffffffffffffffffffffffff1602179055508173ffffffffffffffffffffffffffffffffffffffff168173ffffffffffffffffffffffffffffffffffffffff167f8be0079c531659141344cd1fd0a4f28419497f9722a3daafe3b4186f6b6457e060405160405180910390a35050565b828054620001f79062000325565b90600052602060002090601f0160209004810192826200021b576000855562000267565b82601f106200023657805160ff191683800117855562000267565b8280016001018555821562000267579182015b828111156200026657825182559160200191906001019062000249565b5b5090506200027691906200027a565b5090565b5b80821115620002955760008160009055506001016200027b565b5090565b600081519050620002aa816200038a565b92915050565b60008060408385031215620002c457600080fd5b6000620002d48582860162000299565b9250506020620002e78582860162000299565b9150509250929050565b6000620002fe8262000305565b9050919050565b600073ffffffffffffffffffffffffffffffffffffffff82169050919050565b600060028204905060018216806200033e57607f821691505b602082108114156200035557620003546200035b565b5b50919050565b7f4e487b7100000000000000000000000000000000000000000000000000000000600052602260045260246000fd5b6200039581620002f1565b8114620003a157600080fd5b50565b61578680620003b46000396000f3fe60806040523480156200001157600080fd5b5060043610620000c45760003560e01c80638da5cb5b116200007b5780638da5cb5b14620001a3578063c3bd538114620001c5578063cc8224fb14620001fb578063ce10cf88146200021b578063f2fde38b1462000251578063f34e2321146200027157620000c4565b80631973ef9114620000c957806330568a8d14620000ff5780633f045b40146200011f57806366ecccc3146200013f578063715018a614620001755780637fdc6ed51462000181575b600080fd5b620000e76004803603810190620000e1919062000d77565b62000293565b604051620000f6919062001144565b60405180910390f35b6200011d600480360381019062000117919062000d77565b620002dc565b005b6200013d600480360381019062000137919062000ee1565b620003a3565b005b6200015d600480360381019062000157919062000e59565b62000430565b6040516200016c919062000fe5565b60405180910390f35b6200017f620006b1565b005b6200018b62000742565b6040516200019a919062001144565b60405180910390f35b620001ad62000748565b604051620001bc919062000fe5565b60405180910390f35b620001e36004803603810190620001dd919062000ee1565b62000771565b604051620001f291906200102f565b60405180910390f35b62000219600480360381019062000213919062000dcf565b62000818565b005b62000239600480360381019062000233919062000ee1565b620008b7565b60405162000248919062000fe5565b60405180910390f35b6200026f600480360381019062000269919062000d77565b62000926565b005b6200027b62000a2a565b6040516200028a91906200102f565b60405180910390f35b6000600760008373ffffffffffffffffffffffffffffffffffffffff1673ffffffffffffffffffffffffffffffffffffffff168152602001908152602001600020549050919050565b620002e662000ac4565b73ffffffffffffffffffffffffffffffffffffffff166200030662000748565b73ffffffffffffffffffffffffffffffffffffffff16146200035f576040517f08c379a0000000000000000000000000000000000000000000000000000000008152600401620003569062001122565b60405180910390fd5b80600160006101000a81548173ffffffffffffffffffffffffffffffffffffffff021916908373ffffffffffffffffffffffffffffffffffffffff16021790555050565b620003ad62000ac4565b73ffffffffffffffffffffffffffffffffffffffff16620003cd62000748565b73ffffffffffffffffffffffffffffffffffffffff161462000426576040517f08c379a00000000000000000000000000000000000000000000000000000000081526004016200041d9062001122565b60405180910390fd5b8060038190555050565b6000600260009054906101000a900473ffffffffffffffffffffffffffffffffffffffff1673ffffffffffffffffffffffffffffffffffffffff16633af32abf336040518263ffffffff1660e01b81526004016200048f919062000fe5565b60206040518083038186803b158015620004a857600080fd5b505afa158015620004bd573d6000803e3d6000fd5b505050506040513d601f19601f82011682018060405250810190620004e3919062000da3565b62000525576040517f08c379a00000000000000000000000000000000000000000000000000000000081526004016200051c9062001100565b60405180910390fd5b600083856005805490506003548633600160009054906101000a900473ffffffffffffffffffffffffffffffffffffffff16604051620005659062000b90565b62000577979695949392919062001053565b604051809103906000f08015801562000594573d6000803e3d6000fd5b5090506005819080600181540180825580915050600190039060005260206000200160009091909190916101000a81548173ffffffffffffffffffffffffffffffffffffffff021916908373ffffffffffffffffffffffffffffffffffffffff160217905550600660008154809291906200060f9062001312565b91905055506001600580549050620006289190620011dc565b600760008373ffffffffffffffffffffffffffffffffffffffff1673ffffffffffffffffffffffffffffffffffffffff168152602001908152602001600020819055507f2da1e2511762f4b34723c383327640a4519f3c462bb6992dab5172708da08bc533826040516200069e92919062001002565b60405180910390a1809150509392505050565b620006bb62000ac4565b73ffffffffffffffffffffffffffffffffffffffff16620006db62000748565b73ffffffffffffffffffffffffffffffffffffffff161462000734576040517f08c379a00000000000000000000000000000000000000000000000000000000081526004016200072b9062001122565b60405180910390fd5b62000740600062000acc565b565b60065481565b60008060009054906101000a900473ffffffffffffffffffffffffffffffffffffffff16905090565b60606200077e82620008b7565b73ffffffffffffffffffffffffffffffffffffffff16630e89341c836040518263ffffffff1660e01b8152600401620007b8919062001144565b60006040518083038186803b158015620007d157600080fd5b505afa158015620007e6573d6000803e3d6000fd5b505050506040513d6000823e3d601f19601f8201168201806040525081019062000811919062000e14565b9050919050565b6200082262000ac4565b73ffffffffffffffffffffffffffffffffffffffff166200084262000748565b73ffffffffffffffffffffffffffffffffffffffff16146200089b576040517f08c379a0000000000000000000000000000000000000000000000000000000008152600401620008929062001122565b60405180910390fd5b8060049080519060200190620008b392919062000b9e565b5050565b600060058281548110620008f4577f4e487b7100000000000000000000000000000000000000000000000000000000600052603260045260246000fd5b9060005260206000200160009054906101000a900473ffffffffffffffffffffffffffffffffffffffff169050919050565b6200093062000ac4565b73ffffffffffffffffffffffffffffffffffffffff166200095062000748565b73ffffffffffffffffffffffffffffffffffffffff1614620009a9576040517f08c379a0000000000000000000000000000000000000000000000000000000008152600401620009a09062001122565b60405180910390fd5b600073ffffffffffffffffffffffffffffffffffffffff168173ffffffffffffffffffffffffffffffffffffffff16141562000a1c576040517f08c379a000000000000000000000000000000000000000000000000000000000815260040162000a1390620010de565b60405180910390fd5b62000a278162000acc565b50565b60606004805462000a3b90620012a6565b80601f016020809104026020016040519081016040528092919081815260200182805462000a6990620012a6565b801562000aba5780601f1062000a8e5761010080835404028352916020019162000aba565b820191906000526020600020905b81548152906001019060200180831162000a9c57829003601f168201915b5050505050905090565b600033905090565b60008060009054906101000a900473ffffffffffffffffffffffffffffffffffffffff169050816000806101000a81548173ffffffffffffffffffffffffffffffffffffffff021916908373ffffffffffffffffffffffffffffffffffffffff1602179055508173ffffffffffffffffffffffffffffffffffffffff168173ffffffffffffffffffffffffffffffffffffffff167f8be0079c531659141344cd1fd0a4f28419497f9722a3daafe3b4186f6b6457e060405160405180910390a35050565b61423d806200151483390190565b82805462000bac90620012a6565b90600052602060002090601f01602090048101928262000bd0576000855562000c1c565b82601f1062000beb57805160ff191683800117855562000c1c565b8280016001018555821562000c1c579182015b8281111562000c1b57825182559160200191906001019062000bfe565b5b50905062000c2b919062000c2f565b5090565b5b8082111562000c4a57600081600090555060010162000c30565b5090565b600062000c6562000c5f846200118a565b62001161565b90508281526020810184848401111562000c7e57600080fd5b62000c8b84828562001261565b509392505050565b600062000caa62000ca4846200118a565b62001161565b90508281526020810184848401111562000cc357600080fd5b62000cd084828562001270565b509392505050565b60008135905062000ce981620014c5565b92915050565b60008151905062000d0081620014df565b92915050565b600082601f83011262000d1857600080fd5b813562000d2a84826020860162000c4e565b91505092915050565b600082601f83011262000d4557600080fd5b815162000d5784826020860162000c93565b91505092915050565b60008135905062000d7181620014f9565b92915050565b60006020828403121562000d8a57600080fd5b600062000d9a8482850162000cd8565b91505092915050565b60006020828403121562000db657600080fd5b600062000dc68482850162000cef565b91505092915050565b60006020828403121562000de257600080fd5b600082013567ffffffffffffffff81111562000dfd57600080fd5b62000e0b8482850162000d06565b91505092915050565b60006020828403121562000e2757600080fd5b600082015167ffffffffffffffff81111562000e4257600080fd5b62000e508482850162000d33565b91505092915050565b60008060006060848603121562000e6f57600080fd5b600084013567ffffffffffffffff81111562000e8a57600080fd5b62000e988682870162000d06565b935050602084013567ffffffffffffffff81111562000eb657600080fd5b62000ec48682870162000d06565b925050604062000ed78682870162000d60565b9150509250925092565b60006020828403121562000ef457600080fd5b600062000f048482850162000d60565b91505092915050565b62000f188162001217565b82525050565b600062000f2b82620011c0565b62000f378185620011cb565b935062000f4981856020860162001270565b62000f5481620013ed565b840191505092915050565b600062000f6e602683620011cb565b915062000f7b82620013fe565b604082019050919050565b600062000f95602483620011cb565b915062000fa2826200144d565b604082019050919050565b600062000fbc602083620011cb565b915062000fc9826200149c565b602082019050919050565b62000fdf8162001257565b82525050565b600060208201905062000ffc600083018462000f0d565b92915050565b600060408201905062001019600083018562000f0d565b62001028602083018462000f0d565b9392505050565b600060208201905081810360008301526200104b818462000f1e565b905092915050565b600060e08201905081810360008301526200106f818a62000f1e565b9050818103602083015262001085818962000f1e565b905062001096604083018862000fd4565b620010a5606083018762000fd4565b620010b4608083018662000fd4565b620010c360a083018562000f0d565b620010d260c083018462000f0d565b98975050505050505050565b60006020820190508181036000830152620010f98162000f5f565b9050919050565b600060208201905081810360008301526200111b8162000f86565b9050919050565b600060208201905081810360008301526200113d8162000fad565b9050919050565b60006020820190506200115b600083018462000fd4565b92915050565b60006200116d62001180565b90506200117b8282620012dc565b919050565b6000604051905090565b600067ffffffffffffffff821115620011a857620011a7620013be565b5b620011b382620013ed565b9050602081019050919050565b600081519050919050565b600082825260208201905092915050565b6000620011e98262001257565b9150620011f68362001257565b9250828210156200120c576200120b62001360565b5b828203905092915050565b6000620012248262001237565b9050919050565b60008115159050919050565b600073ffffffffffffffffffffffffffffffffffffffff82169050919050565b6000819050919050565b82818337600083830152505050565b60005b838110156200129057808201518184015260208101905062001273565b83811115620012a0576000848401525b50505050565b60006002820490506001821680620012bf57607f821691505b60208210811415620012d657620012d56200138f565b5b50919050565b620012e782620013ed565b810181811067ffffffffffffffff82111715620013095762001308620013be565b5b80604052505050565b60006200131f8262001257565b91507fffffffffffffffffffffffffffffffffffffffffffffffffffffffffffffffff82141562001355576200135462001360565b5b600182019050919050565b7f4e487b7100000000000000000000000000000000000000000000000000000000600052601160045260246000fd5b7f4e487b7100000000000000000000000000000000000000000000000000000000600052602260045260246000fd5b7f4e487b7100000000000000000000000000000000000000000000000000000000600052604160045260246000fd5b6000601f19601f8301169050919050565b7f4f776e61626c653a206e6577206f776e657220697320746865207a65726f206160008201527f6464726573730000000000000000000000000000000000000000000000000000602082015250565b7f41727469466163746f72793a20546869732061646472657373206973206e6f7460008201527f2041434d00000000000000000000000000000000000000000000000000000000602082015250565b7f4f776e61626c653a2063616c6c6572206973206e6f7420746865206f776e6572600082015250565b620014d08162001217565b8114620014dc57600080fd5b50565b620014ea816200122b565b8114620014f657600080fd5b50565b620015048162001257565b81146200151057600080fd5b5056fe60806040523480156200001157600080fd5b506040516200423d3803806200423d83398181016040528101906200003791906200055e565b8662000049816200018c60201b60201c565b506200006a6200005e620001a860201b60201c565b620001b060201b60201c565b8560049080519060200190620000829291906200040e565b506000600860006101000a81548160ff02191690836005811115620000d0577f4e487b7100000000000000000000000000000000000000000000000000000000600052602160045260246000fd5b021790555080600b60006101000a81548173ffffffffffffffffffffffffffffffffffffffff021916908373ffffffffffffffffffffffffffffffffffffffff16021790555081600560006101000a81548173ffffffffffffffffffffffffffffffffffffffff021916908373ffffffffffffffffffffffffffffffffffffffff16021790555083600a8190555082600781905550846009819055506200017f8160016200027660201b60201c565b5050505050505062000902565b8060029080519060200190620001a49291906200040e565b5050565b600033905090565b6000600360009054906101000a900473ffffffffffffffffffffffffffffffffffffffff16905081600360006101000a81548173ffffffffffffffffffffffffffffffffffffffff021916908373ffffffffffffffffffffffffffffffffffffffff1602179055508173ffffffffffffffffffffffffffffffffffffffff168173ffffffffffffffffffffffffffffffffffffffff167f8be0079c531659141344cd1fd0a4f28419497f9722a3daafe3b4186f6b6457e060405160405180910390a35050565b620002986200028a620001a860201b60201c565b83836200029c60201b60201c565b5050565b8173ffffffffffffffffffffffffffffffffffffffff168373ffffffffffffffffffffffffffffffffffffffff1614156200030e576040517f08c379a0000000000000000000000000000000000000000000000000000000008152600401620003059062000692565b60405180910390fd5b80600160008573ffffffffffffffffffffffffffffffffffffffff1673ffffffffffffffffffffffffffffffffffffffff16815260200190815260200160002060008473ffffffffffffffffffffffffffffffffffffffff1673ffffffffffffffffffffffffffffffffffffffff16815260200190815260200160002060006101000a81548160ff0219169083151502179055508173ffffffffffffffffffffffffffffffffffffffff168373ffffffffffffffffffffffffffffffffffffffff167f17307eab39ab6107e8899845ad3d59bd9653f200f220920489ca2b5937696c318360405162000401919062000675565b60405180910390a3505050565b8280546200041c90620007a4565b90600052602060002090601f0160209004810192826200044057600085556200048c565b82601f106200045b57805160ff19168380011785556200048c565b828001600101855582156200048c579182015b828111156200048b5782518255916020019190600101906200046e565b5b5090506200049b91906200049f565b5090565b5b80821115620004ba576000816000905550600101620004a0565b5090565b6000620004d5620004cf84620006dd565b620006b4565b905082815260208101848484011115620004ee57600080fd5b620004fb8482856200076e565b509392505050565b6000815190506200051481620008ce565b92915050565b600082601f8301126200052c57600080fd5b81516200053e848260208601620004be565b91505092915050565b6000815190506200055881620008e8565b92915050565b600080600080600080600060e0888a0312156200057a57600080fd5b600088015167ffffffffffffffff8111156200059557600080fd5b620005a38a828b016200051a565b975050602088015167ffffffffffffffff811115620005c157600080fd5b620005cf8a828b016200051a565b9650506040620005e28a828b0162000547565b9550506060620005f58a828b0162000547565b9450506080620006088a828b0162000547565b93505060a06200061b8a828b0162000503565b92505060c06200062e8a828b0162000503565b91505092959891949750929550565b620006488162000738565b82525050565b60006200065d60298362000713565b91506200066a826200087f565b604082019050919050565b60006020820190506200068c60008301846200063d565b92915050565b60006020820190508181036000830152620006ad816200064e565b9050919050565b6000620006c0620006d3565b9050620006ce8282620007da565b919050565b6000604051905090565b600067ffffffffffffffff821115620006fb57620006fa6200083f565b5b62000706826200086e565b9050602081019050919050565b600082825260208201905092915050565b6000620007318262000744565b9050919050565b60008115159050919050565b600073ffffffffffffffffffffffffffffffffffffffff82169050919050565b6000819050919050565b60005b838110156200078e57808201518184015260208101905062000771565b838111156200079e576000848401525b50505050565b60006002820490506001821680620007bd57607f821691505b60208210811415620007d457620007d362000810565b5b50919050565b620007e5826200086e565b810181811067ffffffffffffffff821117156200080757620008066200083f565b5b80604052505050565b7f4e487b7100000000000000000000000000000000000000000000000000000000600052602260045260246000fd5b7f4e487b7100000000000000000000000000000000000000000000000000000000600052604160045260246000fd5b6000601f19601f8301169050919050565b7f455243313135353a2073657474696e6720617070726f76616c2073746174757360008201527f20666f722073656c660000000000000000000000000000000000000000000000602082015250565b620008d98162000724565b8114620008e557600080fd5b50565b620008f38162000764565b8114620008ff57600080fd5b50565b61392b80620009126000396000f3fe608060405234801561001057600080fd5b506004361061014c5760003560e01c8063715018a6116100c3578063b3cea2171161007c578063b3cea2171461038b578063d1789176146103a9578063e985e9c5146103c7578063f242432a146103f7578063f2fde38b14610413578063f6d8f2cb1461042f5761014c565b8063715018a6146102ed5780638da5cb5b146102f757806398d5fdca146103155780639fade8a114610333578063a22cb46514610351578063a3f4df7e1461036d5761014c565b80632e49d78b116101155780632e49d78b1461021b5780632eb2c2d614610237578063364410b3146102535780634e1273f4146102835780634e69d560146102b35780636a627842146102d15761014c565b8062fdd58e1461015157806301ffc9a7146101815780630e89341c146101b15780630ee2cb10146101e15780631a695230146101ff575b600080fd5b61016b6004803603810190610166919061259a565b61045f565b6040516101789190612eae565b60405180910390f35b61019b60048036038101906101969190612642565b610528565b6040516101a89190612c56565b60405180910390f35b6101cb60048036038101906101c691906126fe565b61060a565b6040516101d89190612c8c565b60405180910390f35b6101e961069e565b6040516101f69190612b20565b60405180910390f35b610219600480360381019061021491906123ab565b6106c8565b005b61023560048036038101906102309190612694565b61082f565b005b610251600480360381019061024c9190612410565b610912565b005b61026d600480360381019061026891906126fe565b6109b3565b60405161027a9190612c8c565b60405180910390f35b61029d600480360381019061029891906125d6565b610a8b565b6040516102aa9190612bfd565b60405180910390f35b6102bb610c3c565b6040516102c89190612c71565b60405180910390f35b6102eb60048036038101906102e691906123ab565b610ce3565b005b6102f5610e27565b005b6102ff610eaf565b60405161030c9190612b20565b60405180910390f35b61031d610ed9565b60405161032a9190612eae565b60405180910390f35b61033b610ee3565b6040516103489190612b20565b60405180910390f35b61036b6004803603810190610366919061255e565b610f0d565b005b610375610f23565b6040516103829190612c8c565b60405180910390f35b610393610fb1565b6040516103a09190612eae565b60405180910390f35b6103b1610fb7565b6040516103be9190612eae565b60405180910390f35b6103e160048036038101906103dc91906123d4565b610fbd565b6040516103ee9190612c56565b60405180910390f35b610411600480360381019061040c91906124cf565b611051565b005b61042d600480360381019061042891906123ab565b6110f2565b005b610449600480360381019061044491906126bd565b6111ea565b6040516104569190612eae565b60405180910390f35b60008073ffffffffffffffffffffffffffffffffffffffff168373ffffffffffffffffffffffffffffffffffffffff1614156104d0576040517f08c379a00000000000000000000000000000000000000000000000000000000081526004016104c790612cee565b60405180910390fd5b60008083815260200190815260200160002060008473ffffffffffffffffffffffffffffffffffffffff1673ffffffffffffffffffffffffffffffffffffffff16815260200190815260200160002054905092915050565b60007fd9b67a26000000000000000000000000000000000000000000000000000000007bffffffffffffffffffffffffffffffffffffffffffffffffffffffff1916827bffffffffffffffffffffffffffffffffffffffffffffffffffffffff191614806105f357507f0e89341c000000000000000000000000000000000000000000000000000000007bffffffffffffffffffffffffffffffffffffffffffffffffffffffff1916827bffffffffffffffffffffffffffffffffffffffffffffffffffffffff1916145b80610603575061060282611255565b5b9050919050565b60606002805461061990613193565b80601f016020809104026020016040519081016040528092919081815260200182805461064590613193565b80156106925780601f1061066757610100808354040283529160200191610692565b820191906000526020600020905b81548152906001019060200180831161067557829003601f168201915b50505050509050919050565b6000600560009054906101000a900473ffffffffffffffffffffffffffffffffffffffff16905090565b600b60009054906101000a900473ffffffffffffffffffffffffffffffffffffffff1673ffffffffffffffffffffffffffffffffffffffff163373ffffffffffffffffffffffffffffffffffffffff1614610758576040517f08c379a000000000000000000000000000000000000000000000000000000000815260040161074f90612dee565b60405180910390fd5b61079a600660009054906101000a900473ffffffffffffffffffffffffffffffffffffffff1682600954600a5460405180602001604052806000815250611051565b80600660006101000a81548173ffffffffffffffffffffffffffffffffffffffff021916908373ffffffffffffffffffffffffffffffffffffffff1602179055506002600860006101000a81548160ff02191690836005811115610827577f4e487b7100000000000000000000000000000000000000000000000000000000600052602160045260246000fd5b021790555050565b600b60009054906101000a900473ffffffffffffffffffffffffffffffffffffffff1673ffffffffffffffffffffffffffffffffffffffff163373ffffffffffffffffffffffffffffffffffffffff16146108bf576040517f08c379a00000000000000000000000000000000000000000000000000000000081526004016108b690612dee565b60405180910390fd5b80600860006101000a81548160ff0219169083600581111561090a577f4e487b7100000000000000000000000000000000000000000000000000000000600052602160045260246000fd5b021790555050565b61091a6112bf565b73ffffffffffffffffffffffffffffffffffffffff168573ffffffffffffffffffffffffffffffffffffffff161480610960575061095f8561095a6112bf565b610fbd565b5b61099f576040517f08c379a000000000000000000000000000000000000000000000000000000000815260040161099690612d8e565b60405180910390fd5b6109ac85858585856112c7565b5050505050565b606060095482146109f9576040517f08c379a00000000000000000000000000000000000000000000000000000000081526004016109f090612d4e565b60405180910390fd5b60048054610a0690613193565b80601f0160208091040260200160405190810160405280929190818152602001828054610a3290613193565b8015610a7f5780601f10610a5457610100808354040283529160200191610a7f565b820191906000526020600020905b815481529060010190602001808311610a6257829003601f168201915b50505050509050919050565b60608151835114610ad1576040517f08c379a0000000000000000000000000000000000000000000000000000000008152600401610ac890612e4e565b60405180910390fd5b6000835167ffffffffffffffff811115610b14577f4e487b7100000000000000000000000000000000000000000000000000000000600052604160045260246000fd5b604051908082528060200260200182016040528015610b425781602001602082028036833780820191505090505b50905060005b8451811015610c3157610bdb858281518110610b8d577f4e487b7100000000000000000000000000000000000000000000000000000000600052603260045260246000fd5b6020026020010151858381518110610bce577f4e487b7100000000000000000000000000000000000000000000000000000000600052603260045260246000fd5b602002602001015161045f565b828281518110610c14577f4e487b7100000000000000000000000000000000000000000000000000000000600052603260045260246000fd5b60200260200101818152505080610c2a906131f6565b9050610b48565b508091505092915050565b6000600b60009054906101000a900473ffffffffffffffffffffffffffffffffffffffff1673ffffffffffffffffffffffffffffffffffffffff163373ffffffffffffffffffffffffffffffffffffffff1614610cce576040517f08c379a0000000000000000000000000000000000000000000000000000000008152600401610cc590612dee565b60405180910390fd5b600860009054906101000a900460ff16905090565b600b60009054906101000a900473ffffffffffffffffffffffffffffffffffffffff1673ffffffffffffffffffffffffffffffffffffffff163373ffffffffffffffffffffffffffffffffffffffff1614610d73576040517f08c379a0000000000000000000000000000000000000000000000000000000008152600401610d6a90612dee565b60405180910390fd5b6001600860006101000a81548160ff02191690836005811115610dbf577f4e487b7100000000000000000000000000000000000000000000000000000000600052602160045260246000fd5b021790555080600660006101000a81548173ffffffffffffffffffffffffffffffffffffffff021916908373ffffffffffffffffffffffffffffffffffffffff160217905550610e2481600954600a5460405180602001604052806000815250611627565b50565b610e2f6112bf565b73ffffffffffffffffffffffffffffffffffffffff16610e4d610eaf565b73ffffffffffffffffffffffffffffffffffffffff1614610ea3576040517f08c379a0000000000000000000000000000000000000000000000000000000008152600401610e9a90612dce565b60405180910390fd5b610ead60006117bd565b565b6000600360009054906101000a900473ffffffffffffffffffffffffffffffffffffffff16905090565b6000600754905090565b6000600660009054906101000a900473ffffffffffffffffffffffffffffffffffffffff16905090565b610f1f610f186112bf565b8383611883565b5050565b60048054610f3090613193565b80601f0160208091040260200160405190810160405280929190818152602001828054610f5c90613193565b8015610fa95780601f10610f7e57610100808354040283529160200191610fa9565b820191906000526020600020905b815481529060010190602001808311610f8c57829003601f168201915b505050505081565b60095481565b600a5481565b6000600160008473ffffffffffffffffffffffffffffffffffffffff1673ffffffffffffffffffffffffffffffffffffffff16815260200190815260200160002060008373ffffffffffffffffffffffffffffffffffffffff1673ffffffffffffffffffffffffffffffffffffffff16815260200190815260200160002060009054906101000a900460ff16905092915050565b6110596112bf565b73ffffffffffffffffffffffffffffffffffffffff168573ffffffffffffffffffffffffffffffffffffffff16148061109f575061109e856110996112bf565b610fbd565b5b6110de576040517f08c379a00000000000000000000000000000000000000000000000000000000081526004016110d590612d2e565b60405180910390fd5b6110eb85858585856119f0565b5050505050565b6110fa6112bf565b73ffffffffffffffffffffffffffffffffffffffff16611118610eaf565b73ffffffffffffffffffffffffffffffffffffffff161461116e576040517f08c379a000000000000000000000000000000000000000000000000000000000815260040161116590612dce565b60405180910390fd5b600073ffffffffffffffffffffffffffffffffffffffff168173ffffffffffffffffffffffffffffffffffffffff1614156111de576040517f08c379a00000000000000000000000000000000000000000000000000000000081526004016111d590612d0e565b60405180910390fd5b6111e7816117bd565b50565b600060046040516111fb9190612b09565b604051809103902082805190602001201461124b576040517f08c379a000000000000000000000000000000000000000000000000000000000815260040161124290612e0e565b60405180910390fd5b6009549050919050565b60007f01ffc9a7000000000000000000000000000000000000000000000000000000007bffffffffffffffffffffffffffffffffffffffffffffffffffffffff1916827bffffffffffffffffffffffffffffffffffffffffffffffffffffffff1916149050919050565b600033905090565b815183511461130b576040517f08c379a000000000000000000000000000000000000000000000000000000000815260040161130290612e6e565b60405180910390fd5b600073ffffffffffffffffffffffffffffffffffffffff168473ffffffffffffffffffffffffffffffffffffffff16141561137b576040517f08c379a000000000000000000000000000000000000000000000000000000000815260040161137290612d6e565b60405180910390fd5b60006113856112bf565b9050611395818787878787611c72565b60005b84518110156115925760008582815181106113dc577f4e487b7100000000000000000000000000000000000000000000000000000000600052603260045260246000fd5b602002602001015190506000858381518110611421577f4e487b7100000000000000000000000000000000000000000000000000000000600052603260045260246000fd5b60200260200101519050600080600084815260200190815260200160002060008b73ffffffffffffffffffffffffffffffffffffffff1673ffffffffffffffffffffffffffffffffffffffff168152602001908152602001600020549050818110156114c2576040517f08c379a00000000000000000000000000000000000000000000000000000000081526004016114b990612dae565b60405180910390fd5b81810360008085815260200190815260200160002060008c73ffffffffffffffffffffffffffffffffffffffff1673ffffffffffffffffffffffffffffffffffffffff168152602001908152602001600020819055508160008085815260200190815260200160002060008b73ffffffffffffffffffffffffffffffffffffffff1673ffffffffffffffffffffffffffffffffffffffff16815260200190815260200160002060008282546115779190613062565b925050819055505050508061158b906131f6565b9050611398565b508473ffffffffffffffffffffffffffffffffffffffff168673ffffffffffffffffffffffffffffffffffffffff168273ffffffffffffffffffffffffffffffffffffffff167f4a39dc06d4c0dbc64b70af90fd698a233a518aa5d07e595d983b8c0526c8f7fb8787604051611609929190612c1f565b60405180910390a461161f818787878787611c7a565b505050505050565b600073ffffffffffffffffffffffffffffffffffffffff168473ffffffffffffffffffffffffffffffffffffffff161415611697576040517f08c379a000000000000000000000000000000000000000000000000000000000815260040161168e90612e8e565b60405180910390fd5b60006116a16112bf565b90506116c2816000876116b388611e61565b6116bc88611e61565b87611c72565b8260008086815260200190815260200160002060008773ffffffffffffffffffffffffffffffffffffffff1673ffffffffffffffffffffffffffffffffffffffff16815260200190815260200160002060008282546117219190613062565b925050819055508473ffffffffffffffffffffffffffffffffffffffff16600073ffffffffffffffffffffffffffffffffffffffff168273ffffffffffffffffffffffffffffffffffffffff167fc3d58168c5ae7397731d063d5bbf3d657854427343f4c083240f7aacaa2d0f62878760405161179f929190612ec9565b60405180910390a46117b681600087878787611f27565b5050505050565b6000600360009054906101000a900473ffffffffffffffffffffffffffffffffffffffff16905081600360006101000a81548173ffffffffffffffffffffffffffffffffffffffff021916908373ffffffffffffffffffffffffffffffffffffffff1602179055508173ffffffffffffffffffffffffffffffffffffffff168173ffffffffffffffffffffffffffffffffffffffff167f8be0079c531659141344cd1fd0a4f28419497f9722a3daafe3b4186f6b6457e060405160405180910390a35050565b8173ffffffffffffffffffffffffffffffffffffffff168373ffffffffffffffffffffffffffffffffffffffff1614156118f2576040517f08c379a00000000000000000000000000000000000000000000000000000000081526004016118e990612e2e565b60405180910390fd5b80600160008573ffffffffffffffffffffffffffffffffffffffff1673ffffffffffffffffffffffffffffffffffffffff16815260200190815260200160002060008473ffffffffffffffffffffffffffffffffffffffff1673ffffffffffffffffffffffffffffffffffffffff16815260200190815260200160002060006101000a81548160ff0219169083151502179055508173ffffffffffffffffffffffffffffffffffffffff168373ffffffffffffffffffffffffffffffffffffffff167f17307eab39ab6107e8899845ad3d59bd9653f200f220920489ca2b5937696c31836040516119e39190612c56565b60405180910390a3505050565b600073ffffffffffffffffffffffffffffffffffffffff168473ffffffffffffffffffffffffffffffffffffffff161415611a60576040517f08c379a0000000000000000000000000000000000000000000000000000000008152600401611a5790612d6e565b60405180910390fd5b6000611a6a6112bf565b9050611a8a818787611a7b88611e61565b611a8488611e61565b87611c72565b600080600086815260200190815260200160002060008873ffffffffffffffffffffffffffffffffffffffff1673ffffffffffffffffffffffffffffffffffffffff16815260200190815260200160002054905083811015611b21576040517f08c379a0000000000000000000000000000000000000000000000000000000008152600401611b1890612dae565b60405180910390fd5b83810360008087815260200190815260200160002060008973ffffffffffffffffffffffffffffffffffffffff1673ffffffffffffffffffffffffffffffffffffffff168152602001908152602001600020819055508360008087815260200190815260200160002060008873ffffffffffffffffffffffffffffffffffffffff1673ffffffffffffffffffffffffffffffffffffffff1681526020019081526020016000206000828254611bd69190613062565b925050819055508573ffffffffffffffffffffffffffffffffffffffff168773ffffffffffffffffffffffffffffffffffffffff168373ffffffffffffffffffffffffffffffffffffffff167fc3d58168c5ae7397731d063d5bbf3d657854427343f4c083240f7aacaa2d0f628888604051611c53929190612ec9565b60405180910390a4611c69828888888888611f27565b50505050505050565b505050505050565b611c998473ffffffffffffffffffffffffffffffffffffffff1661210e565b15611e59578373ffffffffffffffffffffffffffffffffffffffff1663bc197c8187878686866040518663ffffffff1660e01b8152600401611cdf959493929190612b3b565b602060405180830381600087803b158015611cf957600080fd5b505af1925050508015611d2a57506040513d601f19601f82011682018060405250810190611d27919061266b565b60015b611dd057611d366132fb565b806308c379a01415611d935750611d4b6137df565b80611d565750611d95565b806040517f08c379a0000000000000000000000000000000000000000000000000000000008152600401611d8a9190612c8c565b60405180910390fd5b505b6040517f08c379a0000000000000000000000000000000000000000000000000000000008152600401611dc790612cae565b60405180910390fd5b63bc197c8160e01b7bffffffffffffffffffffffffffffffffffffffffffffffffffffffff1916817bffffffffffffffffffffffffffffffffffffffffffffffffffffffff191614611e57576040517f08c379a0000000000000000000000000000000000000000000000000000000008152600401611e4e90612cce565b60405180910390fd5b505b505050505050565b60606000600167ffffffffffffffff811115611ea6577f4e487b7100000000000000000000000000000000000000000000000000000000600052604160045260246000fd5b604051908082528060200260200182016040528015611ed45781602001602082028036833780820191505090505b5090508281600081518110611f12577f4e487b7100000000000000000000000000000000000000000000000000000000600052603260045260246000fd5b60200260200101818152505080915050919050565b611f468473ffffffffffffffffffffffffffffffffffffffff1661210e565b15612106578373ffffffffffffffffffffffffffffffffffffffff1663f23a6e6187878686866040518663ffffffff1660e01b8152600401611f8c959493929190612ba3565b602060405180830381600087803b158015611fa657600080fd5b505af1925050508015611fd757506040513d601f19601f82011682018060405250810190611fd4919061266b565b60015b61207d57611fe36132fb565b806308c379a014156120405750611ff86137df565b806120035750612042565b806040517f08c379a00000000000000000000000000000000000000000000000000000000081526004016120379190612c8c565b60405180910390fd5b505b6040517f08c379a000000000000000000000000000000000000000000000000000000000815260040161207490612cae565b60405180910390fd5b63f23a6e6160e01b7bffffffffffffffffffffffffffffffffffffffffffffffffffffffff1916817bffffffffffffffffffffffffffffffffffffffffffffffffffffffff191614612104576040517f08c379a00000000000000000000000000000000000000000000000000000000081526004016120fb90612cce565b60405180910390fd5b505b505050505050565b6000808273ffffffffffffffffffffffffffffffffffffffff163b119050919050565b600061214461213f84612f17565b612ef2565b9050808382526020820190508285602086028201111561216357600080fd5b60005b8581101561219357816121798882612285565b845260208401935060208301925050600181019050612166565b5050509392505050565b60006121b06121ab84612f43565b612ef2565b905080838252602082019050828560208602820111156121cf57600080fd5b60005b858110156121ff57816121e58882612396565b8452602084019350602083019250506001810190506121d2565b5050509392505050565b600061221c61221784612f6f565b612ef2565b90508281526020810184848401111561223457600080fd5b61223f848285613151565b509392505050565b600061225a61225584612fa0565b612ef2565b90508281526020810184848401111561227257600080fd5b61227d848285613151565b509392505050565b60008135905061229481613889565b92915050565b600082601f8301126122ab57600080fd5b81356122bb848260208601612131565b91505092915050565b600082601f8301126122d557600080fd5b81356122e584826020860161219d565b91505092915050565b6000813590506122fd816138a0565b92915050565b600081359050612312816138b7565b92915050565b600081519050612327816138b7565b92915050565b600082601f83011261233e57600080fd5b813561234e848260208601612209565b91505092915050565b600081359050612366816138ce565b92915050565b600082601f83011261237d57600080fd5b813561238d848260208601612247565b91505092915050565b6000813590506123a5816138de565b92915050565b6000602082840312156123bd57600080fd5b60006123cb84828501612285565b91505092915050565b600080604083850312156123e757600080fd5b60006123f585828601612285565b925050602061240685828601612285565b9150509250929050565b600080600080600060a0868803121561242857600080fd5b600061243688828901612285565b955050602061244788828901612285565b945050604086013567ffffffffffffffff81111561246457600080fd5b612470888289016122c4565b935050606086013567ffffffffffffffff81111561248d57600080fd5b612499888289016122c4565b925050608086013567ffffffffffffffff8111156124b657600080fd5b6124c28882890161232d565b9150509295509295909350565b600080600080600060a086880312156124e757600080fd5b60006124f588828901612285565b955050602061250688828901612285565b945050604061251788828901612396565b935050606061252888828901612396565b925050608086013567ffffffffffffffff81111561254557600080fd5b6125518882890161232d565b9150509295509295909350565b6000806040838503121561257157600080fd5b600061257f85828601612285565b9250506020612590858286016122ee565b9150509250929050565b600080604083850312156125ad57600080fd5b60006125bb85828601612285565b92505060206125cc85828601612396565b9150509250929050565b600080604083850312156125e957600080fd5b600083013567ffffffffffffffff81111561260357600080fd5b61260f8582860161229a565b925050602083013567ffffffffffffffff81111561262c57600080fd5b612638858286016122c4565b9150509250929050565b60006020828403121561265457600080fd5b600061266284828501612303565b91505092915050565b60006020828403121561267d57600080fd5b600061268b84828501612318565b91505092915050565b6000602082840312156126a657600080fd5b60006126b484828501612357565b91505092915050565b6000602082840312156126cf57600080fd5b600082013567ffffffffffffffff8111156126e957600080fd5b6126f58482850161236c565b91505092915050565b60006020828403121561271057600080fd5b600061271e84828501612396565b91505092915050565b60006127338383612aeb565b60208301905092915050565b612748816130b8565b82525050565b600061275982612ff6565b6127638185613024565b935061276e83612fd1565b8060005b8381101561279f5781516127868882612727565b975061279183613017565b925050600181019050612772565b5085935050505092915050565b6127b5816130ca565b82525050565b60006127c682613001565b6127d08185613035565b93506127e0818560208601613160565b6127e98161331d565b840191505092915050565b6000815461280181613193565b61280b8186613046565b9450600182166000811461282657600181146128375761286a565b60ff1983168652818601935061286a565b61284085612fe1565b60005b8381101561286257815481890152600182019150602081019050612843565b838801955050505b50505092915050565b61287c8161313f565b82525050565b600061288d8261300c565b6128978185613051565b93506128a7818560208601613160565b6128b08161331d565b840191505092915050565b60006128c8603483613051565b91506128d38261333b565b604082019050919050565b60006128eb602883613051565b91506128f68261338a565b604082019050919050565b600061290e602b83613051565b9150612919826133d9565b604082019050919050565b6000612931602683613051565b915061293c82613428565b604082019050919050565b6000612954602983613051565b915061295f82613477565b604082019050919050565b6000612977602683613051565b9150612982826134c6565b604082019050919050565b600061299a602583613051565b91506129a582613515565b604082019050919050565b60006129bd603283613051565b91506129c882613564565b604082019050919050565b60006129e0602a83613051565b91506129eb826135b3565b604082019050919050565b6000612a03602083613051565b9150612a0e82613602565b602082019050919050565b6000612a26601683613051565b9150612a318261362b565b602082019050919050565b6000612a49602883613051565b9150612a5482613654565b604082019050919050565b6000612a6c602983613051565b9150612a77826136a3565b604082019050919050565b6000612a8f602983613051565b9150612a9a826136f2565b604082019050919050565b6000612ab2602883613051565b9150612abd82613741565b604082019050919050565b6000612ad5602183613051565b9150612ae082613790565b604082019050919050565b612af481613135565b82525050565b612b0381613135565b82525050565b6000612b1582846127f4565b915081905092915050565b6000602082019050612b35600083018461273f565b92915050565b600060a082019050612b50600083018861273f565b612b5d602083018761273f565b8181036040830152612b6f818661274e565b90508181036060830152612b83818561274e565b90508181036080830152612b9781846127bb565b90509695505050505050565b600060a082019050612bb8600083018861273f565b612bc5602083018761273f565b612bd26040830186612afa565b612bdf6060830185612afa565b8181036080830152612bf181846127bb565b90509695505050505050565b60006020820190508181036000830152612c17818461274e565b905092915050565b60006040820190508181036000830152612c39818561274e565b90508181036020830152612c4d818461274e565b90509392505050565b6000602082019050612c6b60008301846127ac565b92915050565b6000602082019050612c866000830184612873565b92915050565b60006020820190508181036000830152612ca68184612882565b905092915050565b60006020820190508181036000830152612cc7816128bb565b9050919050565b60006020820190508181036000830152612ce7816128de565b9050919050565b60006020820190508181036000830152612d0781612901565b9050919050565b60006020820190508181036000830152612d2781612924565b9050919050565b60006020820190508181036000830152612d4781612947565b9050919050565b60006020820190508181036000830152612d678161296a565b9050919050565b60006020820190508181036000830152612d878161298d565b9050919050565b60006020820190508181036000830152612da7816129b0565b9050919050565b60006020820190508181036000830152612dc7816129d3565b9050919050565b60006020820190508181036000830152612de7816129f6565b9050919050565b60006020820190508181036000830152612e0781612a19565b9050919050565b60006020820190508181036000830152612e2781612a3c565b9050919050565b60006020820190508181036000830152612e4781612a5f565b9050919050565b60006020820190508181036000830152612e6781612a82565b9050919050565b60006020820190508181036000830152612e8781612aa5565b9050919050565b60006020820190508181036000830152612ea781612ac8565b9050919050565b6000602082019050612ec36000830184612afa565b92915050565b6000604082019050612ede6000830185612afa565b612eeb6020830184612afa565b9392505050565b6000612efc612f0d565b9050612f0882826131c5565b919050565b6000604051905090565b600067ffffffffffffffff821115612f3257612f316132cc565b5b602082029050602081019050919050565b600067ffffffffffffffff821115612f5e57612f5d6132cc565b5b602082029050602081019050919050565b600067ffffffffffffffff821115612f8a57612f896132cc565b5b612f938261331d565b9050602081019050919050565b600067ffffffffffffffff821115612fbb57612fba6132cc565b5b612fc48261331d565b9050602081019050919050565b6000819050602082019050919050565b60008190508160005260206000209050919050565b600081519050919050565b600081519050919050565b600081519050919050565b6000602082019050919050565b600082825260208201905092915050565b600082825260208201905092915050565b600081905092915050565b600082825260208201905092915050565b600061306d82613135565b915061307883613135565b9250827fffffffffffffffffffffffffffffffffffffffffffffffffffffffffffffffff038211156130ad576130ac61323f565b5b828201905092915050565b60006130c382613115565b9050919050565b60008115159050919050565b60007fffffffff0000000000000000000000000000000000000000000000000000000082169050919050565b600081905061311082613875565b919050565b600073ffffffffffffffffffffffffffffffffffffffff82169050919050565b6000819050919050565b600061314a82613102565b9050919050565b82818337600083830152505050565b60005b8381101561317e578082015181840152602081019050613163565b8381111561318d576000848401525b50505050565b600060028204905060018216806131ab57607f821691505b602082108114156131bf576131be61329d565b5b50919050565b6131ce8261331d565b810181811067ffffffffffffffff821117156131ed576131ec6132cc565b5b80604052505050565b600061320182613135565b91507fffffffffffffffffffffffffffffffffffffffffffffffffffffffffffffffff8214156132345761323361323f565b5b600182019050919050565b7f4e487b7100000000000000000000000000000000000000000000000000000000600052601160045260246000fd5b7f4e487b7100000000000000000000000000000000000000000000000000000000600052602160045260246000fd5b7f4e487b7100000000000000000000000000000000000000000000000000000000600052602260045260246000fd5b7f4e487b7100000000000000000000000000000000000000000000000000000000600052604160045260246000fd5b600060033d111561331a5760046000803e61331760005161332e565b90505b90565b6000601f19601f8301169050919050565b60008160e01c9050919050565b7f455243313135353a207472616e7366657220746f206e6f6e204552433131353560008201527f526563656976657220696d706c656d656e746572000000000000000000000000602082015250565b7f455243313135353a204552433131353552656365697665722072656a6563746560008201527f6420746f6b656e73000000000000000000000000000000000000000000000000602082015250565b7f455243313135353a2062616c616e636520717565727920666f7220746865207a60008201527f65726f2061646472657373000000000000000000000000000000000000000000602082015250565b7f4f776e61626c653a206e6577206f776e657220697320746865207a65726f206160008201527f6464726573730000000000000000000000000000000000000000000000000000602082015250565b7f455243313135353a2063616c6c6572206973206e6f74206f776e6572206e6f7260008201527f20617070726f7665640000000000000000000000000000000000000000000000602082015250565b7f41727469666163743a20496e76616c696420494420666f72207468697320417260008201527f7469666163740000000000000000000000000000000000000000000000000000602082015250565b7f455243313135353a207472616e7366657220746f20746865207a65726f20616460008201527f6472657373000000000000000000000000000000000000000000000000000000602082015250565b7f455243313135353a207472616e736665722063616c6c6572206973206e6f742060008201527f6f776e6572206e6f7220617070726f7665640000000000000000000000000000602082015250565b7f455243313135353a20696e73756666696369656e742062616c616e636520666f60008201527f72207472616e7366657200000000000000000000000000000000000000000000602082015250565b7f4f776e61626c653a2063616c6c6572206973206e6f7420746865206f776e6572600082015250565b7f41727469666163743a204f6e6c79204d61726b65745800000000000000000000600082015250565b7f41727469666163743a20496e76616c6964204e414d4520666f7220746869732060008201527f4172746966616374000000000000000000000000000000000000000000000000602082015250565b7f455243313135353a2073657474696e6720617070726f76616c2073746174757360008201527f20666f722073656c660000000000000000000000000000000000000000000000602082015250565b7f455243313135353a206163636f756e747320616e6420696473206c656e67746860008201527f206d69736d617463680000000000000000000000000000000000000000000000602082015250565b7f455243313135353a2069647320616e6420616d6f756e7473206c656e6774682060008201527f6d69736d61746368000000000000000000000000000000000000000000000000602082015250565b7f455243313135353a206d696e7420746f20746865207a65726f2061646472657360008201527f7300000000000000000000000000000000000000000000000000000000000000602082015250565b600060443d10156137ef57613872565b6137f7612f0d565b60043d036004823e80513d602482011167ffffffffffffffff8211171561381f575050613872565b808201805167ffffffffffffffff81111561383d5750505050613872565b80602083010160043d03850181111561385a575050505050613872565b613869826020018501866131c5565b82955050505050505b90565b600681106138865761388561326e565b5b50565b613892816130b8565b811461389d57600080fd5b50565b6138a9816130ca565b81146138b457600080fd5b50565b6138c0816130d6565b81146138cb57600080fd5b50565b600681106138db57600080fd5b50565b6138e781613135565b81146138f257600080fd5b5056fea2646970667358221220c0418c2df6c1ac08cb33735d8786cee3c1a79000528e46e90a4c34c1cd7efe3f64736f6c63430008040033a2646970667358221220355893d14f32b896913bdf601531b2c9740a90aceab9c0af25bee5e725415c9b64736f6c6343000804003368747470733a2f2f676174657761792e70696e6174612e636c6f75642f697066732f",
  "immutableReferences": {},
  "source": "// SPDX-License-Identifier: GPL-3.0\r\npragma solidity 0.8.4;\r\nimport \"@openzeppelin/contracts/access/Ownable.sol\";\r\nimport \"./Artifact.sol\";\r\nimport \"./ICertification.sol\";\r\nimport \"./IArtifact.sol\";\r\n\r\n\r\ncontract ArtiFactory is Ownable{\r\n\r\n    address private MARKETX;\r\n    address private CERTIFICATION_REGISRTY;\r\n    \r\n    uint private AMOUNT_LIMIT = 1;//maximum amount of Artifacts that can be created in one transaction \r\n    string internal baseMetadataURI = \"https://gateway.pinata.cloud/ipfs/\";\r\n\r\n    address[] private TOKENS; //an array that contains different ERC1155 TOKENS deployed\r\n    uint public N_TOKENS = 0; \r\n    mapping(address => uint) private addressToIndex;\r\n\r\n    event ArtifactCreated(address owner, address tokenContract); //emitted when ERC1155 token is deployed\r\n\r\n    constructor(address certificationRegistry, address marketplace) public {\r\n        MARKETX = marketplace;\r\n        CERTIFICATION_REGISRTY = certificationRegistry;\r\n    }\r\n\r\n    modifier onlyWhitelisted(){\r\n        require(ICertification(CERTIFICATION_REGISRTY).isWhitelisted(msg.sender),\"ArtiFactory: This address is not ACM\");\r\n        _;\r\n    }\r\n\r\n    function setMarketPlace(address _marketplace) public onlyOwner{\r\n        MARKETX = _marketplace;\r\n    }\r\n\r\n    function setAmountLimit(uint _limit) public onlyOwner{\r\n        AMOUNT_LIMIT = _limit;\r\n    }\r\n\r\n    function setBaseMetaDataURI(string memory _baseMetadataURI) public onlyOwner {\r\n        baseMetadataURI = _baseMetadataURI;\r\n    }\r\n\r\n    function getBaseMetaDataURI() public view returns(string memory) {\r\n        return baseMetadataURI;\r\n    }\r\n \r\n    function deployArtifact(string memory _contractName, string memory _tokenURI, uint _price) public onlyWhitelisted returns (address) {\r\n        Artifact t = new Artifact(_tokenURI, _contractName, TOKENS.length, AMOUNT_LIMIT, _price, msg.sender, MARKETX);\r\n        TOKENS.push(address(t));\r\n        N_TOKENS++;\r\n        addressToIndex[address(t)] = TOKENS.length - 1;\r\n        emit ArtifactCreated(msg.sender,address(t));\r\n        return address(t);\r\n    }\r\n\r\n    function getIndexByAddress(address _artifactAddress) public view returns(uint) {\r\n        return addressToIndex[_artifactAddress];\r\n    }\r\n\r\n    function getAddressByIndex(uint id) public view returns(address) {\r\n        return TOKENS[id];\r\n    }\r\n\r\n    function getURIByIndex(uint id) public view returns(string memory){\r\n        return IArtifact(getAddressByIndex(id)).uri(id);\r\n    }\r\n\r\n}",
  "sourcePath": "D:\\ArtifacX\\Codebase\\contracts\\ArtiFactory.sol",
  "compiler": {
    "name": "solc",
    "version": "0.8.4+commit.c7e474f2.Emscripten.clang"
  },
  "schemaVersion": "3.4.7",
  "updatedAt": "2022-04-28T21:02:05.110Z",
  "networkType": "ethereum",
  "devdoc": {
    "kind": "dev",
    "methods": {
      "owner()": {
        "details": "Returns the address of the current owner."
      },
      "renounceOwnership()": {
        "details": "Leaves the contract without owner. It will not be possible to call `onlyOwner` functions anymore. Can only be called by the current owner. NOTE: Renouncing ownership will leave the contract without an owner, thereby removing any functionality that is only available to the owner."
      },
      "transferOwnership(address)": {
        "details": "Transfers ownership of the contract to a new account (`newOwner`). Can only be called by the current owner."
      }
    },
    "version": 1
  },
  "userdoc": {
    "kind": "user",
    "methods": {},
    "version": 1
  }
}