{
  "contractName": "ArtiFactory",
  "abi": [
    {
      "inputs": [
        {
          "internalType": "address",
          "name": "certificationRegistry",
          "type": "address"
        },
        {
          "internalType": "address",
          "name": "marketplace",
          "type": "address"
        }
      ],
      "stateMutability": "nonpayable",
      "type": "constructor"
    },
    {
      "anonymous": false,
      "inputs": [
        {
          "indexed": false,
          "internalType": "address",
          "name": "owner",
          "type": "address"
        },
        {
          "indexed": false,
          "internalType": "address",
          "name": "tokenContract",
          "type": "address"
        }
      ],
      "name": "ArtifactCreated",
      "type": "event"
    },
    {
      "anonymous": false,
      "inputs": [
        {
          "indexed": true,
          "internalType": "address",
          "name": "previousOwner",
          "type": "address"
        },
        {
          "indexed": true,
          "internalType": "address",
          "name": "newOwner",
          "type": "address"
        }
      ],
      "name": "OwnershipTransferred",
      "type": "event"
    },
    {
      "inputs": [],
      "name": "N_TOKENS",
      "outputs": [
        {
          "internalType": "uint256",
          "name": "",
          "type": "uint256"
        }
      ],
      "stateMutability": "view",
      "type": "function",
      "constant": true
    },
    {
      "inputs": [
        {
          "internalType": "uint256",
          "name": "",
          "type": "uint256"
        }
      ],
      "name": "TOKENS",
      "outputs": [
        {
          "internalType": "address",
          "name": "",
          "type": "address"
        }
      ],
      "stateMutability": "view",
      "type": "function",
      "constant": true
    },
    {
      "inputs": [
        {
          "internalType": "uint256",
          "name": "",
          "type": "uint256"
        }
      ],
      "name": "URIs",
      "outputs": [
        {
          "internalType": "string",
          "name": "",
          "type": "string"
        }
      ],
      "stateMutability": "view",
      "type": "function",
      "constant": true
    },
    {
      "inputs": [
        {
          "internalType": "address",
          "name": "",
          "type": "address"
        }
      ],
      "name": "addressToIndex",
      "outputs": [
        {
          "internalType": "uint256",
          "name": "",
          "type": "uint256"
        }
      ],
      "stateMutability": "view",
      "type": "function",
      "constant": true
    },
    {
      "inputs": [],
      "name": "owner",
      "outputs": [
        {
          "internalType": "address",
          "name": "",
          "type": "address"
        }
      ],
      "stateMutability": "view",
      "type": "function",
      "constant": true
    },
    {
      "inputs": [],
      "name": "renounceOwnership",
      "outputs": [],
      "stateMutability": "nonpayable",
      "type": "function"
    },
    {
      "inputs": [
        {
          "internalType": "address",
          "name": "newOwner",
          "type": "address"
        }
      ],
      "name": "transferOwnership",
      "outputs": [],
      "stateMutability": "nonpayable",
      "type": "function"
    },
    {
      "inputs": [
        {
          "internalType": "address",
          "name": "_marketplace",
          "type": "address"
        }
      ],
      "name": "setMarketPlace",
      "outputs": [],
      "stateMutability": "nonpayable",
      "type": "function"
    },
    {
      "inputs": [
        {
          "internalType": "uint256",
          "name": "_limit",
          "type": "uint256"
        }
      ],
      "name": "setAmountLimit",
      "outputs": [],
      "stateMutability": "nonpayable",
      "type": "function"
    },
    {
      "inputs": [
        {
          "internalType": "string",
          "name": "_baseMetadataURI",
          "type": "string"
        }
      ],
      "name": "setBaseMetaDataURI",
      "outputs": [],
      "stateMutability": "nonpayable",
      "type": "function"
    },
    {
      "inputs": [],
      "name": "getBaseMetaDataURI",
      "outputs": [
        {
          "internalType": "string",
          "name": "",
          "type": "string"
        }
      ],
      "stateMutability": "view",
      "type": "function",
      "constant": true
    },
    {
      "inputs": [
        {
          "internalType": "string",
          "name": "_contractName",
          "type": "string"
        },
        {
          "internalType": "string",
          "name": "_tokenURI",
          "type": "string"
        },
        {
          "internalType": "uint256",
          "name": "_price",
          "type": "uint256"
        }
      ],
      "name": "deployArtifact",
      "outputs": [
        {
          "internalType": "address",
          "name": "",
          "type": "address"
        }
      ],
      "stateMutability": "nonpayable",
      "type": "function"
    },
    {
      "inputs": [],
      "name": "getAddresses",
      "outputs": [
        {
          "internalType": "address[]",
          "name": "",
          "type": "address[]"
        }
      ],
      "stateMutability": "view",
      "type": "function",
      "constant": true
    },
    {
      "inputs": [],
      "name": "getURIs",
      "outputs": [
        {
          "internalType": "string[]",
          "name": "",
          "type": "string[]"
        }
      ],
      "stateMutability": "view",
      "type": "function",
      "constant": true
    }
  ],
  "bytecode": "0x6080604052600160035560405180606001604052806022815260200162005ed560229139600490805190602001906200003a929190620001e9565b5060006006553480156200004d57600080fd5b5060405162005ef738038062005ef78339818101604052810190620000739190620002b0565b62000093620000876200011d60201b60201c565b6200012560201b60201c565b80600160006101000a81548173ffffffffffffffffffffffffffffffffffffffff021916908373ffffffffffffffffffffffffffffffffffffffff16021790555081600260006101000a81548173ffffffffffffffffffffffffffffffffffffffff021916908373ffffffffffffffffffffffffffffffffffffffff1602179055505050620003a4565b600033905090565b60008060009054906101000a900473ffffffffffffffffffffffffffffffffffffffff169050816000806101000a81548173ffffffffffffffffffffffffffffffffffffffff021916908373ffffffffffffffffffffffffffffffffffffffff1602179055508173ffffffffffffffffffffffffffffffffffffffff168173ffffffffffffffffffffffffffffffffffffffff167f8be0079c531659141344cd1fd0a4f28419497f9722a3daafe3b4186f6b6457e060405160405180910390a35050565b828054620001f79062000325565b90600052602060002090601f0160209004810192826200021b576000855562000267565b82601f106200023657805160ff191683800117855562000267565b8280016001018555821562000267579182015b828111156200026657825182559160200191906001019062000249565b5b5090506200027691906200027a565b5090565b5b80821115620002955760008160009055506001016200027b565b5090565b600081519050620002aa816200038a565b92915050565b60008060408385031215620002c457600080fd5b6000620002d48582860162000299565b9250506020620002e78582860162000299565b9150509250929050565b6000620002fe8262000305565b9050919050565b600073ffffffffffffffffffffffffffffffffffffffff82169050919050565b600060028204905060018216806200033e57607f821691505b602082108114156200035557620003546200035b565b5b50919050565b7f4e487b7100000000000000000000000000000000000000000000000000000000600052602260045260246000fd5b6200039581620002f1565b8114620003a157600080fd5b50565b615b2180620003b46000396000f3fe60806040523480156200001157600080fd5b5060043610620001005760003560e01c80638da5cb5b1162000099578063cc8224fb116200006f578063cc8224fb146200027b578063f2fde38b146200029b578063f34e232114620002bb578063f667e0aa14620002dd5762000100565b80638da5cb5b1462000201578063953f97aa1462000223578063a39fac1214620002595762000100565b80633f045b4011620000db5780633f045b40146200017d57806366ecccc3146200019d578063715018a614620001d35780637fdc6ed514620001df5762000100565b806328c5440f146200010557806330568a8d1462000127578063319790411462000147575b600080fd5b6200010f62000313565b6040516200011e9190620012e8565b60405180910390f35b6200014560048036038101906200013f919062000ee4565b620003f6565b005b6200016560048036038101906200015f919062001009565b620004bd565b6040516200017491906200127a565b60405180910390f35b6200019b600480360381019062000195919062001009565b620004fd565b005b620001bb6004803603810190620001b5919062000f81565b6200058a565b604051620001ca91906200127a565b60405180910390f35b620001dd62000849565b005b620001e9620008da565b604051620001f8919062001421565b60405180910390f35b6200020b620008e0565b6040516200021a91906200127a565b60405180910390f35b6200024160048036038101906200023b919062001009565b62000909565b6040516200025091906200130c565b60405180910390f35b62000263620009be565b604051620002729190620012c4565b60405180910390f35b62000299600480360381019062000293919062000f3c565b62000a4e565b005b620002b96004803603810190620002b3919062000ee4565b62000aed565b005b620002c562000bf1565b604051620002d491906200130c565b60405180910390f35b620002fb6004803603810190620002f5919062000ee4565b62000c8b565b6040516200030a919062001421565b60405180910390f35b60606008805480602002602001604051908101604052809291908181526020016000905b82821015620003ed578382906000526020600020018054620003599062001606565b80601f0160208091040260200160405190810160405280929190818152602001828054620003879062001606565b8015620003d85780601f10620003ac57610100808354040283529160200191620003d8565b820191906000526020600020905b815481529060010190602001808311620003ba57829003601f168201915b50505050508152602001906001019062000337565b50505050905090565b6200040062000ca3565b73ffffffffffffffffffffffffffffffffffffffff1662000420620008e0565b73ffffffffffffffffffffffffffffffffffffffff161462000479576040517f08c379a00000000000000000000000000000000000000000000000000000000081526004016200047090620013ff565b60405180910390fd5b80600160006101000a81548173ffffffffffffffffffffffffffffffffffffffff021916908373ffffffffffffffffffffffffffffffffffffffff16021790555050565b60058181548110620004ce57600080fd5b906000526020600020016000915054906101000a900473ffffffffffffffffffffffffffffffffffffffff1681565b6200050762000ca3565b73ffffffffffffffffffffffffffffffffffffffff1662000527620008e0565b73ffffffffffffffffffffffffffffffffffffffff161462000580576040517f08c379a00000000000000000000000000000000000000000000000000000000081526004016200057790620013ff565b60405180910390fd5b8060038190555050565b6000600260009054906101000a900473ffffffffffffffffffffffffffffffffffffffff1673ffffffffffffffffffffffffffffffffffffffff16633af32abf336040518263ffffffff1660e01b8152600401620005e991906200127a565b60206040518083038186803b1580156200060257600080fd5b505afa15801562000617573d6000803e3d6000fd5b505050506040513d601f19601f820116820180604052508101906200063d919062000f10565b6200067f576040517f08c379a00000000000000000000000000000000000000000000000000000000081526004016200067690620013dd565b60405180910390fd5b600083856005805490506003548633600160009054906101000a900473ffffffffffffffffffffffffffffffffffffffff16604051620006bf9062000d6f565b620006d1979695949392919062001330565b604051809103906000f080158015620006ee573d6000803e3d6000fd5b5090506005819080600181540180825580915050600190039060005260206000200160009091909190916101000a81548173ffffffffffffffffffffffffffffffffffffffff021916908373ffffffffffffffffffffffffffffffffffffffff1602179055506008849080600181540180825580915050600190039060005260206000200160009091909190915090805190602001906200079192919062000d7d565b5060066000815480929190620007a79062001672565b91905055506001600580549050620007c091906200153c565b600760008373ffffffffffffffffffffffffffffffffffffffff1673ffffffffffffffffffffffffffffffffffffffff168152602001908152602001600020819055507f2da1e2511762f4b34723c383327640a4519f3c462bb6992dab5172708da08bc533826040516200083692919062001297565b60405180910390a1809150509392505050565b6200085362000ca3565b73ffffffffffffffffffffffffffffffffffffffff1662000873620008e0565b73ffffffffffffffffffffffffffffffffffffffff1614620008cc576040517f08c379a0000000000000000000000000000000000000000000000000000000008152600401620008c390620013ff565b60405180910390fd5b620008d8600062000cab565b565b60065481565b60008060009054906101000a900473ffffffffffffffffffffffffffffffffffffffff16905090565b600881815481106200091a57600080fd5b906000526020600020016000915090508054620009379062001606565b80601f0160208091040260200160405190810160405280929190818152602001828054620009659062001606565b8015620009b65780601f106200098a57610100808354040283529160200191620009b6565b820191906000526020600020905b8154815290600101906020018083116200099857829003601f168201915b505050505081565b6060600580548060200260200160405190810160405280929190818152602001828054801562000a4457602002820191906000526020600020905b8160009054906101000a900473ffffffffffffffffffffffffffffffffffffffff1673ffffffffffffffffffffffffffffffffffffffff1681526020019060010190808311620009f9575b5050505050905090565b62000a5862000ca3565b73ffffffffffffffffffffffffffffffffffffffff1662000a78620008e0565b73ffffffffffffffffffffffffffffffffffffffff161462000ad1576040517f08c379a000000000000000000000000000000000000000000000000000000000815260040162000ac890620013ff565b60405180910390fd5b806004908051906020019062000ae992919062000d7d565b5050565b62000af762000ca3565b73ffffffffffffffffffffffffffffffffffffffff1662000b17620008e0565b73ffffffffffffffffffffffffffffffffffffffff161462000b70576040517f08c379a000000000000000000000000000000000000000000000000000000000815260040162000b6790620013ff565b60405180910390fd5b600073ffffffffffffffffffffffffffffffffffffffff168173ffffffffffffffffffffffffffffffffffffffff16141562000be3576040517f08c379a000000000000000000000000000000000000000000000000000000000815260040162000bda90620013bb565b60405180910390fd5b62000bee8162000cab565b50565b60606004805462000c029062001606565b80601f016020809104026020016040519081016040528092919081815260200182805462000c309062001606565b801562000c815780601f1062000c555761010080835404028352916020019162000c81565b820191906000526020600020905b81548152906001019060200180831162000c6357829003601f168201915b5050505050905090565b60076020528060005260406000206000915090505481565b600033905090565b60008060009054906101000a900473ffffffffffffffffffffffffffffffffffffffff169050816000806101000a81548173ffffffffffffffffffffffffffffffffffffffff021916908373ffffffffffffffffffffffffffffffffffffffff1602179055508173ffffffffffffffffffffffffffffffffffffffff168173ffffffffffffffffffffffffffffffffffffffff167f8be0079c531659141344cd1fd0a4f28419497f9722a3daafe3b4186f6b6457e060405160405180910390a35050565b614278806200187483390190565b82805462000d8b9062001606565b90600052602060002090601f01602090048101928262000daf576000855562000dfb565b82601f1062000dca57805160ff191683800117855562000dfb565b8280016001018555821562000dfb579182015b8281111562000dfa57825182559160200191906001019062000ddd565b5b50905062000e0a919062000e0e565b5090565b5b8082111562000e2957600081600090555060010162000e0f565b5090565b600062000e4462000e3e8462001467565b6200143e565b90508281526020810184848401111562000e5d57600080fd5b62000e6a848285620015c1565b509392505050565b60008135905062000e838162001825565b92915050565b60008151905062000e9a816200183f565b92915050565b600082601f83011262000eb257600080fd5b813562000ec484826020860162000e2d565b91505092915050565b60008135905062000ede8162001859565b92915050565b60006020828403121562000ef757600080fd5b600062000f078482850162000e72565b91505092915050565b60006020828403121562000f2357600080fd5b600062000f338482850162000e89565b91505092915050565b60006020828403121562000f4f57600080fd5b600082013567ffffffffffffffff81111562000f6a57600080fd5b62000f788482850162000ea0565b91505092915050565b60008060006060848603121562000f9757600080fd5b600084013567ffffffffffffffff81111562000fb257600080fd5b62000fc08682870162000ea0565b935050602084013567ffffffffffffffff81111562000fde57600080fd5b62000fec8682870162000ea0565b925050604062000fff8682870162000ecd565b9150509250925092565b6000602082840312156200101c57600080fd5b60006200102c8482850162000ecd565b91505092915050565b600062001043838362001065565b60208301905092915050565b60006200105d838362001172565b905092915050565b620010708162001577565b82525050565b620010818162001577565b82525050565b60006200109482620014bd565b620010a08185620014f8565b9350620010ad836200149d565b8060005b83811015620010e4578151620010c8888262001035565b9750620010d583620014de565b925050600181019050620010b1565b5085935050505092915050565b6000620010fe82620014c8565b6200110a818562001509565b9350836020820285016200111e85620014ad565b8060005b858110156200116057848403895281516200113e85826200104f565b94506200114b83620014eb565b925060208a0199505060018101905062001122565b50829750879550505050505092915050565b60006200117f82620014d3565b6200118b81856200151a565b93506200119d818560208601620015d0565b620011a8816200174d565b840191505092915050565b6000620011c082620014d3565b620011cc81856200152b565b9350620011de818560208601620015d0565b620011e9816200174d565b840191505092915050565b6000620012036026836200152b565b915062001210826200175e565b604082019050919050565b60006200122a6024836200152b565b91506200123782620017ad565b604082019050919050565b6000620012516020836200152b565b91506200125e82620017fc565b602082019050919050565b6200127481620015b7565b82525050565b600060208201905062001291600083018462001076565b92915050565b6000604082019050620012ae600083018562001076565b620012bd602083018462001076565b9392505050565b60006020820190508181036000830152620012e0818462001087565b905092915050565b60006020820190508181036000830152620013048184620010f1565b905092915050565b60006020820190508181036000830152620013288184620011b3565b905092915050565b600060e08201905081810360008301526200134c818a620011b3565b90508181036020830152620013628189620011b3565b905062001373604083018862001269565b62001382606083018762001269565b62001391608083018662001269565b620013a060a083018562001076565b620013af60c083018462001076565b98975050505050505050565b60006020820190508181036000830152620013d681620011f4565b9050919050565b60006020820190508181036000830152620013f8816200121b565b9050919050565b600060208201905081810360008301526200141a8162001242565b9050919050565b600060208201905062001438600083018462001269565b92915050565b60006200144a6200145d565b90506200145882826200163c565b919050565b6000604051905090565b600067ffffffffffffffff8211156200148557620014846200171e565b5b62001490826200174d565b9050602081019050919050565b6000819050602082019050919050565b6000819050602082019050919050565b600081519050919050565b600081519050919050565b600081519050919050565b6000602082019050919050565b6000602082019050919050565b600082825260208201905092915050565b600082825260208201905092915050565b600082825260208201905092915050565b600082825260208201905092915050565b60006200154982620015b7565b91506200155683620015b7565b9250828210156200156c576200156b620016c0565b5b828203905092915050565b6000620015848262001597565b9050919050565b60008115159050919050565b600073ffffffffffffffffffffffffffffffffffffffff82169050919050565b6000819050919050565b82818337600083830152505050565b60005b83811015620015f0578082015181840152602081019050620015d3565b8381111562001600576000848401525b50505050565b600060028204905060018216806200161f57607f821691505b60208210811415620016365762001635620016ef565b5b50919050565b62001647826200174d565b810181811067ffffffffffffffff821117156200166957620016686200171e565b5b80604052505050565b60006200167f82620015b7565b91507fffffffffffffffffffffffffffffffffffffffffffffffffffffffffffffffff821415620016b557620016b4620016c0565b5b600182019050919050565b7f4e487b7100000000000000000000000000000000000000000000000000000000600052601160045260246000fd5b7f4e487b7100000000000000000000000000000000000000000000000000000000600052602260045260246000fd5b7f4e487b7100000000000000000000000000000000000000000000000000000000600052604160045260246000fd5b6000601f19601f8301169050919050565b7f4f776e61626c653a206e6577206f776e657220697320746865207a65726f206160008201527f6464726573730000000000000000000000000000000000000000000000000000602082015250565b7f41727469466163746f72793a20546869732061646472657373206973206e6f7460008201527f2041434d00000000000000000000000000000000000000000000000000000000602082015250565b7f4f776e61626c653a2063616c6c6572206973206e6f7420746865206f776e6572600082015250565b620018308162001577565b81146200183c57600080fd5b50565b6200184a816200158b565b81146200185657600080fd5b50565b6200186481620015b7565b81146200187057600080fd5b5056fe60806040526000600b553480156200001657600080fd5b50604051620042783803806200427883398181016040528101906200003c91906200059f565b866200004e81620001cd60201b60201c565b506200006f62000063620001e960201b60201c565b620001f160201b60201c565b8560049080519060200190620000879291906200044f565b5080600960006101000a81548173ffffffffffffffffffffffffffffffffffffffff021916908373ffffffffffffffffffffffffffffffffffffffff160217905550836008819055508260058190555084600781905550600a829080600181540180825580915050600190039060005260206000200160009091909190916101000a81548173ffffffffffffffffffffffffffffffffffffffff021916908373ffffffffffffffffffffffffffffffffffffffff160217905550600b6000815480929190620001569062000851565b91905055506000600660006101000a81548160ff02191690836004811115620001a8577f4e487b7100000000000000000000000000000000000000000000000000000000600052602160045260246000fd5b0217905550620001c0816001620002b760201b60201c565b50505050505050620009c0565b8060029080519060200190620001e59291906200044f565b5050565b600033905090565b6000600360009054906101000a900473ffffffffffffffffffffffffffffffffffffffff16905081600360006101000a81548173ffffffffffffffffffffffffffffffffffffffff021916908373ffffffffffffffffffffffffffffffffffffffff1602179055508173ffffffffffffffffffffffffffffffffffffffff168173ffffffffffffffffffffffffffffffffffffffff167f8be0079c531659141344cd1fd0a4f28419497f9722a3daafe3b4186f6b6457e060405160405180910390a35050565b620002d9620002cb620001e960201b60201c565b8383620002dd60201b60201c565b5050565b8173ffffffffffffffffffffffffffffffffffffffff168373ffffffffffffffffffffffffffffffffffffffff1614156200034f576040517f08c379a00000000000000000000000000000000000000000000000000000000081526004016200034690620006d3565b60405180910390fd5b80600160008573ffffffffffffffffffffffffffffffffffffffff1673ffffffffffffffffffffffffffffffffffffffff16815260200190815260200160002060008473ffffffffffffffffffffffffffffffffffffffff1673ffffffffffffffffffffffffffffffffffffffff16815260200190815260200160002060006101000a81548160ff0219169083151502179055508173ffffffffffffffffffffffffffffffffffffffff168373ffffffffffffffffffffffffffffffffffffffff167f17307eab39ab6107e8899845ad3d59bd9653f200f220920489ca2b5937696c3183604051620004429190620006b6565b60405180910390a3505050565b8280546200045d90620007e5565b90600052602060002090601f016020900481019282620004815760008555620004cd565b82601f106200049c57805160ff1916838001178555620004cd565b82800160010185558215620004cd579182015b82811115620004cc578251825591602001919060010190620004af565b5b509050620004dc9190620004e0565b5090565b5b80821115620004fb576000816000905550600101620004e1565b5090565b60006200051662000510846200071e565b620006f5565b9050828152602081018484840111156200052f57600080fd5b6200053c848285620007af565b509392505050565b60008151905062000555816200098c565b92915050565b600082601f8301126200056d57600080fd5b81516200057f848260208601620004ff565b91505092915050565b6000815190506200059981620009a6565b92915050565b600080600080600080600060e0888a031215620005bb57600080fd5b600088015167ffffffffffffffff811115620005d657600080fd5b620005e48a828b016200055b565b975050602088015167ffffffffffffffff8111156200060257600080fd5b620006108a828b016200055b565b9650506040620006238a828b0162000588565b9550506060620006368a828b0162000588565b9450506080620006498a828b0162000588565b93505060a06200065c8a828b0162000544565b92505060c06200066f8a828b0162000544565b91505092959891949750929550565b620006898162000779565b82525050565b60006200069e60298362000754565b9150620006ab826200093d565b604082019050919050565b6000602082019050620006cd60008301846200067e565b92915050565b60006020820190508181036000830152620006ee816200068f565b9050919050565b60006200070162000714565b90506200070f82826200081b565b919050565b6000604051905090565b600067ffffffffffffffff8211156200073c576200073b620008fd565b5b62000747826200092c565b9050602081019050919050565b600082825260208201905092915050565b6000620007728262000785565b9050919050565b60008115159050919050565b600073ffffffffffffffffffffffffffffffffffffffff82169050919050565b6000819050919050565b60005b83811015620007cf578082015181840152602081019050620007b2565b83811115620007df576000848401525b50505050565b60006002820490506001821680620007fe57607f821691505b60208210811415620008155762000814620008ce565b5b50919050565b62000826826200092c565b810181811067ffffffffffffffff82111715620008485762000847620008fd565b5b80604052505050565b60006200085e82620007a5565b91507fffffffffffffffffffffffffffffffffffffffffffffffffffffffffffffffff8214156200089457620008936200089f565b5b600182019050919050565b7f4e487b7100000000000000000000000000000000000000000000000000000000600052601160045260246000fd5b7f4e487b7100000000000000000000000000000000000000000000000000000000600052602260045260246000fd5b7f4e487b7100000000000000000000000000000000000000000000000000000000600052604160045260246000fd5b6000601f19601f8301169050919050565b7f455243313135353a2073657474696e6720617070726f76616c2073746174757360008201527f20666f722073656c660000000000000000000000000000000000000000000000602082015250565b620009978162000765565b8114620009a357600080fd5b50565b620009b181620007a5565b8114620009bd57600080fd5b50565b6138a880620009d06000396000f3fe608060405234801561001057600080fd5b50600436106101575760003560e01c806374fa687a116100c3578063b3cea2171161007c578063b3cea217146103b7578063d1789176146103d5578063e985e9c5146103f3578063f242432a14610423578063f2fde38b1461043f578063f36f235d1461045b57610157565b806374fa687a146102f35780638da5cb5b1461032357806398d5fdca146103415780639fade8a11461035f578063a22cb4651461037d578063a3f4df7e1461039957610157565b80632eb2c2d6116101155780632eb2c2d6146102425780633bc5de301461025e5780634e1273f41461027f5780634e69d560146102af5780636a627842146102cd578063715018a6146102e957610157565b8062fdd58e1461015c57806301ffc9a71461018c5780630e89341c146101bc5780630ee2cb10146101ec5780631a6952301461020a5780632e49d78b14610226575b600080fd5b6101766004803603810190610171919061260a565b610479565b6040516101839190612e68565b60405180910390f35b6101a660048036038101906101a191906126b2565b610542565b6040516101b39190612c50565b60405180910390f35b6101d660048036038101906101d1919061272d565b610624565b6040516101e39190612c86565b60405180910390f35b6101f46106b8565b6040516102019190612af8565b60405180910390f35b610224600480360381019061021f919061241b565b610725565b005b610240600480360381019061023b9190612704565b6108b1565b005b61025c60048036038101906102579190612480565b610994565b005b610266610a35565b6040516102769493929190612eac565b60405180910390f35b61029960048036038101906102949190612646565b610a62565b6040516102a69190612bf7565b60405180910390f35b6102b7610c13565b6040516102c49190612c6b565b60405180910390f35b6102e760048036038101906102e2919061241b565b610cba565b005b6102f1610e38565b005b61030d6004803603810190610308919061272d565b610ec0565b60405161031a9190612af8565b60405180910390f35b61032b610eff565b6040516103389190612af8565b60405180910390f35b610349610f29565b6040516103569190612e68565b60405180910390f35b610367610f33565b6040516103749190612af8565b60405180910390f35b610397600480360381019061039291906125ce565b610fc2565b005b6103a1610fd8565b6040516103ae9190612c86565b60405180910390f35b6103bf611066565b6040516103cc9190612e68565b60405180910390f35b6103dd61106c565b6040516103ea9190612e68565b60405180910390f35b61040d60048036038101906104089190612444565b611072565b60405161041a9190612c50565b60405180910390f35b61043d6004803603810190610438919061253f565b611106565b005b6104596004803603810190610454919061241b565b6111a7565b005b61046361129f565b6040516104709190612bd5565b60405180910390f35b60008073ffffffffffffffffffffffffffffffffffffffff168373ffffffffffffffffffffffffffffffffffffffff1614156104ea576040517f08c379a00000000000000000000000000000000000000000000000000000000081526004016104e190612ce8565b60405180910390fd5b60008083815260200190815260200160002060008473ffffffffffffffffffffffffffffffffffffffff1673ffffffffffffffffffffffffffffffffffffffff16815260200190815260200160002054905092915050565b60007fd9b67a26000000000000000000000000000000000000000000000000000000007bffffffffffffffffffffffffffffffffffffffffffffffffffffffff1916827bffffffffffffffffffffffffffffffffffffffffffffffffffffffff1916148061060d57507f0e89341c000000000000000000000000000000000000000000000000000000007bffffffffffffffffffffffffffffffffffffffffffffffffffffffff1916827bffffffffffffffffffffffffffffffffffffffffffffffffffffffff1916145b8061061d575061061c8261132d565b5b9050919050565b606060028054610633906131ae565b80601f016020809104026020016040519081016040528092919081815260200182805461065f906131ae565b80156106ac5780601f10610681576101008083540402835291602001916106ac565b820191906000526020600020905b81548152906001019060200180831161068f57829003601f168201915b50505050509050919050565b6000600a6000815481106106f5577f4e487b7100000000000000000000000000000000000000000000000000000000600052603260045260246000fd5b9060005260206000200160009054906101000a900473ffffffffffffffffffffffffffffffffffffffff16905090565b600960009054906101000a900473ffffffffffffffffffffffffffffffffffffffff1673ffffffffffffffffffffffffffffffffffffffff163373ffffffffffffffffffffffffffffffffffffffff16146107b5576040517f08c379a00000000000000000000000000000000000000000000000000000000081526004016107ac90612dc8565b60405180910390fd5b60006107bf610f33565b90506107e1818360075460085460405180602001604052806000815250611106565b600a829080600181540180825580915050600190039060005260206000200160009091909190916101000a81548173ffffffffffffffffffffffffffffffffffffffff021916908373ffffffffffffffffffffffffffffffffffffffff1602179055506001600660006101000a81548160ff02191690836004811115610890577f4e487b7100000000000000000000000000000000000000000000000000000000600052602160045260246000fd5b0217905550600b60008154809291906108a890613211565b91905055505050565b600960009054906101000a900473ffffffffffffffffffffffffffffffffffffffff1673ffffffffffffffffffffffffffffffffffffffff163373ffffffffffffffffffffffffffffffffffffffff1614610941576040517f08c379a000000000000000000000000000000000000000000000000000000000815260040161093890612dc8565b60405180910390fd5b80600660006101000a81548160ff0219169083600481111561098c577f4e487b7100000000000000000000000000000000000000000000000000000000600052602160045260246000fd5b021790555050565b61099c611397565b73ffffffffffffffffffffffffffffffffffffffff168573ffffffffffffffffffffffffffffffffffffffff1614806109e257506109e1856109dc611397565b611072565b5b610a21576040517f08c379a0000000000000000000000000000000000000000000000000000000008152600401610a1890612d68565b60405180910390fd5b610a2e858585858561139f565b5050505050565b600080600080600754600554600b54600660009054906101000a900460ff16935093509350935090919293565b60608151835114610aa8576040517f08c379a0000000000000000000000000000000000000000000000000000000008152600401610a9f90612e08565b60405180910390fd5b6000835167ffffffffffffffff811115610aeb577f4e487b7100000000000000000000000000000000000000000000000000000000600052604160045260246000fd5b604051908082528060200260200182016040528015610b195781602001602082028036833780820191505090505b50905060005b8451811015610c0857610bb2858281518110610b64577f4e487b7100000000000000000000000000000000000000000000000000000000600052603260045260246000fd5b6020026020010151858381518110610ba5577f4e487b7100000000000000000000000000000000000000000000000000000000600052603260045260246000fd5b6020026020010151610479565b828281518110610beb577f4e487b7100000000000000000000000000000000000000000000000000000000600052603260045260246000fd5b60200260200101818152505080610c0190613211565b9050610b1f565b508091505092915050565b6000600960009054906101000a900473ffffffffffffffffffffffffffffffffffffffff1673ffffffffffffffffffffffffffffffffffffffff163373ffffffffffffffffffffffffffffffffffffffff1614610ca5576040517f08c379a0000000000000000000000000000000000000000000000000000000008152600401610c9c90612dc8565b60405180910390fd5b600660009054906101000a900460ff16905090565b600960009054906101000a900473ffffffffffffffffffffffffffffffffffffffff1673ffffffffffffffffffffffffffffffffffffffff163373ffffffffffffffffffffffffffffffffffffffff1614610d4a576040517f08c379a0000000000000000000000000000000000000000000000000000000008152600401610d4190612dc8565b60405180910390fd5b600a819080600181540180825580915050600190039060005260206000200160009091909190916101000a81548173ffffffffffffffffffffffffffffffffffffffff021916908373ffffffffffffffffffffffffffffffffffffffff160217905550600b6000815480929190610dc090613211565b91905055506001600660006101000a81548160ff02191690836004811115610e11577f4e487b7100000000000000000000000000000000000000000000000000000000600052602160045260246000fd5b0217905550610e3581600754600854604051806020016040528060008152506116ff565b50565b610e40611397565b73ffffffffffffffffffffffffffffffffffffffff16610e5e610eff565b73ffffffffffffffffffffffffffffffffffffffff1614610eb4576040517f08c379a0000000000000000000000000000000000000000000000000000000008152600401610eab90612da8565b60405180910390fd5b610ebe6000611895565b565b600a8181548110610ed057600080fd5b906000526020600020016000915054906101000a900473ffffffffffffffffffffffffffffffffffffffff1681565b6000600360009054906101000a900473ffffffffffffffffffffffffffffffffffffffff16905090565b6000600554905090565b60006001600b541415610f495760009050610fbf565b600a6001600b54610f5a919061309f565b81548110610f91577f4e487b7100000000000000000000000000000000000000000000000000000000600052603260045260246000fd5b9060005260206000200160009054906101000a900473ffffffffffffffffffffffffffffffffffffffff1690505b90565b610fd4610fcd611397565b838361195b565b5050565b60048054610fe5906131ae565b80601f0160208091040260200160405190810160405280929190818152602001828054611011906131ae565b801561105e5780601f106110335761010080835404028352916020019161105e565b820191906000526020600020905b81548152906001019060200180831161104157829003601f168201915b505050505081565b60075481565b60085481565b6000600160008473ffffffffffffffffffffffffffffffffffffffff1673ffffffffffffffffffffffffffffffffffffffff16815260200190815260200160002060008373ffffffffffffffffffffffffffffffffffffffff1673ffffffffffffffffffffffffffffffffffffffff16815260200190815260200160002060009054906101000a900460ff16905092915050565b61110e611397565b73ffffffffffffffffffffffffffffffffffffffff168573ffffffffffffffffffffffffffffffffffffffff16148061115457506111538561114e611397565b611072565b5b611193576040517f08c379a000000000000000000000000000000000000000000000000000000000815260040161118a90612d28565b60405180910390fd5b6111a08585858585611ac8565b5050505050565b6111af611397565b73ffffffffffffffffffffffffffffffffffffffff166111cd610eff565b73ffffffffffffffffffffffffffffffffffffffff1614611223576040517f08c379a000000000000000000000000000000000000000000000000000000000815260040161121a90612da8565b60405180910390fd5b600073ffffffffffffffffffffffffffffffffffffffff168173ffffffffffffffffffffffffffffffffffffffff161415611293576040517f08c379a000000000000000000000000000000000000000000000000000000000815260040161128a90612d08565b60405180910390fd5b61129c81611895565b50565b6060600a80548060200260200160405190810160405280929190818152602001828054801561132357602002820191906000526020600020905b8160009054906101000a900473ffffffffffffffffffffffffffffffffffffffff1673ffffffffffffffffffffffffffffffffffffffff16815260200190600101908083116112d9575b5050505050905090565b60007f01ffc9a7000000000000000000000000000000000000000000000000000000007bffffffffffffffffffffffffffffffffffffffffffffffffffffffff1916827bffffffffffffffffffffffffffffffffffffffffffffffffffffffff1916149050919050565b600033905090565b81518351146113e3576040517f08c379a00000000000000000000000000000000000000000000000000000000081526004016113da90612e28565b60405180910390fd5b600073ffffffffffffffffffffffffffffffffffffffff168473ffffffffffffffffffffffffffffffffffffffff161415611453576040517f08c379a000000000000000000000000000000000000000000000000000000000815260040161144a90612d48565b60405180910390fd5b600061145d611397565b905061146d818787878787611d4a565b60005b845181101561166a5760008582815181106114b4577f4e487b7100000000000000000000000000000000000000000000000000000000600052603260045260246000fd5b6020026020010151905060008583815181106114f9577f4e487b7100000000000000000000000000000000000000000000000000000000600052603260045260246000fd5b60200260200101519050600080600084815260200190815260200160002060008b73ffffffffffffffffffffffffffffffffffffffff1673ffffffffffffffffffffffffffffffffffffffff1681526020019081526020016000205490508181101561159a576040517f08c379a000000000000000000000000000000000000000000000000000000000815260040161159190612d88565b60405180910390fd5b81810360008085815260200190815260200160002060008c73ffffffffffffffffffffffffffffffffffffffff1673ffffffffffffffffffffffffffffffffffffffff168152602001908152602001600020819055508160008085815260200190815260200160002060008b73ffffffffffffffffffffffffffffffffffffffff1673ffffffffffffffffffffffffffffffffffffffff168152602001908152602001600020600082825461164f9190613049565b925050819055505050508061166390613211565b9050611470565b508473ffffffffffffffffffffffffffffffffffffffff168673ffffffffffffffffffffffffffffffffffffffff168273ffffffffffffffffffffffffffffffffffffffff167f4a39dc06d4c0dbc64b70af90fd698a233a518aa5d07e595d983b8c0526c8f7fb87876040516116e1929190612c19565b60405180910390a46116f7818787878787611d52565b505050505050565b600073ffffffffffffffffffffffffffffffffffffffff168473ffffffffffffffffffffffffffffffffffffffff16141561176f576040517f08c379a000000000000000000000000000000000000000000000000000000000815260040161176690612e48565b60405180910390fd5b6000611779611397565b905061179a8160008761178b88611f39565b61179488611f39565b87611d4a565b8260008086815260200190815260200160002060008773ffffffffffffffffffffffffffffffffffffffff1673ffffffffffffffffffffffffffffffffffffffff16815260200190815260200160002060008282546117f99190613049565b925050819055508473ffffffffffffffffffffffffffffffffffffffff16600073ffffffffffffffffffffffffffffffffffffffff168273ffffffffffffffffffffffffffffffffffffffff167fc3d58168c5ae7397731d063d5bbf3d657854427343f4c083240f7aacaa2d0f628787604051611877929190612e83565b60405180910390a461188e81600087878787611fff565b5050505050565b6000600360009054906101000a900473ffffffffffffffffffffffffffffffffffffffff16905081600360006101000a81548173ffffffffffffffffffffffffffffffffffffffff021916908373ffffffffffffffffffffffffffffffffffffffff1602179055508173ffffffffffffffffffffffffffffffffffffffff168173ffffffffffffffffffffffffffffffffffffffff167f8be0079c531659141344cd1fd0a4f28419497f9722a3daafe3b4186f6b6457e060405160405180910390a35050565b8173ffffffffffffffffffffffffffffffffffffffff168373ffffffffffffffffffffffffffffffffffffffff1614156119ca576040517f08c379a00000000000000000000000000000000000000000000000000000000081526004016119c190612de8565b60405180910390fd5b80600160008573ffffffffffffffffffffffffffffffffffffffff1673ffffffffffffffffffffffffffffffffffffffff16815260200190815260200160002060008473ffffffffffffffffffffffffffffffffffffffff1673ffffffffffffffffffffffffffffffffffffffff16815260200190815260200160002060006101000a81548160ff0219169083151502179055508173ffffffffffffffffffffffffffffffffffffffff168373ffffffffffffffffffffffffffffffffffffffff167f17307eab39ab6107e8899845ad3d59bd9653f200f220920489ca2b5937696c3183604051611abb9190612c50565b60405180910390a3505050565b600073ffffffffffffffffffffffffffffffffffffffff168473ffffffffffffffffffffffffffffffffffffffff161415611b38576040517f08c379a0000000000000000000000000000000000000000000000000000000008152600401611b2f90612d48565b60405180910390fd5b6000611b42611397565b9050611b62818787611b5388611f39565b611b5c88611f39565b87611d4a565b600080600086815260200190815260200160002060008873ffffffffffffffffffffffffffffffffffffffff1673ffffffffffffffffffffffffffffffffffffffff16815260200190815260200160002054905083811015611bf9576040517f08c379a0000000000000000000000000000000000000000000000000000000008152600401611bf090612d88565b60405180910390fd5b83810360008087815260200190815260200160002060008973ffffffffffffffffffffffffffffffffffffffff1673ffffffffffffffffffffffffffffffffffffffff168152602001908152602001600020819055508360008087815260200190815260200160002060008873ffffffffffffffffffffffffffffffffffffffff1673ffffffffffffffffffffffffffffffffffffffff1681526020019081526020016000206000828254611cae9190613049565b925050819055508573ffffffffffffffffffffffffffffffffffffffff168773ffffffffffffffffffffffffffffffffffffffff168373ffffffffffffffffffffffffffffffffffffffff167fc3d58168c5ae7397731d063d5bbf3d657854427343f4c083240f7aacaa2d0f628888604051611d2b929190612e83565b60405180910390a4611d41828888888888611fff565b50505050505050565b505050505050565b611d718473ffffffffffffffffffffffffffffffffffffffff166121e6565b15611f31578373ffffffffffffffffffffffffffffffffffffffff1663bc197c8187878686866040518663ffffffff1660e01b8152600401611db7959493929190612b13565b602060405180830381600087803b158015611dd157600080fd5b505af1925050508015611e0257506040513d601f19601f82011682018060405250810190611dff91906126db565b60015b611ea857611e0e613316565b806308c379a01415611e6b5750611e2361375c565b80611e2e5750611e6d565b806040517f08c379a0000000000000000000000000000000000000000000000000000000008152600401611e629190612c86565b60405180910390fd5b505b6040517f08c379a0000000000000000000000000000000000000000000000000000000008152600401611e9f90612ca8565b60405180910390fd5b63bc197c8160e01b7bffffffffffffffffffffffffffffffffffffffffffffffffffffffff1916817bffffffffffffffffffffffffffffffffffffffffffffffffffffffff191614611f2f576040517f08c379a0000000000000000000000000000000000000000000000000000000008152600401611f2690612cc8565b60405180910390fd5b505b505050505050565b60606000600167ffffffffffffffff811115611f7e577f4e487b7100000000000000000000000000000000000000000000000000000000600052604160045260246000fd5b604051908082528060200260200182016040528015611fac5781602001602082028036833780820191505090505b5090508281600081518110611fea577f4e487b7100000000000000000000000000000000000000000000000000000000600052603260045260246000fd5b60200260200101818152505080915050919050565b61201e8473ffffffffffffffffffffffffffffffffffffffff166121e6565b156121de578373ffffffffffffffffffffffffffffffffffffffff1663f23a6e6187878686866040518663ffffffff1660e01b8152600401612064959493929190612b7b565b602060405180830381600087803b15801561207e57600080fd5b505af19250505080156120af57506040513d601f19601f820116820180604052508101906120ac91906126db565b60015b612155576120bb613316565b806308c379a0141561211857506120d061375c565b806120db575061211a565b806040517f08c379a000000000000000000000000000000000000000000000000000000000815260040161210f9190612c86565b60405180910390fd5b505b6040517f08c379a000000000000000000000000000000000000000000000000000000000815260040161214c90612ca8565b60405180910390fd5b63f23a6e6160e01b7bffffffffffffffffffffffffffffffffffffffffffffffffffffffff1916817bffffffffffffffffffffffffffffffffffffffffffffffffffffffff1916146121dc576040517f08c379a00000000000000000000000000000000000000000000000000000000081526004016121d390612cc8565b60405180910390fd5b505b505050505050565b6000808273ffffffffffffffffffffffffffffffffffffffff163b119050919050565b600061221c61221784612f16565b612ef1565b9050808382526020820190508285602086028201111561223b57600080fd5b60005b8581101561226b5781612251888261231f565b84526020840193506020830192505060018101905061223e565b5050509392505050565b600061228861228384612f42565b612ef1565b905080838252602082019050828560208602820111156122a757600080fd5b60005b858110156122d757816122bd8882612406565b8452602084019350602083019250506001810190506122aa565b5050509392505050565b60006122f46122ef84612f6e565b612ef1565b90508281526020810184848401111561230c57600080fd5b61231784828561316c565b509392505050565b60008135905061232e81613806565b92915050565b600082601f83011261234557600080fd5b8135612355848260208601612209565b91505092915050565b600082601f83011261236f57600080fd5b813561237f848260208601612275565b91505092915050565b6000813590506123978161381d565b92915050565b6000813590506123ac81613834565b92915050565b6000815190506123c181613834565b92915050565b600082601f8301126123d857600080fd5b81356123e88482602086016122e1565b91505092915050565b6000813590506124008161384b565b92915050565b6000813590506124158161385b565b92915050565b60006020828403121561242d57600080fd5b600061243b8482850161231f565b91505092915050565b6000806040838503121561245757600080fd5b60006124658582860161231f565b92505060206124768582860161231f565b9150509250929050565b600080600080600060a0868803121561249857600080fd5b60006124a68882890161231f565b95505060206124b78882890161231f565b945050604086013567ffffffffffffffff8111156124d457600080fd5b6124e08882890161235e565b935050606086013567ffffffffffffffff8111156124fd57600080fd5b6125098882890161235e565b925050608086013567ffffffffffffffff81111561252657600080fd5b612532888289016123c7565b9150509295509295909350565b600080600080600060a0868803121561255757600080fd5b60006125658882890161231f565b95505060206125768882890161231f565b945050604061258788828901612406565b935050606061259888828901612406565b925050608086013567ffffffffffffffff8111156125b557600080fd5b6125c1888289016123c7565b9150509295509295909350565b600080604083850312156125e157600080fd5b60006125ef8582860161231f565b925050602061260085828601612388565b9150509250929050565b6000806040838503121561261d57600080fd5b600061262b8582860161231f565b925050602061263c85828601612406565b9150509250929050565b6000806040838503121561265957600080fd5b600083013567ffffffffffffffff81111561267357600080fd5b61267f85828601612334565b925050602083013567ffffffffffffffff81111561269c57600080fd5b6126a88582860161235e565b9150509250929050565b6000602082840312156126c457600080fd5b60006126d28482850161239d565b91505092915050565b6000602082840312156126ed57600080fd5b60006126fb848285016123b2565b91505092915050565b60006020828403121561271657600080fd5b6000612724848285016123f1565b91505092915050565b60006020828403121561273f57600080fd5b600061274d84828501612406565b91505092915050565b60006127628383612786565b60208301905092915050565b600061277a8383612ada565b60208301905092915050565b61278f816130d3565b82525050565b61279e816130d3565b82525050565b60006127af82612fbf565b6127b98185613005565b93506127c483612f9f565b8060005b838110156127f55781516127dc8882612756565b97506127e783612feb565b9250506001810190506127c8565b5085935050505092915050565b600061280d82612fca565b6128178185613016565b935061282283612faf565b8060005b8381101561285357815161283a888261276e565b975061284583612ff8565b925050600181019050612826565b5085935050505092915050565b612869816130e5565b82525050565b600061287a82612fd5565b6128848185613027565b935061289481856020860161317b565b61289d81613338565b840191505092915050565b6128b18161315a565b82525050565b60006128c282612fe0565b6128cc8185613038565b93506128dc81856020860161317b565b6128e581613338565b840191505092915050565b60006128fd603483613038565b915061290882613356565b604082019050919050565b6000612920602883613038565b915061292b826133a5565b604082019050919050565b6000612943602b83613038565b915061294e826133f4565b604082019050919050565b6000612966602683613038565b915061297182613443565b604082019050919050565b6000612989602983613038565b915061299482613492565b604082019050919050565b60006129ac602583613038565b91506129b7826134e1565b604082019050919050565b60006129cf603283613038565b91506129da82613530565b604082019050919050565b60006129f2602a83613038565b91506129fd8261357f565b604082019050919050565b6000612a15602083613038565b9150612a20826135ce565b602082019050919050565b6000612a38601683613038565b9150612a43826135f7565b602082019050919050565b6000612a5b602983613038565b9150612a6682613620565b604082019050919050565b6000612a7e602983613038565b9150612a898261366f565b604082019050919050565b6000612aa1602883613038565b9150612aac826136be565b604082019050919050565b6000612ac4602183613038565b9150612acf8261370d565b604082019050919050565b612ae381613150565b82525050565b612af281613150565b82525050565b6000602082019050612b0d6000830184612795565b92915050565b600060a082019050612b286000830188612795565b612b356020830187612795565b8181036040830152612b478186612802565b90508181036060830152612b5b8185612802565b90508181036080830152612b6f818461286f565b90509695505050505050565b600060a082019050612b906000830188612795565b612b9d6020830187612795565b612baa6040830186612ae9565b612bb76060830185612ae9565b8181036080830152612bc9818461286f565b90509695505050505050565b60006020820190508181036000830152612bef81846127a4565b905092915050565b60006020820190508181036000830152612c118184612802565b905092915050565b60006040820190508181036000830152612c338185612802565b90508181036020830152612c478184612802565b90509392505050565b6000602082019050612c656000830184612860565b92915050565b6000602082019050612c8060008301846128a8565b92915050565b60006020820190508181036000830152612ca081846128b7565b905092915050565b60006020820190508181036000830152612cc1816128f0565b9050919050565b60006020820190508181036000830152612ce181612913565b9050919050565b60006020820190508181036000830152612d0181612936565b9050919050565b60006020820190508181036000830152612d2181612959565b9050919050565b60006020820190508181036000830152612d418161297c565b9050919050565b60006020820190508181036000830152612d618161299f565b9050919050565b60006020820190508181036000830152612d81816129c2565b9050919050565b60006020820190508181036000830152612da1816129e5565b9050919050565b60006020820190508181036000830152612dc181612a08565b9050919050565b60006020820190508181036000830152612de181612a2b565b9050919050565b60006020820190508181036000830152612e0181612a4e565b9050919050565b60006020820190508181036000830152612e2181612a71565b9050919050565b60006020820190508181036000830152612e4181612a94565b9050919050565b60006020820190508181036000830152612e6181612ab7565b9050919050565b6000602082019050612e7d6000830184612ae9565b92915050565b6000604082019050612e986000830185612ae9565b612ea56020830184612ae9565b9392505050565b6000608082019050612ec16000830187612ae9565b612ece6020830186612ae9565b612edb6040830185612ae9565b612ee860608301846128a8565b95945050505050565b6000612efb612f0c565b9050612f0782826131e0565b919050565b6000604051905090565b600067ffffffffffffffff821115612f3157612f306132e7565b5b602082029050602081019050919050565b600067ffffffffffffffff821115612f5d57612f5c6132e7565b5b602082029050602081019050919050565b600067ffffffffffffffff821115612f8957612f886132e7565b5b612f9282613338565b9050602081019050919050565b6000819050602082019050919050565b6000819050602082019050919050565b600081519050919050565b600081519050919050565b600081519050919050565b600081519050919050565b6000602082019050919050565b6000602082019050919050565b600082825260208201905092915050565b600082825260208201905092915050565b600082825260208201905092915050565b600082825260208201905092915050565b600061305482613150565b915061305f83613150565b9250827fffffffffffffffffffffffffffffffffffffffffffffffffffffffffffffffff038211156130945761309361325a565b5b828201905092915050565b60006130aa82613150565b91506130b583613150565b9250828210156130c8576130c761325a565b5b828203905092915050565b60006130de82613130565b9050919050565b60008115159050919050565b60007fffffffff0000000000000000000000000000000000000000000000000000000082169050919050565b600081905061312b826137f2565b919050565b600073ffffffffffffffffffffffffffffffffffffffff82169050919050565b6000819050919050565b60006131658261311d565b9050919050565b82818337600083830152505050565b60005b8381101561319957808201518184015260208101905061317e565b838111156131a8576000848401525b50505050565b600060028204905060018216806131c657607f821691505b602082108114156131da576131d96132b8565b5b50919050565b6131e982613338565b810181811067ffffffffffffffff82111715613208576132076132e7565b5b80604052505050565b600061321c82613150565b91507fffffffffffffffffffffffffffffffffffffffffffffffffffffffffffffffff82141561324f5761324e61325a565b5b600182019050919050565b7f4e487b7100000000000000000000000000000000000000000000000000000000600052601160045260246000fd5b7f4e487b7100000000000000000000000000000000000000000000000000000000600052602160045260246000fd5b7f4e487b7100000000000000000000000000000000000000000000000000000000600052602260045260246000fd5b7f4e487b7100000000000000000000000000000000000000000000000000000000600052604160045260246000fd5b600060033d11156133355760046000803e613332600051613349565b90505b90565b6000601f19601f8301169050919050565b60008160e01c9050919050565b7f455243313135353a207472616e7366657220746f206e6f6e204552433131353560008201527f526563656976657220696d706c656d656e746572000000000000000000000000602082015250565b7f455243313135353a204552433131353552656365697665722072656a6563746560008201527f6420746f6b656e73000000000000000000000000000000000000000000000000602082015250565b7f455243313135353a2062616c616e636520717565727920666f7220746865207a60008201527f65726f2061646472657373000000000000000000000000000000000000000000602082015250565b7f4f776e61626c653a206e6577206f776e657220697320746865207a65726f206160008201527f6464726573730000000000000000000000000000000000000000000000000000602082015250565b7f455243313135353a2063616c6c6572206973206e6f74206f776e6572206e6f7260008201527f20617070726f7665640000000000000000000000000000000000000000000000602082015250565b7f455243313135353a207472616e7366657220746f20746865207a65726f20616460008201527f6472657373000000000000000000000000000000000000000000000000000000602082015250565b7f455243313135353a207472616e736665722063616c6c6572206973206e6f742060008201527f6f776e6572206e6f7220617070726f7665640000000000000000000000000000602082015250565b7f455243313135353a20696e73756666696369656e742062616c616e636520666f60008201527f72207472616e7366657200000000000000000000000000000000000000000000602082015250565b7f4f776e61626c653a2063616c6c6572206973206e6f7420746865206f776e6572600082015250565b7f41727469666163743a204f6e6c79204d61726b65745800000000000000000000600082015250565b7f455243313135353a2073657474696e6720617070726f76616c2073746174757360008201527f20666f722073656c660000000000000000000000000000000000000000000000602082015250565b7f455243313135353a206163636f756e747320616e6420696473206c656e67746860008201527f206d69736d617463680000000000000000000000000000000000000000000000602082015250565b7f455243313135353a2069647320616e6420616d6f756e7473206c656e6774682060008201527f6d69736d61746368000000000000000000000000000000000000000000000000602082015250565b7f455243313135353a206d696e7420746f20746865207a65726f2061646472657360008201527f7300000000000000000000000000000000000000000000000000000000000000602082015250565b600060443d101561376c576137ef565b613774612f0c565b60043d036004823e80513d602482011167ffffffffffffffff8211171561379c5750506137ef565b808201805167ffffffffffffffff8111156137ba57505050506137ef565b80602083010160043d0385018111156137d75750505050506137ef565b6137e6826020018501866131e0565b82955050505050505b90565b6005811061380357613802613289565b5b50565b61380f816130d3565b811461381a57600080fd5b50565b613826816130e5565b811461383157600080fd5b50565b61383d816130f1565b811461384857600080fd5b50565b6005811061385857600080fd5b50565b61386481613150565b811461386f57600080fd5b5056fea2646970667358221220cb52db691bd8d954d90e079ae67c7e9ed5fad1692e34e6d337bc85a9f316850664736f6c63430008040033a2646970667358221220aaec6c42764ab3392a8b994c6a3df8a6a4ad39d82d090c0e435807fe4b42cd8e64736f6c6343000804003368747470733a2f2f676174657761792e70696e6174612e636c6f75642f697066732f",
  "immutableReferences": {},
  "source": "// SPDX-License-Identifier: GPL-3.0\r\npragma solidity 0.8.4;\r\nimport \"@openzeppelin/contracts/access/Ownable.sol\";\r\nimport \"./Artifact.sol\";\r\nimport \"./ICertification.sol\";\r\nimport \"./IArtifact.sol\";\r\n\r\n\r\ncontract ArtiFactory is Ownable{\r\n\r\n    address private MARKETX;\r\n    address private CERTIFICATION_REGISRTY;\r\n    \r\n    uint private AMOUNT_LIMIT = 1;//maximum amount of Artifacts that can be created in one transaction \r\n    string internal baseMetadataURI = \"https://gateway.pinata.cloud/ipfs/\";\r\n\r\n    address[] public TOKENS; //an array that contains different ERC1155 TOKENS deployed\r\n    uint public N_TOKENS = 0; \r\n    mapping(address => uint) public addressToIndex;\r\n    string[] public URIs;\r\n\r\n    event ArtifactCreated(address owner, address tokenContract); //emitted when ERC1155 token is deployed\r\n\r\n    constructor(address certificationRegistry, address marketplace) public {\r\n        MARKETX = marketplace;\r\n        CERTIFICATION_REGISRTY = certificationRegistry;\r\n    }\r\n\r\n    modifier onlyWhitelisted(){\r\n        require(ICertification(CERTIFICATION_REGISRTY).isWhitelisted(msg.sender),\"ArtiFactory: This address is not ACM\");\r\n        _;\r\n    }\r\n\r\n    function setMarketPlace(address _marketplace) public onlyOwner{\r\n        MARKETX = _marketplace;\r\n    }\r\n\r\n    function setAmountLimit(uint _limit) public onlyOwner{\r\n        AMOUNT_LIMIT = _limit;\r\n    }\r\n\r\n    function setBaseMetaDataURI(string memory _baseMetadataURI) public onlyOwner {\r\n        baseMetadataURI = _baseMetadataURI;\r\n    }\r\n\r\n    function getBaseMetaDataURI() public view returns(string memory) {\r\n        return baseMetadataURI;\r\n    }\r\n \r\n    function deployArtifact(string memory _contractName, string memory _tokenURI, uint _price) public onlyWhitelisted returns (address) {\r\n        Artifact t = new Artifact(_tokenURI, _contractName, TOKENS.length, AMOUNT_LIMIT, _price, msg.sender, MARKETX);\r\n        TOKENS.push(address(t));\r\n        URIs.push(_tokenURI);\r\n        N_TOKENS++;\r\n        addressToIndex[address(t)] = TOKENS.length - 1;\r\n        emit ArtifactCreated(msg.sender,address(t));\r\n        return address(t);\r\n    }\r\n\r\n    function getAddresses() public view returns(address[] memory) {\r\n        return TOKENS;\r\n    }\r\n\r\n    function getURIs() public view returns(string[] memory){\r\n        return URIs;\r\n    }\r\n\r\n}",
  "sourcePath": "D:\\ArtifacX\\Codebase\\contracts\\ArtiFactory.sol",
  "compiler": {
    "name": "solc",
    "version": "0.8.4+commit.c7e474f2.Emscripten.clang"
  },
  "schemaVersion": "3.4.7",
  "updatedAt": "2022-11-16T10:01:08.917Z",
  "networkType": "ethereum",
  "devdoc": {
    "kind": "dev",
    "methods": {
      "owner()": {
        "details": "Returns the address of the current owner."
      },
      "renounceOwnership()": {
        "details": "Leaves the contract without owner. It will not be possible to call `onlyOwner` functions anymore. Can only be called by the current owner. NOTE: Renouncing ownership will leave the contract without an owner, thereby removing any functionality that is only available to the owner."
      },
      "transferOwnership(address)": {
        "details": "Transfers ownership of the contract to a new account (`newOwner`). Can only be called by the current owner."
      }
    },
    "version": 1
  },
  "userdoc": {
    "kind": "user",
    "methods": {},
    "version": 1
  }
}