{
  "contractName": "CertificationRegistry",
  "abi": [
    {
      "anonymous": false,
      "inputs": [
        {
          "indexed": true,
          "internalType": "address",
          "name": "previousOwner",
          "type": "address"
        },
        {
          "indexed": true,
          "internalType": "address",
          "name": "newOwner",
          "type": "address"
        }
      ],
      "name": "OwnershipTransferred",
      "type": "event"
    },
    {
      "inputs": [],
      "name": "owner",
      "outputs": [
        {
          "internalType": "address",
          "name": "",
          "type": "address"
        }
      ],
      "stateMutability": "view",
      "type": "function",
      "constant": true
    },
    {
      "inputs": [],
      "name": "renounceOwnership",
      "outputs": [],
      "stateMutability": "nonpayable",
      "type": "function"
    },
    {
      "inputs": [
        {
          "internalType": "address",
          "name": "newOwner",
          "type": "address"
        }
      ],
      "name": "transferOwnership",
      "outputs": [],
      "stateMutability": "nonpayable",
      "type": "function"
    },
    {
      "inputs": [
        {
          "internalType": "address",
          "name": "_company",
          "type": "address"
        }
      ],
      "name": "isWhitelisted",
      "outputs": [
        {
          "internalType": "bool",
          "name": "",
          "type": "bool"
        }
      ],
      "stateMutability": "view",
      "type": "function",
      "constant": true
    },
    {
      "inputs": [
        {
          "internalType": "address",
          "name": "_company",
          "type": "address"
        },
        {
          "internalType": "bool",
          "name": "_status",
          "type": "bool"
        }
      ],
      "name": "setWhitelisted",
      "outputs": [],
      "stateMutability": "nonpayable",
      "type": "function"
    }
  ],
  "bytecode": "0x608060405234801561001057600080fd5b5061002d61002261003260201b60201c565b61003a60201b60201c565b6100fe565b600033905090565b60008060009054906101000a900473ffffffffffffffffffffffffffffffffffffffff169050816000806101000a81548173ffffffffffffffffffffffffffffffffffffffff021916908373ffffffffffffffffffffffffffffffffffffffff1602179055508173ffffffffffffffffffffffffffffffffffffffff168173ffffffffffffffffffffffffffffffffffffffff167f8be0079c531659141344cd1fd0a4f28419497f9722a3daafe3b4186f6b6457e060405160405180910390a35050565b6107228061010d6000396000f3fe608060405234801561001057600080fd5b50600436106100575760003560e01c80633af32abf1461005c578063715018a61461008c5780638da5cb5b146100965780639281aa0b146100b4578063f2fde38b146100d0575b600080fd5b610076600480360381019061007191906104b8565b6100ec565b604051610083919061059c565b60405180910390f35b610094610142565b005b61009e6101ca565b6040516100ab9190610581565b60405180910390f35b6100ce60048036038101906100c991906104e1565b6101f3565b005b6100ea60048036038101906100e591906104b8565b6102ca565b005b6000600160008373ffffffffffffffffffffffffffffffffffffffff1673ffffffffffffffffffffffffffffffffffffffff16815260200190815260200160002060009054906101000a900460ff169050919050565b61014a6103c2565b73ffffffffffffffffffffffffffffffffffffffff166101686101ca565b73ffffffffffffffffffffffffffffffffffffffff16146101be576040517f08c379a00000000000000000000000000000000000000000000000000000000081526004016101b5906105d7565b60405180910390fd5b6101c860006103ca565b565b60008060009054906101000a900473ffffffffffffffffffffffffffffffffffffffff16905090565b6101fb6103c2565b73ffffffffffffffffffffffffffffffffffffffff166102196101ca565b73ffffffffffffffffffffffffffffffffffffffff161461026f576040517f08c379a0000000000000000000000000000000000000000000000000000000008152600401610266906105d7565b60405180910390fd5b80600160008473ffffffffffffffffffffffffffffffffffffffff1673ffffffffffffffffffffffffffffffffffffffff16815260200190815260200160002060006101000a81548160ff0219169083151502179055505050565b6102d26103c2565b73ffffffffffffffffffffffffffffffffffffffff166102f06101ca565b73ffffffffffffffffffffffffffffffffffffffff1614610346576040517f08c379a000000000000000000000000000000000000000000000000000000000815260040161033d906105d7565b60405180910390fd5b600073ffffffffffffffffffffffffffffffffffffffff168173ffffffffffffffffffffffffffffffffffffffff1614156103b6576040517f08c379a00000000000000000000000000000000000000000000000000000000081526004016103ad906105b7565b60405180910390fd5b6103bf816103ca565b50565b600033905090565b60008060009054906101000a900473ffffffffffffffffffffffffffffffffffffffff169050816000806101000a81548173ffffffffffffffffffffffffffffffffffffffff021916908373ffffffffffffffffffffffffffffffffffffffff1602179055508173ffffffffffffffffffffffffffffffffffffffff168173ffffffffffffffffffffffffffffffffffffffff167f8be0079c531659141344cd1fd0a4f28419497f9722a3daafe3b4186f6b6457e060405160405180910390a35050565b60008135905061049d816106be565b92915050565b6000813590506104b2816106d5565b92915050565b6000602082840312156104ca57600080fd5b60006104d88482850161048e565b91505092915050565b600080604083850312156104f457600080fd5b60006105028582860161048e565b9250506020610513858286016104a3565b9150509250929050565b61052681610608565b82525050565b6105358161061a565b82525050565b60006105486026836105f7565b915061055382610646565b604082019050919050565b600061056b6020836105f7565b915061057682610695565b602082019050919050565b6000602082019050610596600083018461051d565b92915050565b60006020820190506105b1600083018461052c565b92915050565b600060208201905081810360008301526105d08161053b565b9050919050565b600060208201905081810360008301526105f08161055e565b9050919050565b600082825260208201905092915050565b600061061382610626565b9050919050565b60008115159050919050565b600073ffffffffffffffffffffffffffffffffffffffff82169050919050565b7f4f776e61626c653a206e6577206f776e657220697320746865207a65726f206160008201527f6464726573730000000000000000000000000000000000000000000000000000602082015250565b7f4f776e61626c653a2063616c6c6572206973206e6f7420746865206f776e6572600082015250565b6106c781610608565b81146106d257600080fd5b50565b6106de8161061a565b81146106e957600080fd5b5056fea264697066735822122009a523bb2de2fbac10288159f186032b885c8a8f997dee1f5350a329cabbbf2864736f6c63430008040033",
  "immutableReferences": {},
  "source": "// SPDX-License-Identifier: GPL-3.0\r\npragma solidity 0.8.4;\r\nimport \"@openzeppelin/contracts/access/Ownable.sol\";\r\n\r\ncontract CertificationRegistry is Ownable{\r\n    \r\n    mapping(address => bool) WHITELISTED;\r\n    \r\n    function isWhitelisted(address _company) public view returns(bool){\r\n        return WHITELISTED[_company];\r\n    }\r\n\r\n    function setWhitelisted(address _company, bool _status) public onlyOwner{\r\n        WHITELISTED[_company] = _status;\r\n    }\r\n\r\n}\r\n",
  "sourcePath": "D:\\ArtifacX\\Codebase\\contracts\\CertificationRegistry.sol",
  "compiler": {
    "name": "solc",
    "version": "0.8.4+commit.c7e474f2.Emscripten.clang"
  },
  "schemaVersion": "3.4.7",
  "updatedAt": "2022-05-01T20:51:36.667Z",
  "networkType": "ethereum",
  "devdoc": {
    "kind": "dev",
    "methods": {
      "owner()": {
        "details": "Returns the address of the current owner."
      },
      "renounceOwnership()": {
        "details": "Leaves the contract without owner. It will not be possible to call `onlyOwner` functions anymore. Can only be called by the current owner. NOTE: Renouncing ownership will leave the contract without an owner, thereby removing any functionality that is only available to the owner."
      },
      "transferOwnership(address)": {
        "details": "Transfers ownership of the contract to a new account (`newOwner`). Can only be called by the current owner."
      }
    },
    "version": 1
  },
  "userdoc": {
    "kind": "user",
    "methods": {},
    "version": 1
  }
}